:020000040800F2
:100000000000022041150008551400085B14000888
:1000100061140008671400086D1400080000000057
:1000200000000000000000000000000051AB0008CC
:100030007314000800000000A1AD000875850008D9
:1000400091150008911500089115000891150008F8
:1000500091150008911500089115000891150008E8
:1000600091150008911500089115000891150008D8
:1000700091150008911500089115000891150008C8
:100080009115000891150008911500080000000066
:1000900000000000000000000000000091150008B2
:1000A00081140008911500089115000891150008A9
:1000B0009115000891150008911500089115000888
:1000C0009115000891150008911500089115000878
:1000D0009115000891150008911500080000000016
:1000E0009115000891150008911500080000000006
:1000F0000000000000000000000000009115000852
:1001000000000000911500089115000891150008E5
:1001100000000000000000000000000000000000DF
:100120009115000891150008911500089115000817
:100130009115000800000000000000000000000011
:100140000000000000000000000000009D140008F6
:1001500091150008911500089115000891150008E7
:100160009115000891150008000000000000000033
:10017000000000000000000000000000000000007F
:1001800000000000911500080000000000000000C1
:0801900091150008911500080B
:1001A00010B5054C237833B9044B13B10448AFF3B1
:1001B00000800123237010BD7801002000000000A2
:1001C00018C1000808B5034B1BB103490348AFF33E
:1001D000008008BD000000007C01002018C100085C
:1001E00053B94AB9002908BF00281CBF4FF0FF319E
:1001F0004FF0FF3000F074B9ADF1080C6DE904CE9A
:1002000000F006F8DDF804E0DDE9022304B07047F1
:100210002DE9F047089D04468E46002B4DD18A42B9
:10022000944669D9B2FA82F252B101FA02F3C2F1EC
:10023000200120FA01F10CFA02FC41EA030E94407D
:100240004FEA1C48210CBEFBF8F61FFA8CF708FB9E
:1002500016E341EA034306FB07F199420AD91CEB76
:10026000030306F1FF3080F01F81994240F21C81A8
:10027000023E63445B1AA4B2B3FBF8F008FB1033F0
:1002800044EA034400FB07F7A7420AD91CEB040425
:1002900000F1FF3380F00A81A74240F207816444F5
:1002A000023840EA0640E41B00261DB1D44000237A
:1002B000C5E900433146BDE8F0878B4209D9002DDE
:1002C00000F0EF800026C5E9000130463146BDE868
:1002D000F087B3FA83F6002E4AD18B4202D38242D2
:1002E00000F2F980841A61EB030301209E46002D81
:1002F000E0D0C5E9004EDDE702B9FFDEB2FA82F2D6
:10030000002A40F09280A1EB0C014FEA1C471FFA33
:100310008CFE0126200CB1FBF7F307FB131140EA1A
:1003200001410EFB03F0884208D91CEB010103F1E7
:10033000FF3802D2884200F2CB804346091AA4B2A9
:10034000B1FBF7F007FB101144EA01440EFB00FE7D
:10035000A64508D91CEB040400F1FF3102D2A645E2
:1003600000F2BB800846A4EB0E0440EA03409CE781
:10037000C6F12007B34022FA07FC4CEA030C20FA2E
:1003800007F401FA06F31C43F9404FEA1C4900FA4E
:1003900006F3B1FBF9F8200C1FFA8CFE09FB1811CB
:1003A00040EA014108FB0EF0884202FA06F20BD93E
:1003B0001CEB010108F1FF3A80F08880884240F28E
:1003C0008580A8F102086144091AA4B2B1FBF9F0D2
:1003D00009FB101144EA014100FB0EFE8E4508D9CD
:1003E0001CEB010100F1FF346CD28E456AD9023852
:1003F000614440EA0840A0FB0294A1EB0E01A14237
:10040000C846A64656D353D05DB1B3EB080261EBA4
:100410000E0101FA07F722FA06F3F1401F43C5E97E
:10042000007100263146BDE8F087C2F12003D840B4
:100430000CFA02FC21FA03F3914001434FEA1C47F6
:100440001FFA8CFEB3FBF7F007FB10360B0C43EAE8
:10045000064300FB0EF69E4204FA02F408D91CEB98
:10046000030300F1FF382FD29E422DD90238634496
:100470009B1B89B2B3FBF7F607FB163341EA034136
:1004800006FB0EF38B4208D91CEB010106F1FF3885
:1004900016D28B4214D9023E6144C91A46EA00467C
:1004A00038E72E46284605E70646E3E61846F8E60E
:1004B0004B45A9D2B9EB020864EB0C0E0138A3E757
:1004C0004646EAE7204694E74046D1E7D0467BE738
:1004D000023B614432E7304609E76444023842E7B0
:1004E000704700BF80B485B000AFB9607A601A462B
:1004F0000346FB731346BB81BB69FA7B1A70BB6969
:10050000BA685A60BB697A689A60BB69BA899A818D
:1005100000BF1437BD465DF8047B704780B584B0DA
:1005200000AF786039600023FB600FE00F237B8110
:10053000FB681B017A681A447B891146184600F053
:1005400033F90346002BFB680133FB603B681B78E3
:100550001A46FB689342E9DB00BF00BF1037BD4677
:1005600080BD80B584B000AF786039600023FB6047
:1005700010E04AF201037B81FB681B017A681A4490
:100580007B891146184600F00FF90346002BFB68E3
:100590000133FB603B681B781A46FB689342E8DB3B
:1005A00000BF00BF1037BD4680BD80B584B000AF2E
:1005B000F8600B467A607B817B68FA681A607B681A
:1005C0007A899A807B6818687B689B880122194623
:1005D00001F0ACFA00BF1037BD4680BD80B485B0D5
:1005E00000AFF860B9607A60FB681B781B021AB232
:1005F000FB6801331B781BB213431BB29AB2BB6872
:100600001A80FB6802331B781B021AB2FB680333A3
:100610001B781BB213431BB29AB27B681A8000BFCF
:100620001437BD465DF8047B704780B586B000AFD7
:10063000F860B9601346FB800023FB75B86800F0D2
:1006400031F80346BB75FB881B09FB80FB88DBB2D6
:100650003B75FB881B0A9BB2DAB2BB7D1343DBB24E
:100660007B75FB689868FB689B890022194601F03E
:100670005DFAFB68586807F114014FF0FF3302225E
:1006800003F0FDF90346FB75FB689868FB689B89DE
:100690000122194601F04AFAFB7D18461837BD467B
:1006A00080BD000080B483B000AF78607B681B78A9
:1006B0001A46044B9B5C18460C37BD465DF8047B1C
:1006C000704700BF0800002080B586B000AFF8601A
:1006D000B9607A603B600023FB75FB681B88213B97
:1006E000072B21D801A252F823F000BF0D07000804
:1006F0001307000829070008290700082907000830
:10070000290700081F0700081307000800F014F865
:100710000DE0BB681B88184600F01EF807E0BB68B8
:100720001B88184600F030F80123FB7500BFFB7DE5
:1007300018461837BD4680BD80B500AF00220421A1
:10074000044801F0F3F901220421024801F0EEF916
:1007500000BF80BD0004024080B483B000AF0346F8
:10076000FB80FB88074A1360064B1B684FF47A72C4
:10077000B2FBF3F3034A136000BF0C37BD465DF8CC
:10078000047B70470000002080B483B000AF0346B4
:10079000FB80FB88034A136000BF0C37BD465DF841
:1007A000047B70470400002080B584B000AF03468E
:1007B0003960FB80FB88DBB23B73FB881B0A9BB272
:1007C000DBB27B733B6898683B689B8900221946C3
:1007D00001F0ACF93B68586807F10C014FF0FF33AA
:1007E000022203F04CF90346FB733B6898683B68B0
:1007F0009B890122194601F099F9FB7B18461037B5
:10080000BD4680BD80B586B000AF78600B467B806A
:10081000154A07F1080392E8030083E80300002368
:100820007B6117E000233B610EE07B691B017A6866
:10083000D01807F108023B6913447A881946FFF77C
:10084000F4FE3B6901333B613B69072BEDDD7B69BE
:1008500001337B617B69032BE4DDFFF76DFF00BF94
:100860001837BD4680BD00BF30C1000880B483B0DA
:1008700000AF78607B6800229A607B689A687B682A
:100880001A607B6840F2FF325A607B684FF48062E6
:100890009A8100BF0C37BD465DF8047B704780B479
:1008A00083B000AF03463A60FB800B46BB803B68D9
:1008B0005B6801333A68928993FBF2F101FB02F223
:1008C0009A1A3B685A603B685B683A6802339B003F
:1008D0001344FA88DA803B685B683A689B001344EB
:1008E000BA881A823B689B685A1C3B689A6000BFB2
:1008F0000C37BD465DF8047B7047000090B593B09F
:1009000002AF00F047FE00F0D5F800F09BFA00F0CF
:1009100039F900F0DFF900F06DF900F067FA00F046
:10092000A1F900F00FFA504B009310234F4A5049A1
:100930000020FFF7D7FD4F4B009302234E4A4F494B
:100940000120FFF7CFFD4E4B00934FF40043474A81
:100950004C490220FFF7C6FD4B4B00934FF48053E8
:10096000454A4A490320FFF7BDFD494B1B781B014F
:1009700018460BF04DFA03461A46464B1A60454B93
:100980001B68394A1C4613460FCB84E80F00414BC5
:100990001B681033374A1C4613460FCB84E80F0000
:1009A0003C4B1B682033364A1C4613460FCB84E869
:1009B0000F00384B1B683033334A1C4613460FCBAD
:1009C00084E80F00334B1B6831491846FFF7A6FD3A
:1009D000304B1B682E491846FFF7C3FD2E4A0421F1
:1009E0002548FFF7E2FD2D48FFF740FF3B46402238
:1009F000002118460BF022FA4FF47A7000F09EFAAC
:100A0000244B1B684FF6FF711846FFF7FBFE4FF4AF
:100A10007A7000F093FA1F4B1B6800211846FFF70D
:100A2000F1FE4FF47A7000F089FA1A4B1B684FF60A
:100A3000FF711846FFF7E6FE07F0B6FD184A0121E0
:100A4000012007F08DFE0346164A1360114B1B6808
:100A5000154A1946154807F0F1FD0346144A13607C
:100A600007F0C6FDFEE700BF88030020000002403B
:100A70009401002098030020000402409C02002002
:100A8000A8030020EC010020B8030020440200204D
:100A900010000020C8030020CC030020D403002055
:100AA000E0C1000884030020BCC10008710F0008E9
:100AB0008003002080B594B000AF07F120033022FE
:100AC000002118460BF0BAF907F10C0300221A6056
:100AD0005A609A60DA601A610023BB60274B1B6C76
:100AE000264A43F080531364244B1B6C03F080535D
:100AF000BB60BB6800237B60214B1B68204A43F42A
:100B0000404313601E4B1B6803F440437B607B68CB
:100B100001233B624FF480337B620223BB634FF4BB
:100B20008003FB630C233B64B8237B640423BB6416
:100B30000823FB6407F12003184602F08DFA0346F0
:100B4000002B01D000F048FA0F23FB6002233B6129
:100B500000237B614FF48053BB610023FB6107F1ED
:100B60000C030321184602F0EFFC0346002B01D0D2
:100B700000F032FA00BF5037BD4680BD0038024059
:100B80000070004080B500AF184B194A1A60174B2F
:100B90004FF482725A60154B4FF400429A60134B27
:100BA0004FF40062DA60114B00221A610F4B0022F1
:100BB0005A610E4B4FF400729A610C4B0022DA61BD
:100BC0000A4B00221A62094B00225A62074B00228C
:100BD0009A62064B0A22DA62044802F0C7FE034614
:100BE000002B01D000F0F8F900BF80BD9401002077
:100BF0000030014080B500AF184B194A1A60174BFE
:100C00004FF482725A60154B4FF400429A60134BB6
:100C10004FF40062DA60114B00221A610F4B002280
:100C20005A610E4B4FF400729A610C4B0022DA614C
:100C30000A4B00221A62094B00225A62074B00221B
:100C40009A62064B0A22DA62044802F08FFE0346DB
:100C5000002B01D000F0C0F900BF80BDEC010020E6
:100C6000003C004080B500AF184B194A1A60174B82
:100C70004FF482725A60154B4FF400429A60134B46
:100C80004FF40062DA60114B00221A610F4B002210
:100C90005A610E4B4FF400729A610C4B0022DA61DC
:100CA0000A4B00221A62094B00225A62074B0022AB
:100CB0009A62064B0A22DA62044802F057FE0346A3
:100CC000002B01D000F088F900BF80BD4402002055
:100CD0000034014080B500AF184B194A1A60174B19
:100CE0004FF482725A60154B4FF400429A60134BD6
:100CF0004FF40062DA60114B00221A610F4B0022A0
:100D00005A610E4B4FF400729A610C4B0022DA616B
:100D10000A4B00221A62094B00225A62074B00223A
:100D20009A62064B0A22DA62044802F01FFE03466A
:100D3000002B01D000F050F900BF80BD9C020020C4
:100D40000050014080B586B000AF07F108030022D3
:100D50001A605A609A60DA603B4600221A605A6054
:100D6000204B214A1A601F4B5F225A601D4B002204
:100D70009A601C4B4FF6FF72DA601A4B00221A6120
:100D8000184B00225A61174B00229A61154803F054
:100D90007DF80346002B01D000F01EF94FF480537C
:100DA000BB6007F1080319460E4803F083FA0346B7
:100DB000002B01D000F010F900233B6000237B6082
:100DC0003B461946074803F07FFC0346002B01D041
:100DD00000F002F9034803F0A9F800BF1837BD4638
:100DE00080BD00BFF40200200000014080B500AFCC
:100DF000124B134A1A60114B4FF4E1325A600F4BF9
:100E000000229A600D4B0022DA600C4B00221A611E
:100E10000A4B0C225A61094B00229A61074B0022AF
:100E2000DA61064B00221A62044803F0CFFC034645
:100E3000002B01D000F0D0F800BF80BD3C030020A3
:100E40000010014080B58AB000AF07F11403002202
:100E50001A605A609A60DA601A6100233B61344B71
:100E60001B6B334A43F004031363314B1B6B03F0DA
:100E700004033B613B690023FB602D4B1B6B2C4A39
:100E800043F0800313632A4B1B6B03F08003FB606A
:100E9000FB680023BB60264B1B6B254A43F0010314
:100EA0001363234B1B6B03F00103BB60BB68002380
:100EB0007B601F4B1B6B1E4A43F0020313631C4BEA
:100EC0001B6B03F002037B607B68012248F2100178
:100ED000184800F02BFE012241F20201164800F0F2
:100EE00025FE00220421144800F020FE48F21003E1
:100EF0007B610123BB610023FB6100233B6207F19F
:100F0000140319460B4800F08DFC41F206037B6187
:100F10000123BB610023FB6100233B6207F1140343
:100F20001946054800F07EFC00BF2837BD4680BD4D
:100F300000380240000002400004024080B483B048
:100F400000AF0346FB80094B1B6800225A6200BFBA
:100F5000064B1B685A6AFB889A42F9D300BF00BF50
:100F60000C37BD465DF8047B704700BFF4020020DB
:100F700080B586B000AF78600AF0C0F90023FB7539
:100F80000023BB750023BB8200237B827B68FB6050
:100F90004FF47A70FFF7D2FF4FF6FF71F868FFF752
:100FA00031FC4FF47A70FFF7C9FF0021F868FFF7B2
:100FB00029FCEDE780B582B000AF78607B681B68E4
:100FC000044A934201D100F007FB00BF0837BD4639
:100FD00080BD00BF0040014080B400AF72B600BFCA
:100FE000FEE7000080B582B000AF00237B60124BAB
:100FF0005B6C114A43F4804353640F4B5B6C03F406
:1010000080437B607B6800233B600B4B1B6C0A4A70
:1010100043F080531364084B1B6C03F080533B6018
:101020003B6800220F216FF0010000F0D1FB00BFF0
:101030000837BD4680BD00BF0038024080B592B081
:1010400000AF786007F1340300221A605A609A609A
:10105000DA601A617B681B68834A93422CD10023B3
:101060003B63824B5B6C814A43F4805353647F4BF8
:101070005B6C03F480533B633B6B0023FB627B4B55
:101080001B6B7A4A43F001031363784B1B6B03F02D
:101090000103FB62FB6AA0237B630223BB63002383
:1010A000FB6303233B6405237B6407F13403194688
:1010B0006F4800F0B7FBD2E07B681B686D4A934233
:1010C0002CD10023BB62694B1B6C684A43F400437C
:1010D0001364664B1B6C03F40043BB62BB6A0023C2
:1010E0007B62624B1B6B614A43F0020313635F4BED
:1010F0001B6B03F002037B627B6A28237B63022362
:10110000BB630023FB6303233B6406237B6407F17B
:1011100034031946584800F085FBA0E07B681B6843
:10112000564A93424BD100233B62504B5B6C4F4A73
:1011300043F4005353644D4B5B6C03F400533B6228
:101140003B6A0023FB61494B1B6B484A43F0010398
:101150001363464B1B6B03F00103FB61FB69002328
:10116000BB61424B1B6B414A43F0020313633F4B8D
:101170001B6B03F00203BB61BB6902237B63022389
:10118000BB630023FB6303233B6405237B6407F1FC
:1011900034031946364800F045FB4FF400537B6397
:1011A0000223BB630023FB6303233B6406237B64AE
:1011B00007F134031946304800F034FB4FE07B68F8
:1011C0001B682F4A93424AD100237B61274B5B6CFB
:1011D000264A43F480135364244B5B6C03F480135E
:1011E0007B617B6900233B61204B1B6B1F4A43F0F3
:1011F000020313631D4B1B6B03F002033B613B694E
:101200000023FB60194B1B6B184A43F00103136367
:10121000164B1B6B03F00103FB60FB6801237B6330
:101220000223BB630023FB6303233B6406237B642D
:1012300007F134031946104800F0F4FA4FF48063C4
:101240007B630223BB630023FB6303233B6406230E
:101250007B6407F134031946054800F0E3FA00BF48
:101260004837BD4680BD00BF003001400038024015
:1012700000000240003C00400004024000340140F5
:101280000050014080B584B000AF78607B681B6877
:101290000E4A934215D10023FB600D4B5B6C0C4A48
:1012A00043F0010353640A4B5B6C03F00103FB60E2
:1012B000FB6800220521182000F08AFA182000F0AF
:1012C000A3FA00BF1037BD4680BD00BF000001403B
:1012D0000038024080B58AB000AF786007F114038F
:1012E00000221A605A609A60DA601A617B681B6893
:1012F000284A93424AD100233B61274B5B6C264A24
:1013000043F010035364244B5B6C03F010033B6108
:101310003B690023FB60204B1B6B1F4A43F001031A
:1013200013631D4B1B6B03F00103FB60FB68002381
:10133000BB60194B1B6B184A43F002031363164B37
:101340001B6B03F00203BB60BB684FF440737B610F
:101350000223BB610023FB6103233B6207237B6203
:1013600007F1140319460D4800F05CFA80237B61F5
:101370000223BB610023FB6103233B6207237B62E3
:1013800007F114031946064800F04CFA00BF28374D
:10139000BD4680BD00100140003802400000024000
:1013A0000004024080B58CB000AF78600023FB627F
:1013B0000023BB6200227968182000F009FA182087
:1013C00000F022FA0023FB601E4B5B6C1D4A43F4C5
:1013D000803353641B4B5B6C03F48033FB60FB680E
:1013E00007F1100207F114031146184602F08CFAB7
:1013F00002F076FAF862FB6A134AA2FB03239B0C05
:10140000013BBB62114B124A1A60104B40F2E732AB
:10141000DA600E4ABB6A53600C4B00221A610B4B18
:1014200000229A60094802F031FD0346002B04D1E6
:10143000064802F0D5FD034600E001231846303788
:10144000BD4680BD0038024083DE1B43E41300200C
:101450000040014080B400AFFEE780B400AFFEE77B
:1014600080B400AFFEE780B400AFFEE780B400AF09
:10147000FEE780B400AF00BFBD465DF8047B704757
:1014800080B500AF034802F00DFE034802F00AFEEB
:1014900000BF80BDF4020020E413002080B500AF3F
:1014A000024800F0ACFC00BF80BD00BF24730020E8
:1014B00080B586B000AF7860144A154BD31A7B61B3
:1014C0007B693B61134B1B68002B02D1114B124A05
:1014D0001A60104B1A687B6813443A699A4207D223
:1014E0000AF06AFC03460C221A604FF0FF3309E051
:1014F000084B1B68FB60074B1A687B681344054A5E
:101500001360FB6818461837BD4680BD00000220F6
:10151000000400002C140020607A002080B400AF8A
:10152000064BD3F88830054A43F47003C2F888307C
:1015300000BFBD465DF8047B704700BF00ED00E0D2
:10154000DFF834D00D480E490E4A002302E0D4588B
:10155000C4500433C4188C42F9D30B4A0B4C0023FB
:1015600001E013600432A242FBD3FFF7D7FF0AF079
:1015700029FCFFF7C3F9704700000220000000209B
:101580007801002078C2000878010020607A0020ED
:10159000FEE7000080B500AF0E4B1B680D4A43F418
:1015A000007313600B4B1B680A4A43F4806313609B
:1015B000084B1B68074A43F480731360032000F054
:1015C000FCF80520FFF7EEFEFFF70CFD00231846A0
:1015D00080BD00BF003C024080B400AF064B1B78CA
:1015E0001A46064B1B681344044A136000BFBD46ED
:1015F0005DF8047B704700BF1C0000203014002001
:1016000080B400AF034B1B681846BD465DF8047BF1
:10161000704700BF3014002080B584B000AF786000
:10162000FFF7EEFFB8607B68FB60FB68B3F1FF3F3C
:1016300005D00A4B1B781A46FB681344FB6000BFB9
:10164000FFF7DEFF0246BB68D31AFA689A42F7D862
:1016500000BF00BF1037BD4680BD00BF1C0000208A
:1016600080B485B000AF78607B6803F00703FB604F
:101670000C4BDB68BB60BA684FF6FF031340BB60DE
:10168000FB681A02BB68134343F0BF6343F40033A3
:10169000BB60044ABB68D36000BF1437BD465DF829
:1016A000047B704700ED00E080B400AF044BDB68C2
:1016B0001B0A03F007031846BD465DF8047B70471C
:1016C00000ED00E080B483B000AF0346FB7197F9F2
:1016D0000730002B0BDBFB7903F01F02074997F95A
:1016E00007305B09012000FA02F241F8232000BF15
:1016F0000C37BD465DF8047B704700BF00E100E099
:1017000080B483B000AF03463960FB7197F90730AE
:10171000002B0ADB3B68DAB20C4997F9073012015B
:10172000D2B20B4483F800230AE03B68DAB20849DE
:10173000FB7903F00F03043B1201D2B20B441A767B
:1017400000BF0C37BD465DF8047B704700E100E048
:1017500000ED00E080B489B000AFF860B9607A6055
:10176000FB6803F00703FB61FB69C3F10703042B6C
:1017700028BF0423BB61FB690433062B02D9FB6934
:10178000033B00E000237B614FF0FF32BB6902FAAC
:1017900003F3DA43BB681A407B699A404FF0FF318C
:1017A0007B6901FA03F3D9437B680B401343184666
:1017B0002437BD465DF8047B704780B582B000AF2A
:1017C00078607868FFF74CFF00BF0837BD4680BDE2
:1017D00080B586B000AF0346B9607A60FB73002322
:1017E0007B61FFF761FF78617A68B9687869FFF714
:1017F000B1FF024697F90F3011461846FFF780FFF8
:1018000000BF1837BD4680BD80B582B000AF03462B
:10181000FB7197F907301846FFF754FF00BF0837F0
:10182000BD4680BD80B489B000AF786039600023C8
:101830007B6100233B610023BB610023FB6159E115
:101840000122FB6902FA03F37B613B681B687A693A
:1018500013403B613A697B699A4240F048813B689A
:101860005B6803F00303012B05D03B685B6803F062
:101870000303022B30D17B689B68BB61FB695B0073
:10188000032202FA03F3DB43BA691340BB613B68EE
:10189000DA68FB695B0002FA03F3BA691343BB61C0
:1018A0007B68BA699A607B685B68BB610122FB69EF
:1018B00002FA03F3DB43BA691340BB613B685B6820
:1018C0001B0903F00102FB6902FA03F3BA6913432F
:1018D000BB617B68BA695A603B685B6803F00303CD
:1018E000032B17D07B68DB68BB61FB695B000322BD
:1018F00002FA03F3DB43BA691340BB613B689A68A1
:10190000FB695B0002FA03F3BA691343BB617B68AE
:10191000BA69DA603B685B6803F00303022B23D1EA
:10192000FB69DA087B68083253F82230BB61FB6937
:1019300003F007039B000F2202FA03F3DB43BA69AB
:101940001340BB613B681A69FB6903F007039B0006
:1019500002FA03F3BA691343BB61FB69DA087B68D7
:101960000832B96943F822107B681B68BB61FB69C8
:101970005B00032202FA03F3DB43BA691340BB6145
:101980003B685B6803F00302FB695B0002FA03F348
:10199000BA691343BB617B68BA691A603B685B68CC
:1019A00003F44033002B00F0A2800023FB60574B70
:1019B0005B6C564A43F480435364544B5B6C03F4B2
:1019C0008043FB60FB68524AFB699B08023352F874
:1019D0002330BB61FB6903F003039B000F2202FA73
:1019E00003F3DB43BA691340BB617B68494A934206
:1019F00019D07B68484A934213D07B68474A934288
:101A00000DD07B68464A934207D07B68454A934293
:101A100001D1042308E0072306E0032304E00223A6
:101A200002E0012300E00023FA6902F003029200C1
:101A30009340BA691343BB613549FB699B08023384
:101A4000BA6941F82320384B9B68BB613B69DB4393
:101A5000BA691340BB613B685B6803F48013002BD9
:101A600003D0BA693B691343BB612F4ABB699360DA
:101A70002D4BDB68BB613B69DB43BA691340BB613B
:101A80003B685B6803F40013002B03D0BA693B6921
:101A90001343BB61244ABB69D360234B5B68BB61C2
:101AA0003B69DB43BA691340BB613B685B6803F485
:101AB0000033002B03D0BA693B691343BB611A4A58
:101AC000BB695360184B1B68BB613B69DB43BA6958
:101AD0001340BB613B685B6803F48033002B03D089
:101AE000BA693B691343BB610F4ABB691360FB6969
:101AF0000133FB61FB690F2B7FF6A2AE00BF00BF75
:101B00002437BD465DF8047B704700BF00380240B3
:101B1000003801400000024000040240000802407A
:101B2000000C024000100240003C014080B483B031
:101B300000AF78600B467B8013467B707B78002B70
:101B400003D07A887B689A6103E07B881A047B68FB
:101B50009A6100BF0C37BD465DF8047B7047F0B555
:101B60008FB00AAF78607B68002B01D101230FE1B1
:101B70007B681B68BB607B6893F8BD34DBB2002BCD
:101B800006D17B68002283F8BC24786809F00AFE3D
:101B90007B68032283F8BD24BB68DB6B03F480738E
:101BA000002B02D17B6800221A617B681B681846F3
:101BB00003F0FBF97B681B683B607E686D4606F1AD
:101BC00010040FCC0FC50FCC0FC594E8030085E8B7
:101BD0000300331D0ECB386803F0D2F80346002B08
:101BE00005D07B68022283F8BD240123D0E07B6806
:101BF0001B680021184603F0E9F90023FB734AE053
:101C0000FA7B79681346DB0013449B000B443D3399
:101C100001221A70FA7B79681346DB0013449B009B
:101C20000B443C33FA7B1A70FA7BFB7B98B27968E1
:101C30001346DB0013449B000B44443302461A80D6
:101C4000FA7B79681346DB0013449B000B44403356
:101C500000221A70FA7B79681346DB0013449B005C
:101C60000B44483300221A60FA7B79681346DB0084
:101C700013449B000B444C3300221A60FA7B7968B2
:101C80001346DB0013449B000B44543300221A60BC
:101C9000FB7B0133FB73FA7B7B685B689A42AFD3B3
:101CA0000023FB7344E0FA7B79681346DB0013449E
:101CB0009B000B4403F27D2300221A70FA7B7968A3
:101CC0001346DB0013449B000B4403F51F73FA7BA0
:101CD0001A70FA7B79681346DB0013449B000B44AF
:101CE00003F5207300221A70FA7B79681346DB0033
:101CF00013449B000B4403F5227300221A60FA7B05
:101D000079681346DB0013449B000B4403F52373EF
:101D100000221A60FA7B79681346DB0013449B00AB
:101D20000B4403F5257300221A60FB7B0133FB7320
:101D3000FA7B7B685B689A42B5D37B681B683B6023
:101D40007E686D4606F110040FCC0FC50FCC0FC591
:101D500094E8030085E80300331D0ECB386803F0D8
:101D600081F90346002B05D07B68022283F8BD244D
:101D700001230DE07B68002283F838207B68012274
:101D800083F8BD247B681B68184604F0D0FA002352
:101D900018461437BD46F0BD80B584B000AF7860FA
:101DA0007B681B68FB607B6893F8BC34012B01D116
:101DB000022320E07B68012283F8BC247B689B6AB5
:101DC000012B09D17B689B69012B05D0FB689B6BBC
:101DD00043F48032FB689A637B681B68184603F003
:101DE000D3F87B681B68184604F080FA7B680022F1
:101DF00083F8BC24002318461037BD4680BD90B53B
:101E00008DB000AF78607B681B683B623B6AFB610A
:101E10007B681B68184604F03EFB0346002B40F02D
:101E20008A847B681B68184604F0A2FA0346002BDC
:101E300000F08084FB6903F500639B681B0AC3F311
:101E40000D027B68C3F8FC247B681B68184604F00D
:101E50008FFA034603F00203022B07D17B681B684D
:101E60005A697B681B6802F002025A617B681B6832
:101E7000184604F07DFA034603F01003102B61D1DD
:101E80007B681B689A697B681B6822F010029A6164
:101E90003B6A1B6ABB61BB6903F00F021346DB00A0
:101EA00013449B0003F51E737A68134404337B616B
:101EB000BB695B0C03F00F03022B24D1BA6947F610
:101EC000F0731340002B35D07B691969BB691B097E
:101ED0009BB2C3F30A039BB21A46386A04F0B4F803
:101EE0007B691A69BB691B09C3F30A031A447B693E
:101EF0001A617B691A6ABB691B09C3F30A031A4496
:101F00007B691A6216E0BB695B0C03F00F03062BBA
:101F100010D17B6803F2C44308221946386A04F0E2
:101F200093F87B691A6ABB691B09C3F30A031A4455
:101F30007B691A627B681B689A697B681B6842F040
:101F400010029A617B681B68184604F011FA034678
:101F500003F40023B3F5002F40F0A78000237B6239
:101F60007B681B68184604F016FAB86299E0BB6AF1
:101F700003F00103002B00F08E807B681B687A6AF7
:101F8000D2B21146184604F03AFA38613B6903F0C0
:101F90000103002B0CD07B6A5A01FB69134403F543
:101FA00030631A4601239360796A786800F0C2FEB4
:101FB0003B6903F00803002B0CD07B6A5A01FB69D4
:101FC000134403F530631A4608239360796A7868EE
:101FD00000F098FF3B6903F01003002B08D07B6AE8
:101FE0005A01FB69134403F530631A4610239360CA
:101FF0003B6903F00203002B30D03B6A5B6903F0BE
:102000008003802B09D1FB6903F500635B68FA69E3
:1020100002F5006243F4806353607A6A1346DB0082
:1020200013449B0003F51E737A68134404337B61E9
:102030007B69DB78012B08D17B690022DA707B6A2F
:10204000DBB21946786809F0A9FC7B6A5A01FB6982
:10205000134403F530631A46022393603B6903F08F
:102060002003002B08D07B6A5A01FB69134403F557
:1020700030631A46202393603B6903F40053002B1E
:1020800009D07B6A5A01FB69134403F530631A4691
:102090004FF4005393607B6A01337B62BB6A5B0839
:1020A000BB62BB6A002B7FF462AF7B681B6818467B
:1020B00004F05EF9034603F48023B3F5802F40F06B
:1020C000DB807B681B68184604F07FF9B862002348
:1020D0007B62CDE0BB6A03F00103002B00F0C280FD
:1020E0007B681B687A6AD2B21146184604F0A5F9DB
:1020F00038613B6903F00103002B57D07B6A03F082
:102100000F03012202FA03F3FB60FB6903F500638E
:102110005A6BFB68DB43F96901F5006113404B63BF
:102120007B6A5A01FB69134403F510631A460123C5
:1021300093607B681B69012B32D179687A6A1346F8
:10214000DB0013449B000B444C33196878687A6AAF
:102150001346DB0013449B00034448331B681944B7
:1021600078687A6A1346DB0013449B0003444C33BF
:1021700019607B6A002B13D179687A6A1346DB00F9
:1021800013449B000B4454331B68002B08D17B681D
:1021900018687B6803F2C4431A46012104F0ACF9C5
:1021A0007B6ADBB21946786809F07DFB3B6903F076
:1021B0000803002B08D07B6A5A01FB69134403F51E
:1021C00010631A46082393603B6903F01003002B49
:1021D00008D07B6A5A01FB69134403F510631A4661
:1021E000102393603B6903F04003002B08D07B6A07
:1021F0005A01FB69134403F510631A4640239360A8
:102200003B6903F00203002B23D0796A386A03F09C
:102210008DF87A6A1346DB0013449B0038337A68E2
:10222000134404337B617B69DB78012B08D17B6924
:102230000022DA707B6ADBB21946786809F0C0FBCD
:102240007B6A5A01FB69134403F510631A460223A3
:1022500093603B6903F08003002B03D0796A7868B0
:1022600000F0DBFC7B6A01337B62BB6A5B08BB620C
:10227000BB6A002B7FF42EAF7B681B68184604F006
:1022800077F8034603F00043B3F1004F22D1FB6916
:1022900003F500635B68FA6902F5006223F001034D
:1022A00053607B6893F8F434012B08D17B680022DB
:1022B00083F8F4240021786800F0C2FE02E0786818
:1022C00009F05EFB7B681B685A697B681B6802F03B
:1022D00000425A617B681B68184604F049F80346BF
:1022E00003F40063B3F5006F12D1FB6903F50063DB
:1022F0009B6803F00103012B02D1786809F01AFBF7
:102300007B681B685A697B681B6802F400625A612B
:102310007B681B68184604F02BF8034603F48053CF
:10232000B3F5805F40F0B780FB6903F500635B683D
:10233000FA6902F5006223F0010353607B681B68B1
:102340001021184602F0F2FF0023FB6246E0FB6A10
:102350005A01FB69134403F510631A464FF67F33A5
:102360009360FB6A5A01FB69134403F510631B6811
:10237000FA6A5101FA690A4402F5106223F4001363
:102380001360FB6A5A01FB69134403F530631A4674
:102390004FF67F339360FB6A5A01FB69134403F5E0
:1023A00030631B68FA6A5101FA690A4402F5306227
:1023B00023F400131360FB6A5A01FB69134403F50D
:1023C00030631B68FA6A5101FA690A4402F5306207
:1023D00043F000631360FB6A0133FB627B685B6858
:1023E000FA6A9A42B3D3FB6903F50063DB69FA69C1
:1023F00002F5006243F00113D3617B681B6B002B75
:1024000016D0FB6903F50063D3F88430FA6902F54E
:10241000006243F00B03C2F88430FB6903F50063EC
:102420005B6CFA6902F5006243F00B03536415E03C
:10243000FB6903F500635B69FA6902F5006243F426
:10244000005343F02B035361FB6903F500631B69E1
:10245000FA6902F5006243F00B031361FB6903F5AF
:1024600000631B68FA6902F5006223F4FE631360DF
:102470007B6818687B681B69D9B27B6803F2C44328
:102480001A4604F039F87B681B685A697B681B6838
:1024900002F480525A617B681B68184603F068FF9B
:1024A000034603F40053B3F5005F24D17B681B6837
:1024B000184603F0FEFF7B681B68184602F0B3FF66
:1024C00003461A467B68DA607B681C6801F0E8F90D
:1024D00001467B68DB68DBB21A46204602F0B2FC9C
:1024E000786809F008FA7B681B685A697B681B6882
:1024F00002F400525A617B681B68184603F038FFEB
:10250000034603F00803082B0AD1786809F0E5F9BF
:102510007B681B685A697B681B6802F008025A6175
:102520007B681B68184603F023FF034603F0800313
:10253000802B22D13B6A9B6923F080023B6A9A611F
:1025400001237B6214E079687A6A1346DB00134446
:102550009B000B4403F27F231B78012B05D17B6A80
:10256000DBB21946786800F027FB7B6A01337B6297
:102570007B685B687A6A9A42E5D37B681B68184679
:1025800003F0F6FE034603F48013B3F5801F3BD13E
:1025900001237B622BE07B6A5A01FB69134403F53C
:1025A00010631B68BB6179687A6A1346DB001344C9
:1025B0009B000B4440331B78012B15D1BB69002BCA
:1025C00012DA79687A6A1346DB0013449B000B44E5
:1025D0003F3301221A707B6ADBB263F07F03DBB208
:1025E0001946786800F0E8FA7B6A01337B627B6801
:1025F0005B687A6A9A42CED37B681B685A697B68AB
:102600001B6802F480125A617B681B68184603F04D
:10261000AFFE034603F40013B3F5001F55D10123A9
:102620007B6245E07B6A5A01FB69134403F5306322
:102630001B68BB6179687A6A1346DB0013449B0010
:102640000B4403F520731B78012B2ED1BB69002BA3
:102650002BDABB6903F480327B68D3F8FC3403F0D7
:1026600001039A4221D179687A6A1346DB00134448
:102670009B000B4403F27F2301221A703B6A9B6983
:1026800043F080023B6A9A613B6A5B6903F0800316
:10269000002B0AD1FB6903F500635B68FA6902F558
:1026A000006243F40073536007E07B6A01337B628E
:1026B0007B685B687A6A9A42B4D37B681B685A6904
:1026C0007B681B6802F400125A617B681B6818461D
:1026D00003F04EFE034603F08043B3F1804F0AD16E
:1026E000786809F07FF97B681B685A697B681B680A
:1026F00002F080425A617B681B68184603F038FE7E
:10270000034603F00403042B15D17B681B685B6848
:10271000BB61BB6903F00403002B02D0786809F0A9
:102720006FF97B681B6859687B681B68BA690A4344
:102730005A6000E000BF3437BD4690BD80B582B01E
:1027400000AF78600B46FB707B6893F8BC34012BBC
:1027500001D1022313E07B68012283F8BC247B684B
:10276000FA7883F838207B681B68FA781146184697
:1027700003F096FD7B68002283F8BC2400231846F2
:102780000837BD4680BD80B584B000AF786008468C
:1027900011461A460346FB700B463B801346BB703E
:1027A0000023FB7297F90330002B0FDAFB7803F05C
:1027B0000F021346DB0013449B0038337A6813443E
:1027C0000433FB60FB6801225A700FE0FB7803F0D2
:1027D0000F021346DB0013449B0003F51E737A6857
:1027E00013440433FB60FB6800225A70FB7803F04B
:1027F0000F03DAB2FB681A703A88FB68DA60FB688C
:10280000BA781A71FB685B78002B04D0FB681B78E0
:102810009AB2FB681A81BB78022B02D1FB680022B6
:102820005A717B6893F8BC34012B01D102230EE06E
:102830007B68012283F8BC247B681B68F968184612
:1028400002F016FE7B68002283F8BC24FB7A18464F
:102850001037BD4680BD80B584B000AF78600B46B0
:10286000FB7097F90330002B0FDAFB7803F00F02AF
:102870001346DB0013449B0038337A681344043357
:10288000FB60FB6801225A700FE0FB7803F00F0237
:102890001346DB0013449B0003F51E737A68134450
:1028A0000433FB60FB6800225A70FB7803F00F03CF
:1028B000DAB2FB681A707B6893F8BC34012B01D143
:1028C00002230EE07B68012283F8BC247B681B682E
:1028D000F968184602F054FE7B68002283F8BC2495
:1028E000002318461037BD4680BD80B586B000AFC6
:1028F000F8607A603B600B46FB72FB7A03F00F02D4
:102900001346DB0013449B0003F51E73FA6813445F
:1029100004337B617B697A681A617B693A689A61E2
:102920007B6900221A627B6900225A70FB7A03F0ED
:102930000F03DAB27B691A70FB681B69012B02D1A5
:102940007A687B695A61FB7A03F00F03002B09D187
:10295000FB681868FB681B69DBB21A46796903F0EB
:1029600033F908E0FB681868FB681B69DBB21A469C
:10297000796902F0E1FE002318461837BD4680BD94
:1029800080B483B000AF78600B46FB70FB7803F037
:102990000F0279681346DB0013449B000B4403F5D8
:1029A00027731B6818460C37BD465DF8047B7047DB
:1029B00080B586B000AFF8607A603B600B46FB7272
:1029C000FB7A03F00F021346DB0013449B003833FD
:1029D000FA68134404337B617B697A681A617B6906
:1029E0003A689A617B6900221A627B6901225A70F7
:1029F000FB7A03F00F03DAB27B691A70FB681B697C
:102A0000012B02D17A687B695A61FB7A03F00F03CC
:102A1000002B09D1FB681868FB681B69DBB21A46FA
:102A2000796903F0D1F808E0FB681868FB681B6956
:102A3000DBB21A46796902F07FFE00231846183788
:102A4000BD4680BD80B584B000AF78600B46FB709A
:102A5000FB7803F00F027B685B689A4201D901237F
:102A600050E097F90330002B0FDAFB7803F00F02E8
:102A70001346DB0013449B0038337A681344043355
:102A8000FB60FB6801225A700DE0FA781346DB0008
:102A900013449B0003F51E737A6813440433FB60F0
:102AA000FB6800225A70FB6801229A70FB7803F0E1
:102AB0000F03DAB2FB681A707B6893F8BC34012B01
:102AC00001D102231EE07B68012283F8BC247B68CD
:102AD0001B68F968184603F00FFBFB7803F00F033F
:102AE000002B0AD17B6818687B681B69D9B27B68A8
:102AF00003F2C4431A4603F0FFFC7B68002283F80C
:102B0000BC24002318461037BD4680BD80B584B074
:102B100000AF78600B46FB70FB7803F00F027B6818
:102B20005B689A4201D9012342E097F90330002BF8
:102B30000FDAFB7803F00F021346DB0013449B000F
:102B400038337A6813440433FB60FB6801225A70FF
:102B50000FE0FB7803F00F021346DB0013449B00E9
:102B600003F51E737A6813440433FB60FB6800228C
:102B70005A70FB6800229A70FB7803F00F03DAB2F8
:102B8000FB681A707B6893F8BC34012B01D10223D7
:102B90000EE07B68012283F8BC247B681B68F9681F
:102BA000184603F017FB7B68002283F8BC2400233F
:102BB00018461037BD4680BD80B584B000AF786040
:102BC0000B46FB7097F90330002B0CDAFB7803F00F
:102BD0000F021346DB0013449B0038337A6813441A
:102BE0000433FB600CE0FB7803F00F021346DB00BC
:102BF00013449B0003F51E737A6813440433FB608F
:102C00007B681B68F968184603F036F90346FB72C7
:102C1000FB7A18461037BD4680BD80B58AB002AF3A
:102C2000786039607B681B687B617B693B613A68CF
:102C30001346DB0013449B0038337A681344043393
:102C4000FB60FB681A6AFB689B699A4201D9012301
:102C50006CE0FB689A69FB681B6AD31AFB61FB682E
:102C6000DB68FA699A4202D9FB68DB68FB61FB69A1
:102C700003339B08BB612BE0FB689A69FB681B6A06
:102C8000D31AFB61FB68DB68FA699A4202D9FB68D8
:102C9000DB68FB61FB6903339B08BB61FB68196957
:102CA0003B68DAB2FB6998B27B681B69DBB20093C0
:102CB0000346786903F08AF9FB681A69FB691A44CC
:102CC000FB681A61FB681A6AFB691A44FB681A629E
:102CD0003B685A013B69134403F510639B699BB23F
:102CE000BA699A4209D8FB681A6AFB689B699A42DA
:102CF00003D2FB689B69002BBED1FB689A69FB6815
:102D00001B6A9A4211D83B6803F00F03012202FAB2
:102D100003F3BB603B6903F500635A6BBB68DB439D
:102D2000396901F5006113404B63002318462037D1
:102D3000BD4680BD80B588B000AF786039607B68E3
:102D40001B68FB61FB69BB61FB693C3304331B6897
:102D50007B613B685A01BB69134403F530639B6890
:102D60003B617B681B69012B7BD13B6903F0080346
:102D7000002B15D07B69614A934240F2B9803B69D0
:102D800003F40043002B00F0B3803B685A01BB6999
:102D9000134403F530631A464FF400439360A7E0F1
:102DA0003B6903F02003002B09D03B685A01BB6943
:102DB000134403F530631A462023936098E03B697F
:102DC00003F02803002B40F093807B694B4A934229
:102DD0000FD93B6903F40043002B0AD03B685A012A
:102DE000BB69134403F530631A464FF40043936004
:102DF0007EE03A681346DB0013449B0003F51E7324
:102E00007A6813440433FB60FB68DA693B68590154
:102E1000BB690B4403F530631B69C3F31203D21A79
:102E2000FB681A623B68002B14D1FB689B69002B7E
:102E300009D17B6818687B6803F2C4431A460121F4
:102E400003F05AFB06E0FB681A69FB681B6A1A4428
:102E5000FB681A613B68DBB21946786808F008FD28
:102E600046E07B69264A934224D13B6903F4004340
:102E7000002B0AD03B685A01BB69134403F5306349
:102E80001A464FF40043936032E03B6903F020039D
:102E9000002B08D03B685A01BB69134403F530632B
:102EA0001A46202393603B68DBB21946786808F025
:102EB000DFFC1DE03B68002B14D179683A681346AB
:102EC000DB0013449B000B4403F525731B68002BA8
:102ED00008D17B6818687B6803F2C4431A46002156
:102EE00003F00AFB3B68DBB21946786808F0C0FCC7
:102EF000002318462037BD4680BD00BF0A30544F1E
:102F00000A31544F80B586B000AF786039607B6875
:102F10001B687B617B693B617B693C3304331B68C5
:102F2000FB603B685A013B69134403F530639B68BF
:102F3000BB60FB68154A93420ED9BB6803F400439B
:102F4000002B09D03B685A013B69134403F53063F9
:102F50001A464FF400439360786808F077FCFB68EA
:102F60000A4A93420CD97B681B69012B08D17B6804
:102F700018687B6803F2C4431A46012103F0BCFAC7
:102F8000002318461837BD4680BD00BF0A30544F95
:102F900080B485B000AF78600B46FB7013463B8071
:102FA0007B681B685B6ABB60FB78002B07D13B88A2
:102FB00019047B681B68BA680A439A6228E07B6838
:102FC0001B689B6A1B0CBA681344BB600023FB732D
:102FD0000DE07B681A68FB7B40339B0013445B6801
:102FE0001B0CBA681344BB60FB7B0133FB73FA7B99
:102FF000FB78013B9A42ECD33B8818047B68196844
:10300000FB78013BBA68024340339B000B445A6093
:10301000002318461437BD465DF8047B704780B422
:1030200083B000AF78600B467B807B681B687A8832
:103030005A62002318460C37BD465DF8047B704782
:1030400080B483B000AF78600B46FB7000BF0C37D4
:10305000BD465DF8047B704780B586B000AF7860F0
:103060007B68002B01D1012367E27B681B6803F0BA
:103070000103002B75D0884B9B6803F00C03042BD5
:103080000CD0854B9B6803F00C03082B12D1824BAC
:103090005B6803F48003B3F5800F0BD17E4B1B6894
:1030A00003F40033002B5BD07B685B68002B57D1A7
:1030B000012342E27B685B68B3F5803F06D1764B23
:1030C0001B68754A43F4803313601DE07B685B68BE
:1030D000B3F5A02F0CD1704B1B686F4A43F48023CB
:1030E00013606D4B1B686C4A43F4803313600BE034
:1030F000694B1B68684A23F480331360664B1B6876
:10310000654A23F4802313607B685B68002B13D02F
:10311000FEF776FA386108E0FEF772FA02463B697C
:10312000D31A642B01D9032307E25B4B1B6803F41A
:103130000033002BF0D014E0FEF762FA386108E0AB
:10314000FEF75EFA02463B69D31A642B01D90323CA
:10315000F3E1514B1B6803F40033002BF0D100E086
:1031600000BF7B681B6803F00203002B63D04A4B4F
:103170009B6803F00C03002B0BD0474B9B6803F0BC
:103180000C03082B1CD1444B5B6803F48003002B19
:1031900016D1414B1B6803F00203002B05D07B685E
:1031A000DB68012B01D00123C7E13B4B1B6823F0F7
:1031B000F8027B681B69DB00374913430B603AE078
:1031C0007B68DB68002B20D0344B01221A60FEF7AD
:1031D00017FA386108E0FEF713FA02463B69D31A82
:1031E000022B01D90323A8E12B4B1B6803F0020338
:1031F000002BF0D0284B1B6823F0F8027B681B697A
:10320000DB00254913430B6015E0244B00221A60B4
:10321000FEF7F6F9386108E0FEF7F2F902463B697D
:10322000D31A022B01D9032387E11B4B1B6803F040
:103230000203002BF0D17B681B6803F00803002B0E
:1032400036D07B685B69002B16D0154B01221A60C3
:10325000FEF7D6F9386108E0FEF7D2F902463B697D
:10326000D31A022B01D9032367E10B4B5B6F03F0E9
:103270000203002BF0D01BE0094B00221A60FEF77E
:10328000BFF938610EE0FEF7BBF902463B69D31A7D
:10329000022B07D9032350E10038024000004742C7
:1032A000800E4742884B5B6F03F00203002BEAD18C
:1032B0007B681B6803F00403002B00F09780002359
:1032C000FB75814B1B6C03F08053002B0FD1002347
:1032D000BB607D4B1B6C7C4A43F0805313647A4B7C
:1032E0001B6C03F08053BB60BB680123FB75774BFD
:1032F0001B6803F48073002B18D1744B1B68734A4E
:1033000043F480731360FEF77BF9386108E0FEF741
:1033100077F902463B69D31A022B01D903230CE14A
:103320006A4B1B6803F48073002BF0D07B689B68AA
:10333000012B06D1644B1B6F634A43F001031367F3
:103340001CE07B689B68052B0CD15F4B1B6F5E4AB2
:1033500043F0040313675C4B1B6F5B4A43F00103AC
:1033600013670BE0584B1B6F574A23F00103136799
:10337000554B1B6F544A23F0040313677B689B680B
:10338000002B15D0FEF73CF938610AE0FEF738F95A
:1033900002463B69D31A41F28832934201D9032392
:1033A000CBE0494B1B6F03F00203002BEED014E07F
:1033B000FEF726F938610AE0FEF722F902463B697A
:1033C000D31A41F28832934201D90323B5E03E4B30
:1033D0001B6F03F00203002BEED1FB7D012B05D107
:1033E000394B1B6C384A23F0805313647B689B690C
:1033F000002B00F0A180344B9B6803F00C03082BDA
:103400005CD07B689B69022B41D1314B00221A6052
:10341000FEF7F6F8386108E0FEF7F2F802463B697D
:10342000D31A022B01D9032387E0274B1B6803F033
:103430000073002BF0D17B68DA697B681B6A1A4342
:103440007B685B6A9B011A437B689B6A5B08013B54
:103450001B041A437B68DB6A1B061B4913434B6042
:103460001B4B01221A60FEF7CBF8386108E0FEF72B
:10347000C7F802463B69D31A022B01D903235CE04B
:10348000114B1B6803F00073002BF0D054E0104B7D
:1034900000221A60FEF7B4F8386108E0FEF7B0F8D1
:1034A00002463B69D31A022B01D9032345E0064BA0
:1034B0001B6803F00073002BF0D13DE07B689B6933
:1034C000012B07D1012338E0003802400070004092
:1034D000600047421B4B5B68FB607B689B69012B6C
:1034E00028D0FB6803F480027B68DB699A4221D113
:1034F000FB6803F03F027B681B6A9A421AD1FA68A4
:1035000047F6C07313407A68526A9201934211D110
:10351000FB6803F440327B689B6A5B08013B1B0439
:103520009A4207D1FB6803F070627B68DB6A1B0676
:103530009A4201D0012300E0002318461837BD4607
:1035400080BD00BF0038024080B584B000AF786015
:1035500039607B68002B01D10123CCE0684B1B68EC
:1035600003F007033A689A420CD9654B3A68D2B225
:103570001A70634B1B6803F007033A689A4201D044
:103580000123B8E07B681B6803F00203002B20D006
:103590007B681B6803F00403002B05D0594B9B6824
:1035A000584A43F4E05393607B681B6803F00803B8
:1035B000002B05D0534B9B68524A43F46043936001
:1035C000504B9B6823F0F0027B689B684D49134386
:1035D0008B607B681B6803F00103002B44D07B6881
:1035E0005B68012B07D1474B1B6803F40033002BAA
:1035F00019D101237FE07B685B68022B03D07B68D5
:103600005B68032B07D13F4B1B6803F00073002B53
:1036100009D101236FE03B4B1B6803F00203002B31
:1036200001D1012367E0374B9B6823F003027B68DD
:103630005B68344913438B60FDF7E2FFF8600AE0F2
:10364000FDF7DEFF0246FB68D31A41F2883293424F
:1036500001D903234FE02B4B9B6803F00C027B68DE
:103660005B689B009A42EBD1254B1B6803F0070374
:103670003A689A420CD2224B3A68D2B21A70204B66
:103680001B6803F007033A689A4201D0012332E035
:103690007B681B6803F00403002B08D0194B9B6860
:1036A00023F4E0527B68DB68164913438B607B6828
:1036B0001B6803F00803002B09D0124B9B6823F40E
:1036C00060427B681B69DB000E4913438B6000F08E
:1036D00021F802460B4B9B681B0903F00F030A49B4
:1036E000CB5C22FA03F3094A1360094B1B681846A6
:1036F000FDF758FE002318461037BD4680BD00BFB9
:10370000003C024000380240F0C1000814000020D4
:10371000180000202DE9B04F90B000AF00237B636C
:103720000023FB6300233B630023BB63594B9B686F
:1037300003F00C03082B0DD0082B00F2A180002B06
:1037400002D0042B03D09BE0534BBB639BE0534B55
:10375000BB6398E04F4B5B6803F03F037B634D4BCB
:103760005B6803F48003002B28D04A4B5B689B09FD
:1037700000223B627A623B6AC3F308000021474B98
:1037800003FB01F2002300FB03F31344434AA0FBB5
:103790000212FA620A46BA62FA6A1344FB627B6B4F
:1037A0000022BB61FA61D7E90623D7E90A01FCF7D9
:1037B00017FD02460B461346FB6353E0354B5B682F
:1037C0009B0900223B617A613B69C3F3080A4FF011
:1037D000000B52465B464FF000004FF000015901CC
:1037E00041EAD261500102460B46B2EB0A0863EB94
:1037F0000B094FF000024FF000034FEA891343EA30
:1038000098634FEA8812B2EB080463EB09054FF0A6
:1038100000024FF00003EB0043EA5473E200144649
:103820001D4614EB0A033B6045EB0B037B604FF036
:1038300000024FF00003D7E9004529468B022146DC
:1038400043EA915321468A02104619467B6B0022B7
:10385000BB60FA60D7E90223FCF7C2FC02460B46C4
:103860001346FB630B4B5B681B0C03F00303013334
:103870005B003B63FA6B3B6BB2FBF3F3BB6302E0B1
:10388000054BBB6300BFBB6B18464037BD46BDE868
:10389000B08F00BF003802400024F40040787D0162
:1038A00080B400AF034B1B681846BD465DF8047B2F
:1038B000704700BF1400002080B500AFFFF7F0FF95
:1038C0000246054B9B689B0A03F007030349CB5C48
:1038D00022FA03F3184680BD0038024000C20008F7
:1038E00080B500AFFFF7DCFF0246054B9B685B0B22
:1038F00003F007030349CB5C22FA03F3184680BDAB
:103900000038024000C2000880B483B000AF786085
:1039100039607B680F221A60124B9B6803F0030228
:103920007B685A600F4B9B6803F0F0027B689A60DB
:103930000C4B9B6803F4E0527B68DA60094B9B6890
:10394000DB0803F4E0527B681A61074B1B6803F045
:1039500007023B681A6000BF0C37BD465DF8047B68
:10396000704700BF00380240003C024080B582B082
:1039700000AF78607B68002B01D101237BE07B687E
:103980005B6A002B08D17B685B68B3F5827F09D046
:103990007B680022DA6105E07B6800221A617B689F
:1039A00000225A617B6800229A627B6893F851304A
:1039B000DBB2002B06D17B68002283F850207868A8
:1039C000FDF73CFB7B68022283F851207B681B6873
:1039D0001A687B681B6822F040021A607B685B688B
:1039E00003F482727B689B6803F404431A437B6888
:1039F000DB6803F400631A437B681B6903F002036E
:103A00001A437B685B6903F001031A437B689B6977
:103A100003F400731A437B68DB6903F038031A432D
:103A20007B681B6A03F0800342EA03017B689B6AA0
:103A300003F400527B681B680A431A607B689B6929
:103A40001B0C03F004017B685B6A03F010027B68C7
:103A50001B680A435A607B681B68DA697B681B68CD
:103A600022F40062DA617B6800225A657B680122D9
:103A700083F85120002318460837BD4680BD80B525
:103A800088B000AFF860B9603B601346FB8000234C
:103A9000FB77FB6893F85030012B01D1022326E11C
:103AA000FB68012283F85020FDF7AAFDB861FB886E
:103AB000FB82FB6893F85130DBB2012B02D002236A
:103AC000FB770BE1BB68002B02D0FB88002B02D1F7
:103AD0000123FB7702E1FB68032283F85120FB6896
:103AE00000225A65FB68BA681A63FB68FA889A86EE
:103AF000FB68FA88DA86FB6800229A63FB6800227A
:103B00009A87FB680022DA87FB6800225A64FB6808
:103B100000221A64FB689B68B3F5004F0FD1FB6865
:103B20001B681A68FB681B6822F040021A60FB6879
:103B30001B681A68FB681B6842F480421A60FB68C5
:103B40001B681B6803F04003402B07D0FB681B6811
:103B50001A68FB681B6842F040021A60FB68DB6869
:103B6000B3F5006F4BD1FB685B68002B02D0FB8A7A
:103B7000012B3ED1FB681B6B1A88FB681B68DA605F
:103B8000FB681B6B9A1CFB681A63FB68DB8E9BB29D
:103B9000013B9AB2FB68DA862BE0FB681B689B68E6
:103BA00003F00203022B12D1FB681B6B1A88FB681F
:103BB0001B68DA60FB681B6B9A1CFB681A63FB6866
:103BC000DB8E9BB2013B9AB2FB68DA8611E0FDF70F
:103BD00017FD0246BB69D31A3A689A4203D83B687C
:103BE000B3F1FF3F02D13B68002B02D10323FB77E7
:103BF00074E0FB68DB8E9BB2002BCED14CE0FB68FF
:103C00005B68002B02D0FB8A012B40D1FB681A6B4A
:103C1000FB681B680C3312781A70FB681B6B5A1C0C
:103C2000FB681A63FB68DB8E9BB2013B9AB2FB68B0
:103C3000DA862CE0FB681B689B6803F00203022B0A
:103C400013D1FB681A6BFB681B680C3312781A706F
:103C5000FB681B6B5A1CFB681A63FB68DB8E9BB20C
:103C6000013B9AB2FB68DA8611E0FDF7C9FC024617
:103C7000BB69D31A3A689A4203D83B68B3F1FF3F55
:103C800002D13B68002B02D10323FB7726E0FB68BF
:103C9000DB8E9BB2002BCDD1BA693968F86800F091
:103CA000B3F80346002B02D0FB6820225A65FB685C
:103CB0009B68002B0AD100233B61FB681B68DB6813
:103CC0003B61FB681B689B683B613B69FB685B6D04
:103CD000002B02D00123FB7700E000BFFB6801222C
:103CE00083F85120FB68002283F85020FB7F1846A0
:103CF0002037BD4680BD000080B588B000AFF860B9
:103D0000B9603B601346FB71FDF77AFC0246BB6A63
:103D10009B1A3A681344FB61FDF772FCB861394B9A
:103D20001B685B011B0DFA6902FB03F37B6154E026
:103D30003B68B3F1FF3F50D0FDF762FC0246BB6920
:103D4000D31AFA699A4202D9FB69002B3DD1FB686C
:103D50001B685A68FB681B6822F0E0025A60FB6827
:103D60005B68B3F5827F11D1FB689B68B3F5004FA8
:103D700004D0FB689B68B3F5806F07D1FB681B68B4
:103D80001A68FB681B6822F040021A60FB689B6A95
:103D9000B3F5005F0FD1FB681B681A68FB681B68EE
:103DA00022F400521A60FB681B681A68FB681B68E3
:103DB00042F400521A60FB68012283F85120FB682C
:103DC000002283F85020032317E07B69002B01D1E8
:103DD0000023FB617B69013B7B61FB681B689A6880
:103DE000BB681340BA689A420CBF01230023DBB2C0
:103DF0001A46FB799A429BD1002318462037BD46CC
:103E000080BD00BF1400002080B588B002AFF8600C
:103E1000B9607A601B4B1B681B4AA2FB03235B0D36
:103E20004FF47A7202FB03F37B61FB685B68B3F5C6
:103E3000827F12D17B680093BB6800228021F868E2
:103E4000FFF75AFF0346002B16D0FB685B6D43F06B
:103E50002002FB685A6503230FE07B69002B0AD020
:103E60007B69013B7B61FB681B689B6803F08003F7
:103E7000802BF2D000E000BF002318461837BD4663
:103E800080BD00BF14000020819F5E1680B582B007
:103E900000AF78607B68002B01D1012341E07B6893
:103EA00093F83D30DBB2002B06D17B68002283F80B
:103EB0003C207868FDF7E6F97B68022283F83D2014
:103EC0007B681A687B6804331946104600F0E2FAF2
:103ED0007B68012283F846207B68012283F83E201C
:103EE0007B68012283F83F207B68012283F8402011
:103EF0007B68012283F841207B68012283F84220FD
:103F00007B68012283F843207B68012283F84420E8
:103F10007B68012283F845207B68012283F83D20DD
:103F2000002318460837BD4680BD000080B485B028
:103F300000AF78607B6893F83D30DBB2012B01D095
:103F400001233CE07B68022283F83D207B681B68EC
:103F50001E4A934218D07B681B68B3F1804F13D080
:103F60007B681B681A4A93420ED07B681B68194A0B
:103F7000934209D07B681B68174A934204D07B6840
:103F80001B68164A934211D17B681B689B6803F03B
:103F90000703FB60FB68062B10D07B681B681A6860
:103FA0007B681B6842F001021A6007E07B681B68AF
:103FB0001A687B681B6842F001021A6000231846E9
:103FC0001437BD465DF8047B704700BF0000014018
:103FD0000004004000080040000C00400040014088
:103FE00080B485B000AF78607B6893F83D30DBB279
:103FF000012B01D0012344E07B68022283F83D209D
:104000007B681B68DA687B681B6842F00102DA6033
:104010007B681B681E4A934218D07B681B68B3F10B
:10402000804F13D07B681B681A4A93420ED07B687E
:104030001B68194A934209D07B681B68174A934250
:1040400004D07B681B68164A934211D17B681B68B9
:104050009B6803F00703FB60FB68062B10D07B68AE
:104060001B681A687B681B6842F001021A6007E04F
:104070007B681B681A687B681B6842F001021A6043
:10408000002318461437BD465DF8047B704700BF17
:10409000000001400004004000080040000C004007
:1040A0000040014080B582B000AF78607B681B683B
:1040B0001B6903F00203022B22D17B681B68DB68BB
:1040C00003F00203022B1BD17B681B686FF0020216
:1040D0001A617B6801221A777B681B689B6903F071
:1040E0000303002B03D0786800F0B5F905E0786889
:1040F00000F0A7F9786800F0B8F97B6800221A7719
:104100007B681B681B6903F00403042B22D17B68C6
:104110001B68DB6803F00403042B1BD17B681B685E
:104120006FF004021A617B6802221A777B681B68B1
:104130009B6903F44073002B03D0786800F08BF97F
:1041400005E0786800F07DF9786800F08EF97B680A
:1041500000221A777B681B681B6903F00803082B91
:1041600022D17B681B68DB6803F00803082B1BD196
:104170007B681B686FF008021A617B6804221A775B
:104180007B681B68DB6903F00303002B03D07868AE
:1041900000F061F905E0786800F053F9786800F004
:1041A00064F97B6800221A777B681B681B6903F03F
:1041B0001003102B22D17B681B68DB6803F010030F
:1041C000102B1BD17B681B686FF010021A617B6893
:1041D00008221A777B681B68DB6903F44073002BA5
:1041E00003D0786800F037F905E0786800F029F925
:1041F000786800F03AF97B6800221A777B681B68C0
:104200001B6903F00103012B0ED17B681B68DB687F
:1042100003F00103012B07D17B681B686FF00102DB
:104220001A617868FCF7C6FE7B681B681B6903F09F
:104230008003802B0ED17B681B68DB6803F0800352
:10424000802B07D17B681B686FF080021A61786849
:1042500000F0B2FA7B681B681B6903F04003402B37
:104260000ED17B681B68DB6803F04003402B07D14D
:104270007B681B686FF040021A61786800F0FFF8F5
:104280007B681B681B6903F02003202B0ED17B6821
:104290001B68DB6803F02003202B07D17B681B68B9
:1042A0006FF020021A61786800F07CFA00BF0837CE
:1042B000BD4680BD80B584B000AF78603960002312
:1042C000FB737B6893F83C30012B01D10223B4E0EF
:1042D0007B68012283F83C207B68022283F83D2022
:1042E0007B681B689B68BB60BB6823F07703BB607F
:1042F000BB6823F47F43BB607B681B68BA689A6025
:104300003B681B68B3F5005F3ED0B3F5005F00F279
:104310008780B3F5805F00F08680B3F5805F7FD83B
:10432000702B1AD0702B7BD8602B50D0602B77D895
:10433000502B3CD0502B73D8402B58D0402B6FD8EB
:10434000302B64D0302B6BD8202B60D0202B67D83B
:10435000002B5CD0102B5AD062E07B6818683B6859
:1043600099683B685A683B68DB6800F08DF97B68A8
:104370001B689B68BB60BB6843F07703BB607B68CE
:104380001B68BA689A604FE07B6818683B68996858
:104390003B685A683B68DB6800F076F97B681B680D
:1043A0009A687B681B6842F480429A603CE07B68B4
:1043B00018683B6859683B68DB681A4600F0EAF801
:1043C0007B681B685021184600F043F92CE07B689D
:1043D00018683B6859683B68DB681A4600F009F9C1
:1043E0007B681B686021184600F033F91CE07B688D
:1043F00018683B6859683B68DB681A4600F0CAF8E1
:104400007B681B684021184600F023F90CE07B68AC
:104410001A683B681B681946104600F01AF903E059
:104420000123FB7300E000BF7B68012283F83D207D
:104430007B68002283F83C20FB7B18461037BD4682
:1044400080BD80B483B000AF786000BF0C37BD463C
:104450005DF8047B704780B483B000AF786000BF24
:104460000C37BD465DF8047B704780B483B000AF65
:10447000786000BF0C37BD465DF8047B704780B4A0
:1044800083B000AF786000BF0C37BD465DF8047B99
:104490007047000080B485B000AF786039607B68F9
:1044A0001B68FB607B68344A93420FD07B68B3F192
:1044B000804F0BD07B68314A934207D07B68304AEB
:1044C000934203D07B682F4A934208D1FB6823F0C4
:1044D0007003FB603B685B68FA681343FB607B68B2
:1044E000254A93421BD07B68B3F1804F17D07B687D
:1044F000224A934213D07B68214A93420FD07B68B3
:10450000204A93420BD07B681F4A934207D07B68B6
:104510001E4A934203D07B681D4A934208D1FB6830
:1045200023F44073FB603B68DB68FA681343FB606D
:10453000FB6823F080023B685B691343FB607B6888
:10454000FA681A603B689A687B68DA623B681A68A6
:104550007B689A627B68084A934203D13B681A6978
:104560007B681A637B6801225A6100BF1437BD461D
:104570005DF8047B704700BF00000140000400406C
:1045800000080040000C0040004001400044014091
:104590000048014080B487B000AFF860B9607A602D
:1045A000FB681B6A7B61FB681B6A23F00102FB68E6
:1045B0001A62FB689B693B613B6923F0F0033B6136
:1045C0007B681B013A6913433B617B6923F00A0353
:1045D0007B617A69BB6813437B61FB683A699A61C6
:1045E000FB687A691A6200BF1C37BD465DF8047B20
:1045F000704780B487B000AFF860B9607A60FB683C
:104600001B6A23F01002FB681A62FB689B697B61DE
:10461000FB681B6A3B617B6923F470437B617B68A9
:104620001B037A6913437B613B6923F0A0033B6161
:10463000BB681B013A6913433B61FB687A699A6165
:10464000FB683A691A6200BF1C37BD465DF8047BFF
:10465000704780B485B000AF786039607B689B6834
:10466000FB60FB6823F07003FB603A68FB68134350
:1046700043F00703FB607B68FA689A6000BF143759
:10468000BD465DF8047B704780B487B000AFF8602A
:10469000B9607A603B60FB689B687B617B6923F44F
:1046A0007F437B613B681A027B681A43BB681343F4
:1046B0007A6913437B61FB687A699A6000BF1C3793
:1046C000BD465DF8047B704780B485B000AF78606C
:1046D00039607B6893F83C30012B01D1022350E014
:1046E0007B68012283F83C207B68022283F83D200E
:1046F0007B681B685B68FB607B681B689B68BB60B2
:10470000FB6823F07003FB603B681B68FA68134387
:10471000FB607B681B68FA685A607B681B681C4AF0
:10472000934218D07B681B68B3F1804F13D07B682D
:104730001B68184A93420ED07B681B68164A934246
:1047400009D07B681B68154A934204D07B681B68BC
:10475000134A93420CD1BB6823F08003BB603B68D3
:104760005B68BA681343BB607B681B68BA689A6071
:104770007B68012283F83D207B68002283F83C207F
:10478000002318461437BD465DF8047B704700BF10
:10479000000001400004004000080040000C004000
:1047A0000040014080B483B000AF786000BF0C3798
:1047B000BD465DF8047B704780B483B000AF78607D
:1047C00000BF0C37BD465DF8047B704780B582B0F2
:1047D00000AF78607B68002B01D1012333E07B6858
:1047E00093F83D30DBB2002B06D17B68002283F8C2
:1047F0003C207868FCF76EFD7B68022283F83D2040
:10480000786800F025F87B681B681A697B681B686C
:1048100022F480421A617B681B685A697B681B68B6
:1048200022F02A025A617B681B68DA687B681B6881
:1048300042F40052DA607B6800221A647B6801222D
:1048400083F83D20002318460837BD4680BD000090
:104850002DE9B04FC6B000AFC7F80C010023C7F870
:104860001431D7F80C311B68D968D7F80C311A68A5
:1048700021F00C03D360D7F80C311B681B69C7F813
:104880001431D7F8143123F47C53C7F81431D7F816
:104890000C319A69D7F80C31DB691A43D7F80C311F
:1048A0001B6A1A43D7F80C31DB681A43D7F8143166
:1048B000134343F40063C7F81431D7F80C311A6876
:1048C000D7F814311361D7F80C311B68DB68C7F8CF
:1048D0001431D7F8143123F4164323F00C03C7F82E
:1048E0001431D7F80C319A68D7F80C311B691A4388
:1048F000D7F80C315B691A43D7F81431134343F4EA
:104900000043C7F81431D7F80C311A68D7F81431BE
:10491000D360D7F80C311B685969D7F80C311A6885
:1049200021F440735361D7F80C311A688B4B9A42CB
:1049300006D0D7F80C311A68894B9A4240F014819E
:10494000FEF7CEFFC7F81001D7F810310022C7F8E4
:104950000031C7F80421D7E9404522462B4691187B
:1049600039675B417B67D7E91C23214612EB0108BD
:10497000294643EB01094FF000024FF000034FEAD4
:10498000C90343EA58734FEAC80290469946234642
:1049900018EB0303C7F8F8302B4649EB0303C7F8BD
:1049A000FC30D7F80C315B680022C7F8F030C7F84C
:1049B000F420D7E93C120B46DB18BB66134642EBEA
:1049C0000303FB66D7E91A23D7E93E01FBF708FC8E
:1049D00002460B46634BA3FB02235B091C01D7F87D
:1049E00010310022C7F8E830C7F8EC20D7E93A893F
:1049F00042464B46911839665B417B66D7E91823DE
:104A000041465118B96549464B41FB654FF00002DC
:104A10004FF00003D7E916AB5946CB00514643EAA5
:104A200051735146CA0010461946034642469B1828
:104A3000C7F8E0304B460A4642EB0303C7F8E430C0
:104A4000D7F80C315B680022C7F8D830C7F8DC20F3
:104A5000D7E936120B46DB183B65134642EB0303DE
:104A60007B65D7E91423D7E93801FBF7B9FB024688
:104A70000B4611463B4BA3FB01235B09642202FB5F
:104A800003F3CB1ADB0003F13202364BA3FB022304
:104A90005B095B0003F4F8731C44D7F81031002263
:104AA000C7F8D030C7F8D420D7E9348942464B46FE
:104AB0009118B9645B41FB64D7E912234146511850
:104AC000396449464B417B644FF000024FF00003CC
:104AD000D7E910AB5946CB00514643EA51735146D2
:104AE000CA0010461946034642469B18C7F8C8300C
:104AF0004B460A4642EB0303C7F8CC30D7F80C31DB
:104B00005B680022C7F8C030C7F8C420D7E930126C
:104B10000B46DB18BB63134642EB0303FB63D7E989
:104B20000E23D7E93201FBF75BFB02460B460D4B28
:104B3000A3FB02135B09642101FB03F3D31ADB001F
:104B40003233084AA2FB03235B0903F00702D7F8BC
:104B50000C311B6822449A6009E100BF001001403B
:104B6000001401401F85EB51FEF7A6FEC7F81001A7
:104B7000D7F810310022C7F8B830C7F8BC20D7E901
:104B80002E8942464B46911839635B417B63D7E9D6
:104B90000C2341465418494643EB01054FF00002EF
:104BA0004FF00003EB0043EA5473E20014461D4645
:104BB0004346E318C7F8B0304B4645EB0303C7F84C
:104BC000B430D7F80C315B680022C7F8A830C7F8BA
:104BD000AC20D7E92A120B46DB18BB62134642EB26
:104BE0000303FB62D7E90A23D7E92C01FBF7F8FAA4
:104BF00002460B46614BA3FB02235B091C01D7F85D
:104C000010310022C7F8A030C7F8A420D7E92889BE
:104C100042464B46911839625B417B62D7E90823D3
:104C2000414612EB010A494643EB010B4FF00002EB
:104C30004FF000034FEACB0343EA5A734FEACA022C
:104C400092469B4643461AEB0303C7F898304B46FF
:104C50004BEB0303C7F89C30D7F80C315B6800229C
:104C6000C7F89030C7F89420D7E924120B46DB1818
:104C7000BB61134642EB0303FB61D7E90623D7E987
:104C80002601FBF7ADFA02460B4611463B4BA3FB50
:104C900001235B09642202FB03F3CB1ADB0003F15F
:104CA0003202364BA3FB02235B095B0003F4F8736B
:104CB0001C44D7F810310022C7F88830C7F88C2080
:104CC000D7E9228942464B46911839615B417B61A5
:104CD000D7E9042341465118B96049464B41FB606E
:104CE0004FF000024FF00003D7E902AB5946CB006A
:104CF000514643EA51735146CA00104619460346CD
:104D000042469B18C7F880304B460A4642EB0303E5
:104D1000C7F88430D7F80C315B680022BB67FA67AC
:104D2000D7E91E120B46DB183B60134642EB030328
:104D30007B60D7E90023D7E92001FBF751FA02464F
:104D40000B460E4BA3FB02135B09642101FB03F32B
:104D5000D31ADB003233094AA2FB03235B0903F0B9
:104D60000702D7F80C311B6822449A6000BF00BFCD
:104D700007F58C77BD46BDE8B08F00BF1F85EB51AE
:104D800084B080B584B000AF786007F11C0080E883
:104D90000E003B6B012B22D17B689B6B23F480328E
:104DA0007B689A637B68DB6823F4840323F0400309
:104DB0007A68D3607B68DB6823F440127B68DA6032
:104DC000FB6C012B05D17B68DB6843F480127B68A8
:104DD000DA60786801F0EEFB0346FB731AE07B684B
:104DE000DB6843F040027B68DA60786801F0E2FB40
:104DF0000346FB733B6C002B06D17B689B6B43F433
:104E000080327B689A6305E07B689B6B23F4803279
:104E10007B689A63BB6A012B0BD17B689B6843F06C
:104E200006027B689A607B689B6843F020027B687F
:104E30009A60FB7B18461037BD46BDE8804004B041
:104E40007047000080B487B000AFF860B9601346C7
:104E5000FB71FB79022B65D1BB68414A934206D9AD
:104E6000BB68404A934202D20F237B6162E0BB6879
:104E70003C4A934206D3BB683B4A934202D20E237C
:104E80007B6157E0BB68384A934206D3BB68374A18
:104E9000934202D20D237B614CE0BB68334A9342BC
:104EA00006D3BB68324A934202D80C237B6141E0AF
:104EB000BB682F4A934206D9BB682E4A934202D858
:104EC0000B237B6136E0BB682A4A934206D9BB6854
:104ED000294A934202D80A237B612BE0BB68264A09
:104EE000934206D9BB68254A934202D209237B61CB
:104EF00020E0BB68214A934206D3BB68204A934214
:104F000002D808237B6115E0BB681D4A934206D98D
:104F1000BB681C4A934202D207237B610AE0062346
:104F20007B6107E0FB79002B02D109237B6101E063
:104F300009237B61FB68DB6823F47052FB68DA604D
:104F4000FB68DA687B699B0203F470531A43FB68C1
:104F5000DA60002318461C37BD465DF8047B7047B5
:104F6000BFACD800C0E1E4000024F4008073060167
:104F70009F491A01FF2C31013FA44C0100366E01FC
:104F80001FABA6010048E80180B483B000AF786091
:104F90007B689B6843F001027B689A600023184697
:104FA0000C37BD465DF8047B704780B483B000AF1A
:104FB00078607B689B6823F001027B689A6000231D
:104FC00018460C37BD465DF8047B704780B584B049
:104FD00000AF78600B46FB700023FB607B68DB68EA
:104FE00023F0C0427B68DA60FB78012B15D17B6827
:104FF000DB6843F000527B68DA600120FCF70CFBB1
:10500000FB680133FB60786801F045FA0346012B29
:105010001ED0FB68312BF0D91AE0FB78002B15D19C
:105020007B68DB6843F080427B68DA600120FCF734
:10503000F3FAFB680133FB60786801F02CFA034651
:10504000002B05D0FB68312BF0D901E0012305E0EE
:10505000FB68322B01D1012300E0002318461037F2
:10506000BD4680BD84B080B586B000AF786007F1E2
:10507000240080E80E000023FB757B68FB600023A2
:105080003B6109E07A683B6940339B00134400228E
:105090005A603B6901333B613B690E2BF2D9FB6CD3
:1050A000002B1CD1FB6803F500635B68FA6802F50E
:1050B000006243F0020353607B689B6B43F4001271
:1050C0007B689A637B689B6B23F400227B689A63FE
:1050D0007B689B6B23F480227B689A630BE07B6880
:1050E0009B6B23F400127B689A637B689B6B43F491
:1050F00000227B689A63FB6803F560631A4600230D
:105100001360FB6803F500631946FB6803F5006351
:105110001A460B681360BB6B012B0CD1FB6A002B8A
:1051200004D10021786800F065F908E00121786871
:1051300000F060F903E00321786800F05BF91021CA
:10514000786800F0F3F80346002B01D00123FB75CB
:10515000786800F01FF90346002B01D00123FB758E
:10516000FB6803F500631A4600231361FB6803F52F
:1051700000631A4600235361FB6803F500631A4677
:105180000023D36100233B6143E03B695A01FB6884
:10519000134403F510631B6803F00043B3F1004FA1
:1051A00018D13B69002B0AD13B695A01FB681344B3
:1051B00003F510631A464FF00063136013E03B6978
:1051C0005A01FB68134403F510631A464FF09043ED
:1051D000136008E03B695A01FB68134403F5106350
:1051E0001A46002313603B695A01FB68134403F518
:1051F00010631A46002313613B695A01FB6813448C
:1052000003F510631A464FF67F3393603B69013311
:105210003B617B6A3A699A42B7D300233B6143E022
:105220003B695A01FB68134403F530631B6803F0C4
:105230000043B3F1004F18D13B69002B0AD13B6901
:105240005A01FB68134403F530631A464FF00063BC
:10525000136013E03B695A01FB68134403F53063A4
:105260001A464FF09043136008E03B695A01FB680F
:10527000134403F530631A46002313603B695A0157
:10528000FB68134403F530631A46002313613B693E
:105290005A01FB68134403F530631A464FF67F3317
:1052A00093603B6901333B617B6A3A699A42B7D3A9
:1052B000FB6803F500631B69FA6802F5006223F4DA
:1052C000807313617B6800229A617B686FF0804273
:1052D0005A613B6B002B05D17B689B6943F0100240
:1052E0007B689A617B689A690F4B13437A68936174
:1052F000FB6B002B05D07B689B6943F008027B6841
:105300009A61FB6C012B07D17B689B6943F080435A
:1053100043F004037A689361FB7D18461837BD4655
:10532000BDE8804004B0704700383C8080B485B050
:1053300000AF786039600023FB60FB680133FB60DD
:10534000FB68134A934201D903231BE07B681B6966
:10535000002BF2DA0023FB603B689B0143F0200244
:105360007B681A61FB680133FB60FB68084A934263
:1053700001D9032306E07B681B6903F02003202B7F
:10538000F0D0002318461437BD465DF8047B704703
:10539000400D030080B485B000AF78600023FB604F
:1053A000FB680133FB60FB68114A934201D9032378
:1053B00018E07B681B69002BF2DA0023FB607B6836
:1053C00010221A61FB680133FB60FB68084A9342B4
:1053D00001D9032306E07B681B6903F01003102B3F
:1053E000F0D0002318461437BD465DF8047B7047A3
:1053F000400D030080B485B000AF78600B46FB70B1
:105400007B68FB60FB6803F500631A68FB78F9684A
:1054100001F5006113430B60002318461437BD46A5
:105420005DF8047B704780B487B000AF78607B681C
:105430003B613B6903F500639B6803F00603FB6077
:10544000FB68002B02D10023FB750AE0FB68022BEE
:1054500002D0FB68062B02D10223FB7501E00F236B
:10546000FB75FB7D18461C37BD465DF8047B704715
:1054700080B485B000AF786039607B68FB603B68C2
:105480001B78BB603B685B78012B3AD1FB6803F566
:105490000063DA693B681B7803F00F03012101FA0E
:1054A00003F39BB2F96801F500611343CB61BB685C
:1054B0005A01FB68134403F510631B6803F40043AF
:1054C000002B55D1BB685A01FB68134403F51063E8
:1054D0001A683B68DB68C3F30A013B681B799B04CD
:1054E0001943BB689B050B431343BA685101FA6823
:1054F0000A4402F5106243F0805343F40043136002
:1055000036E0FB6803F50063DA693B681B7803F05B
:105510000F03012101FA03F31B04F96801F500618F
:105520001343CB61BB685A01FB68134403F5306336
:105530001B6803F40043002B1AD1BB685A01FB68B7
:10554000134403F530631A683B68DB68C3F30A0150
:105550003B681B799B040B431343BA685101FA68FB
:105560000A4402F5306243F0805343F40043136071
:10557000002318461437BD465DF8047B70470000D1
:1055800080B485B000AF786039607B68FB603B68B1
:105590001B78BB603B685B78012B61D1BB685A010B
:1055A000FB68134403F510631B6803F00043B3F179
:1055B000004F1FD1BB685A01FB68134403F5106309
:1055C0001B68BA685101FA680A4402F5106243F098
:1055D00000631360BB685A01FB68134403F5106352
:1055E0001B68BA685101FA680A4402F5106243F078
:1055F00080431360FB6803F50063DA6B3B681B783C
:1056000003F00F03012101FA03F39BB2DB43F968B6
:1056100001F500611340CB63FB6803F50063DA69B1
:105620003B681B7803F00F03012101FA03F39BB2DF
:10563000DB43F96801F500611340CB61BB685A0197
:10564000FB68134403F510631A68BB685901FB68D3
:105650000B4403F510631946354B13400B6060E0B3
:10566000BB685A01FB68134403F530631B6803F001
:105670000043B3F1004F1FD1BB685A01FB681344CC
:1056800003F530631B68BA685101FA680A4402F5F1
:10569000306243F000631360BB685A01FB68134437
:1056A00003F530631B68BA685101FA680A4402F5D1
:1056B000306243F080431360FB6803F50063DA6BEC
:1056C0003B681B7803F00F03012101FA03F31B046D
:1056D000DB43F96801F500611340CB63FB6803F518
:1056E0000063DA693B681B7803F00F03012101FABC
:1056F00003F31B04DB43F96801F500611340CB6140
:10570000BB685A01FB68134403F530631A68BB6831
:105710005901FB680B4403F530631946054B1340F0
:105720000B60002318461437BD465DF8047B7047B4
:10573000007833EC0078F3EF80B58AB002AFF86000
:10574000B9601346FB71FB68FB61BB681B78BB61EA
:10575000BB685B78012B40F05C81BB689B69002BC8
:1057600032D1BB695A01FB69134403F510631B690D
:10577000BA695101FA690A4402F5106223F0FF5335
:1057800023F4C0131361BB695A01FB69134403F589
:1057900010631B69BA695101FA690A4402F5106283
:1057A00043F400231361BB695A01FB69134403F5F9
:1057B00010631B69BA695101FA690A4402F5106263
:1057C000DB0CDB04136174E0BB695A01FB69134411
:1057D00003F510631B69BA695101FA690A4402F5BD
:1057E0001062DB0CDB041361BB695A01FB691344D3
:1057F00003F510631B69BA695101FA690A4402F59D
:10580000106223F0FF5323F4C0131361BB695A01E4
:10581000FB69134403F510631A69BB689969BB6897
:10582000DB680B44591EBB68DB68B1FBF3F3D9049A
:105830009D4B0B40B9694801F969014401F51061BC
:1058400013430B61BB695A01FB69134403F51063F1
:105850001A69BB689B69C3F31203B9694801F96906
:10586000014401F5106113430B61BB681B79012BE7
:105870001FD1BB695A01FB69134403F510631B690F
:10588000BA695101FA690A4402F5106223F0C04373
:105890001361BB695A01FB69134403F510631B696B
:1058A000BA695101FA690A4402F5106243F00053E3
:1058B0001361FB79012B4BD1BB685B69002B09D0CD
:1058C000BB695A01FB69134403F510631A46BB68B0
:1058D0005B695361BB681B79012B28D1FB6903F518
:1058E00000639B6803F48073002B10D1BB695A01DD
:1058F000FB69134403F510631B68BA695101FA6927
:105900000A4402F5106243F0005313600FE0BB69D4
:105910005A01FB69134403F510631B68BA6951010E
:10592000FA690A4402F5106243F080531360BB69C0
:105930005A01FB69134403F510631B68BA695101EE
:10594000FA690A4402F5106243F00443136033E13C
:10595000BB695A01FB69134403F510631B68BA69FC
:105960005101FA690A4402F5106243F004431360DE
:10597000BB681B79012B15D0BB689B69002B00F01D
:105980001B81FB6903F500635A6BBB681B7803F04E
:105990000F03012101FA03F3F96901F500611343D3
:1059A0004B6309E1FB6903F500639B6803F48073B3
:1059B000002B10D1BB695A01FB69134403F5106336
:1059C0001B68BA695101FA690A4402F5106243F092
:1059D000005313600FE0BB695A01FB69134403F5E0
:1059E00010631B68BA695101FA690A4402F5106232
:1059F00043F080531360BB681969BB681A78BB68B1
:105A00009B6998B2FB7900930346F86800F0DEFAD0
:105A1000D2E0BB695A01FB69134403F530631B698B
:105A2000BA695101FA690A4402F53062DB0CDB0401
:105A30001361BB695A01FB69134403F530631B69A9
:105A4000BA695101FA690A4402F5306223F0FF5342
:105A500023F4C0131361BB689B69002B26D1BB697B
:105A60005A01FB69134403F530631A69BB68DB68AC
:105A7000C3F31203B9694801F969014401F53061C2
:105A800013430B61BB695A01FB69134403F530638F
:105A90001B69BA695101FA690A4402F5306243F49C
:105AA000002313613AE000BF0000F81FBB689A6949
:105AB000BB68DB6813445A1EBB68DB68B2FBF3F3B8
:105AC000FB82BB68DB68FA8A03FB02F2BB68DA611F
:105AD000BB695A01FB69134403F530631A69FB8AF9
