:020000040800F2
:10000000000002204D1A0008FD180008031900081E
:10001000091900080F190008151900080000000050
:100020000000000000000000000000001B19000894
:1000300029190008000000003719000845190008B8
:100040009D1A00089D1A00089D1A00089D1A0008B4
:100050009D1A00089D1A00089D1A00089D1A0008A4
:100060009D1A00089D1A00089D1A00089D1A000894
:100070009D1A00089D1A00089D1A00089D1A000884
:100080009D1A00089D1A00089D1A00080000000033
:100090000000000000000000000000009D1A0008A1
:1000A0009D1A00089D1A00089D1A00089D1A000854
:1000B00051190008651900089D1A00089D1A0008CA
:1000C0009D1A00089D1A00089D1A00089D1A000834
:1000D0009D1A00089D1A00089D1A000800000000E3
:1000E0009D1A00089D1A00089D1A000800000000D3
:1000F0000000000000000000000000009D1A000841
:10010000000000009D1A00089D1A00089D1A0008B2
:1001100000000000000000000000000000000000DF
:100120009D1A00089D1A00089D1A00089D1A0008D3
:100130009D1A000800000000000000000000000000
:10014000000000000000000000000000A9190008E5
:100150009D1A00089D1A00089D1A00089D1A0008A3
:100160009D1A00089D1A0008000000000000000011
:10017000000000000000000000000000000000007F
:10018000000000009D1A00080000000000000000B0
:080190009D1A00089D1A0008E9
:1001980010B5054C237833B9044B13B10448AFF3B9
:1001A80000800123237010BD7401002000000000AE
:1001B8008C96000808B5034B1BB103490348AFF3FD
:1001C800008008BD00000000780100208C9600081F
:1001D80081F0004102E000BF83F0004330B54FEAF0
:1001E80041044FEA430594EA050F08BF90EA020F5D
:1001F8001FBF54EA000C55EA020C7FEA645C7FEAF0
:10020800655C00F0E2804FEA5454D4EB5555B8BF12
:100218006D420CDD2C4480EA020281EA030382EA83
:10022800000083EA010180EA020281EA0303362D15
:1002380088BF30BD11F0004F4FEA01314FF4801CE8
:100248004CEA113102D0404261EB410113F0004FFA
:100258004FEA03334CEA133302D0524263EB4303B1
:1002680094EA050F00F0A780A4F10104D5F1200E4F
:100278000DDB02FA0EFC22FA05F2801841F10001AA
:1002880003FA0EF2801843FA05F359410EE0A5F17E
:1002980020050EF1200E012A03FA0EFC28BF4CF0AF
:1002A800020C43FA05F3C01851EBE37101F0004565
:1002B80007D54FF0000EDCF1000C7EEB00006EEB72
:1002C8000101B1F5801F1BD3B1F5001F0CD34908FC
:1002D8005FEA30004FEA3C0C04F101044FEA445253
:1002E80012F5800F80F09A80BCF1004F08BF5FEADA
:1002F800500C50F1000041EB045141EA050130BDBA
:100308005FEA4C0C404141EB0101013C28BFB1F5CB
:10031800801FE9D291F0000F04BF01460020B1FA16
:1003280081F308BF2033A3F10B03B3F120020CDAE9
:100338000C3208DD02F1140CC2F10C0201FA0CF0C7
:1003480021FA02F10CE002F11402D8BFC2F1200C2C
:1003580001FA02F120FA0CFCDCBF41EA0C019040E2
:10036800E41AA2BF01EB0451294330BD6FEA04042B
:100378001F3C1CDA0C340EDC04F11404C4F1200216
:1003880020FA04F001FA02F340EA030021FA04F328
:1003980045EA030130BDC4F10C04C4F1200220FA7F
:1003A80002F001FA04F340EA0300294630BD21FABD
:1003B80004F0294630BD94F0000F83F4801306BF83
:1003C80081F480110134013D4EE77FEA645C18BF77
:1003D8007FEA655C29D094EA050F08BF90EA020F0E
:1003E80005D054EA000C04BF1946104630BD91EA06
:1003F800030F1EBF0021002030BD5FEA545C05D109
:100408004000494128BF41F0004130BD14F5800447
:100418003CBF01F5801130BD01F0004545F0FE41BB
:1004280041F470014FF0000030BD7FEA645C1ABFF0
:10043800194610467FEA655C1CBF0B46024650EA27
:10044800013406BF52EA033591EA030F41F4002153
:1004580030BD00BF90F0000F04BF0021704730B5D9
:100468004FF4806404F132044FF000054FF00001AE
:1004780050E700BF90F0000F04BF0021704730B56F
:100488004FF4806404F1320410F0004548BF404244
:100498004FF000013EE700BF42004FEAE2014FEA99
:1004A80031014FEA02701FBF12F07F4393F07F4F74
:1004B80081F06051704732F07F4208BF704793F077
:1004C8007F4F04BF41F40021704730B54FF460748A
:1004D80001F0004521F000411CE700BF50EA01028D
:1004E80008BF704730B54FF000050AE050EA010236
:1004F80008BF704730B511F0004502D5404261EBA6
:1005080041014FF4806404F132045FEA915C3FF4E6
:10051800D8AE4FF003025FEADC0C18BF03325FEA83
:10052800DC0C18BF033202EBDC02C2F1200300FA34
:1005380003FC20FA02F001FA03FE40EA0E0021FA59
:1005480002F11444BDE600BF4A0011D212F50012B0
:1005580011D20DD56FF47873B3EB62520ED44FEA13
:10056800C12343F0004343EA505323FA02F0704793
:100578004FF00000704750EA013002D14FF0FF30D1
:1005880070474FF00000704753B94AB9002908BFB7
:1005980000281CBF4FF0FF314FF0FF3000F074B956
:1005A800ADF1080C6DE904CE00F006F8DDF804E0C2
:1005B800DDE9022304B070472DE9F047089D0446A1
:1005C8008E46002B4DD18A42944669D9B2FA82F2FE
:1005D80052B101FA02F3C2F1200120FA01F10CFA3A
:1005E80002FC41EA030E94404FEA1C48210CBEFB72
:1005F800F8F61FFA8CF708FB16E341EA034306FBFB
:1006080007F199420AD91CEB030306F1FF3080F089
:100618001F81994240F21C81023E63445B1AA4B2D6
:10062800B3FBF8F008FB103344EA034400FB07F778
:10063800A7420AD91CEB040400F1FF3380F00A81B9
:10064800A74240F207816444023840EA0640E41BAE
:1006580000261DB1D4400023C5E900433146BDE85A
:10066800F0878B4209D9002D00F0EF800026C5E9FC
:10067800000130463146BDE8F087B3FA83F6002E14
:100688004AD18B4202D3824200F2F980841A61EB8C
:10069800030301209E46002DE0D0C5E9004EDDE7AA
:1006A80002B9FFDEB2FA82F2002A40F09280A1EB92
:1006B8000C014FEA1C471FFA8CFE0126200CB1FBE7
:1006C800F7F307FB131140EA01410EFB03F08842E0
:1006D80008D91CEB010103F1FF3802D2884200F26D
:1006E800CB804346091AA4B2B1FBF7F007FB1011FF
:1006F80044EA01440EFB00FEA64508D91CEB04049D
:1007080000F1FF3102D2A64500F2BB800846A4EBF7
:100718000E0440EA03409CE7C6F12007B34022FAE2
:1007280007FC4CEA030C20FA07F401FA06F31C4311
:10073800F9404FEA1C4900FA06F3B1FBF9F8200C1E
:100748001FFA8CFE09FB181140EA014108FB0EF064
:10075800884202FA06F20BD91CEB010108F1FF3AB4
:1007680080F08880884240F28580A8F102086144C0
:10077800091AA4B2B1FBF9F009FB101144EA0141CE
:1007880000FB0EFE8E4508D91CEB010100F1FF3479
:100798006CD28E456AD90238614440EA0840A0FB11
:1007A8000294A1EB0E01A142C846A64656D353D0E7
:1007B8005DB1B3EB080261EB0E0101FA07F722FA0B
:1007C80006F3F1401F43C5E9007100263146BDE834
:1007D800F087C2F12003D8400CFA02FC21FA03F397
:1007E800914001434FEA1C471FFA8CFEB3FBF7F018
:1007F80007FB10360B0C43EA064300FB0EF69E423D
:1008080004FA02F408D91CEB030300F1FF382FD2D5
:100818009E422DD9023863449B1B89B2B3FBF7F67D
:1008280007FB163341EA034106FB0EF38B4208D956
:100838001CEB010106F1FF3816D28B4214D9023E97
:100848006144C91A46EA004638E72E46284605E7B5
:100858000646E3E61846F8E64B45A9D2B9EB020886
:1008680064EB0C0E0138A3E74646EAE7204694E716
:100878004046D1E7D0467BE7023B614432E7304649
:1008880009E76444023842E7704700BF80B485B086
:1008980000AFB9607A601A460346FB731346BB8102
:1008A800BB69FA7B1A70BB69BA685A60BB697A6817
:1008B8009A60BB69BA899A8100BF1437BD465DF852
:1008C800047B704780B584B000AF7860396000233E
:1008D800FB600FE00F237B81FB681B017A681A44D9
:1008E8007B891146184600F059F90346002BFB682E
:1008F8000133FB603B681B781A46FB689342E9DBCF
:1009080000BF00BF1037BD4680BD80B584B000AFC2
:10091800786039600023FB6010E04AF201037B81B4
:10092800FB681B017A681A447B891146184600F057
:1009380035F90346002BFB680133FB603B681B78E5
:100948001A46FB689342E8DB00BF00BF1037BD467C
:1009580080BD80B584B000AFF8600B467A607B81BB
:100968007B68FA681A607B687A899A807B6818685D
:100978007B689B880122194601F0BAFB00BF10373B
:10098800BD4680BD80B485B000AFF860B9607A60BC
:10099800FB681B781B021AB2FB6801331B781BB279
:1009A80013431BB29AB2BB681A80FB6802331B78E8
:1009B8001B021AB2FB6803331B781BB213431BB22A
:1009C8009AB27B681A8000BF1437BD465DF8047B75
:1009D800704780B485B000AFF860B9607A60FB6892
:1009E8001B88DB089BB2DAB2BB681A70FB681B88ED
:1009F800DBB203F00703DAB27B681A7000BF143762
:100A0800BD465DF8047B704780B586B000AFF860DE
:100A1800B9601346FB800023FB75B86800F030F816
:100A28000346BB75FB881B09FB80FB88DBB23B7563
:100A3800FB881B0A9BB2DAB2BB7D1343DBB27B7522
:100A4800FB689868FB689B890022194601F050FBF7
:100A5800FB68586807F114014FF0FF33022203F0D6
:100A6800BEFA0346FB75FB689868FB689B89012200
:100A7800194601F03DFBFB7D18461837BD4680BD81
:100A880080B483B000AF78607B681B781A46044B4B
:100A98009B5C18460C37BD465DF8047B704700BF69
:100AA8000800002080B586B000AFF860B9607A60B1
:100AB8003B600023FB75FB681B88213B072B21D873
:100AC80001A252F823F000BFF10A0008F70A000853
:100AD8000D0B00080D0B00080D0B00080D0B00088E
:100AE800030B0008F70A000800F014F80DE0BB68D3
:100AF8001B88184600F01EF807E0BB681B881846DC
:100B080000F03CF80123FB7500BFFB7D1846183741
:100B1800BD4680BD80B500AF00220421044801F025
:100B2800E7FA01220421024801F0E2FA00BF80BD81
:100B38000004024080B582B000AF0346FB80FB880A
:100B48000D4A13600C4B1B6842F21072B2FBF3F3B0
:100B58001846FFF77FFC02460B46FFF73FFB0246AD
:100B68000B4610461946FFF7EFFC0346024A13608E
:100B780000BF0837BD4680BD0000002080B483B0A8
:100B880000AF0346FB80FB88034A136000BF0C37A5
:100B9800BD465DF8047B70470400002080B584B032
:100BA80000AF03463960FB80FB88DBB23B73FB88F0
:100BB8001B0A9BB2DBB27B733B6898683B689B89D6
:100BC8000022194601F094FA3B68586807F10C01B5
:100BD8004FF0FF33022203F002FA0346FB733B682F
:100BE80098683B689B890122194601F081FAFB7BD2
:100BF80018461037BD4680BD80B483B000AF78601A
:100C08007B6800229A607B689A687B681A607B68B8
:100C180041F6FF725A607B684FF400529A8100BF18
:100C28000C37BD465DF8047B704780B483B000AFD5
:100C380003463A60FB800B46BB803B685B68013328
:100C48003A68928993FBF2F101FB02F29A1A3B6827
:100C58005A603B685B683A6802339B001344FA8821
:100C6800DA803B685B683A689B001344BA881A824A
:100C78003B689B685A1C3B689A6000BF0C37BD46AE
:100C88005DF8047B704780B584B000AFF860B96048
:100C98007A60786800F044F80346002B22D17B681C
:100CA8001B687A6802339B001344DA88FB681A8051
:100CB8007B681B687A689B0013441A8ABB681A8091
:100CC8007B681B6801337A68928993FBF2F101FB18
:100CD80002F29A1A7B681A607B689B685A1E7B68C6
:100CE8009A6006E0FB6800221A80FB681A88BB68D5
:100CF8001A8000BF1037BD4680BD80B483B000AFF6
:100D080078607B689B687A68928993420CBF01235C
:100D18000023DBB218460C37BD465DF8047B7047EC
:100D280080B483B000AF78607B689B68002B0CBFF1
:100D380001230023DBB218460C37BD465DF8047B5F
:100D4800704780B582B000AF786039607B681A68F8
:100D58003B6813447A68928993FBF2F101FB02F233
:100D68009A1A7B681A607B689A683B68D21A7B6813
:100D78009A607B689B68002B02DA7868FFF73CFF73
:100D880000BF0837BD4680BD90B585B002AF00F002
:100D980083FE00F099F800F0ABFA00F0FDF807F0D8
:100DA80015FE00F0A1F900F02FF900F075FA00F037
:100DB80063F900F0D1F900F01FFA354B00931023C6
:100DC800344A35490020FFF761FD344B0093022374
:100DD800334A34490120FFF759FD334B00934FF450
:100DE80000432C4A31490220FFF750FD304B009355
:100DF8004FF480532A4A2F490320FFF747FD2E4B13
:100E08001B781B01184608F06DFB03461A462B4B4E
:100E18001A602A4B1B681E4A1C4613460FCB84E8EF
:100E28000F00264B1B6810331C4A1C4613460FCB79
:100E380084E80F00214B1B6820331B4A1C461346CD
:100E48000FCB84E80F001D4B1B683033184A1C4633
:100E580013460FCB84E80F00184B1B681649184639
:100E6800FFF730FD154B1B6813491846FFF74DFD7A
:100E7800134A04210A48FFF76CFD1248FFF7BCFE2D
:100E88000023FB710723BB7101237B71FEE700BFC1
:100E9800C40300200000024090010020D403002079
:100EA8000004024098020020E4030020E80100202A
:100EB800F403002040020020100000200404002059
:100EC800080400201004002080B594B000AF07F19A
:100ED800200330220021184608F01AFB07F10C0302
:100EE80000221A605A609A60DA601A610023BB60B7
:100EF800274B1B6C264A43F080531364244B1B6C0E
:100F080003F08053BB60BB6800237B60214B1B68E8
:100F1800204A43F4404313601E4B1B6803F44043CC
:100F28007B607B6801233B624FF480337B62022342
:100F3800BB634FF48003FB6319233B64C0237B64CA
:100F48000223BB640423FB6407F12003184602F064
:100F580065FB0346002B01D000F0CEFA0F23FB609F
:100F680002233B6100237B614FF48053BB61002364
:100F7800FB6107F10C030321184602F0C7FD034685
:100F8800002B01D000F0B8FA00BF5037BD4680BD35
:100F9800003802400070004080B500AF184B194A75
:100FA8001A60174B4FF482725A60154B4FF4004287
:100FB8009A60134B4FF40062DA60114B00221A61F9
:100FC8000F4B00225A610E4B4FF400729A610C4B82
:100FD8000022DA610A4B00221A62094B00225A6287
:100FE800074B00229A62064B0A22DA62044802F092
:100FF8006DFF0346002B01D000F07EFA00BF80BDD4
:10100800900100200030014080B500AF184B194A0C
:101018001A60174B4FF482725A60154B4FF4004216
:101028009A60134B4FF40062DA60114B00221A6188
:101038000F4B00225A610E4B4FF400729A610C4B11
:101048000022DA610A4B00221A62094B00225A6216
:10105800074B00229A62064B0A22DA62044802F021
:1010680035FF0346002B01D000F046FA00BF80BDD3
:10107800E8010020003C004080B500AF184B194A39
:101088001A60174B4FF482725A60154B4FF40042A6
:101098009A60134B4FF40062DA60114B00221A6118
:1010A8000F4B00225A610E4B4FF400729A610C4BA1
:1010B8000022DA610A4B00221A62094B00225A62A6
:1010C800074B00229A62064B0A22DA62044802F0B1
:1010D800FDFE0346002B01D000F00EFA00BF80BDD4
:1010E800400200200034014080B500AF184B194A77
:1010F8001A60174B4FF482725A60154B4FF4004236
:101108009A60134B4FF40062DA60114B00221A61A7
:101118000F4B00225A610E4B4FF400729A610C4B30
:101128000022DA610A4B00221A62094B00225A6235
:10113800074B00229A62064B0A22DA62044802F040
:10114800C5FE0346002B01D000F0D6F900BF80BDD4
:10115800980200200050014080B586B000AF07F12A
:10116800080300221A605A609A60DA603B4600223F
:101178001A605A601F4B4FF080421A601D4B0122C3
:101188005A601C4B00229A601A4B41F2BF22DA6067
:10119800184B00221A61174B00229A61154803F078
:1011A80025F90346002B01D000F0A6F94FF480532F
:1011B800BB6007F1080319460E4803F0D1FA03464D
:1011C800002B01D000F098F900233B6000237B60DE
:1011D8003B461946074803F0CDFC0346002B01D0D7
:1011E80000F08AF9034803F051F900BF1837BD46EB
:1011F80080BD00BFF002002080B586B000AF07F1C7
:10120800080300221A605A609A60DA603B4600229E
:101218001A605A601E4B1F4A1A601D4B02225A6000
:101228001B4B00229A601A4B40F67F42DA60184B3B
:1012380000221A61164B00229A61154803F0D6F86D
:101248000346002B01D000F057F94FF48053BB60E0
:1012580007F1080319460E4803F082FA0346002BEB
:1012680001D000F049F900233B6000237B603B4636
:101278001946074803F07EFC0346002B01D000F016
:101288003BF9034803F002F900BF1837BD4680BD9B
:10129800380300200004004080B500AF124B134A09
:1012A8001A60114B4FF4E1325A600F4B00229A60DA
:1012B8000D4B0022DA600C4B00221A610A4B0C22FB
:1012C8005A61094B00229A61074B0022DA61064BEA
:1012D80000221A62044803F0CFFC0346002B01D019
:1012E80000F00AF900BF80BD800300200010014013
:1012F80080B58AB000AF07F1140300221A605A6063
:101308009A60DA601A6100233B61344B1B6B334AE5
:1013180043F004031363314B1B6B03F004033B617D
:101328003B690023FB602D4B1B6B2C4A43F0800369
:1013380013632A4B1B6B03F08003FB60FB680023DD
:10134800BB60264B1B6B254A43F001031363234BF9
:101358001B6B03F00103BB60BB6800237B601F4B62
:101368001B6B1E4A43F0020313631C4B1B6B03F0F9
:1013780002037B607B68012248F21001184800F0E4
:10138800B7FE012241F20201164800F0B1FE002228
:101398000421144800F0ACFE48F210037B610123DD
:1013A800BB610023FB6100233B6207F1140319466C
:1013B8000B4800F019FD41F206037B610123BB6174
:1013C8000023FB6100233B6207F11403194605481B
:1013D80000F00AFD00BF2837BD4680BD0038024036
:1013E800000002400004024080B586B000AF78607B
:1013F8007B68384A93424CD100237B8200233B828E
:101408000123FB730723BB73334B1B78002B5DD081
:10141800314B00221A7000237B6134E02E4B1B787D
:10142800002B08D02D4B1A687B69D31A19462C4813
:10143800FFF787FC4AE02A48FFF772FC0346002BB7
:1014480043D107F1100107F11203254A1846FFF7A7
:101458001AFC7B8A1F2B13D807F10E0207F10F0124
:1014680007F112031846FFF7B4FA1E4B1A68FB7B04
:101478001B0113443A8A07F10E011846FFF7C4FA14
:101488007B6901337B617A69144B1B689A42C5D327
:101498001CE07B68144A934218D1144B1A68144B09
:1014A8001B689A420BD1134B1B78002B07D0FFF710
:1014B80031FB094B01221A700C4B00221A600B4BAE
:1014C8001B680133094A136000E000BF00BF1837EA
:1014D800BD4680BDF00200202484002004000020C6
:1014E8001004002004040020380300202084002079
:1014F800000000202584002080B400AF72B600BF31
:10150800FEE7000080B483B000AF00237B60104B7F
:101518005B6C0F4A43F4804353640D4B5B6C03F4DC
:1015280080437B607B6800233B60094B1B6C084A47
:1015380043F080531364064B1B6C03F080533B60ED
:101548003B6800BF0C37BD465DF8047B704700BFA1
:101558000038024080B592B000AF786007F13403DC
:1015680000221A605A609A60DA601A617B681B6808
:10157800834A93422CD100233B63824B5B6C814AA4
:1015880043F4805353647F4B5B6C03F480533B6399
:101598003B6B0023FB627B4B1B6B7A4A43F00103D6
:1015A8001363784B1B6B03F00103FB62FB6AA023F8
:1015B8007B630223BB630023FB6303233B64052394
:1015C8007B6407F1340319466F4800F00DFCD2E044
:1015D8007B681B686D4A93422CD10023BB62694B20
:1015E8001B6C684A43F400431364664B1B6C03F49A
:1015F8000043BB62BB6A00237B62624B1B6B614A80
:1016080043F0020313635F4B1B6B03F002037B621F
:101618007B6A28237B630223BB630023FB630323CA
:101628003B6406237B6407F134031946584800F0ED
:10163800DBFBA0E07B681B68564A93424BD1002332
:101648003B62504B5B6C4F4A43F4005353644D4B21
:101658005B6C03F400533B623B6A0023FB61494B1C
:101668001B6B484A43F001031363464B1B6B03F0A3
:101678000103FB61FB690023BB61424B1B6B414AC1
:1016880043F0020313633F4B1B6B03F00203BB6180
:10169800BB6902237B630223BB630023FB63032331
:1016A8003B6405237B6407F134031946364800F090
:1016B8009BFB4FF400537B630223BB630023FB6354
:1016C80003233B6406237B6407F13403194630483F
:1016D80000F08AFB4FE07B681B682F4A93424AD18F
:1016E80000237B61274B5B6C264A43F480135364C9
:1016F800244B5B6C03F480137B617B6900233B61A3
:10170800204B1B6B1F4A43F0020313631D4B1B6BDB
:1017180003F002033B613B690023FB60194B1B6B21
:10172800184A43F001031363164B1B6B03F00103C4
:10173800FB60FB6801237B630223BB630023FB631D
:1017480003233B6406237B6407F1340319461048DE
:1017580000F04AFB4FF480637B630223BB630023E2
:10176800FB6303233B6406237B6407F134031946B8
:10177800054800F039FB00BF4837BD4680BD00BFB3
:10178800003001400038024000000240003C0040A8
:1017980000040240003401400050014080B584B08C
:1017A80000AF78607B681B68B3F1804F16D10023C7
:1017B800FB601A4B1B6C194A43F001031364174B67
:1017C8001B6C03F00103FB60FB68002205211C2051
:1017D80000F0D3FA1C2000F0ECFA1AE07B681B68D2
:1017E8000F4A934215D10023BB600C4B1B6C0B4A6C
:1017F80043F002031364094B1B6C03F00203BB6044
:10180800BB68002200211D2000F0B7FA1D2000F05F
:10181800D0FA00BF1037BD4680BD00BF0038024077
:101828000004004080B58AB000AF786007F1140367
:1018380000221A605A609A60DA601A617B681B6835
:10184800284A93424AD100233B61274B5B6C264AC6
:1018580043F010035364244B5B6C03F010033B61AB
:101868003B690023FB60204B1B6B1F4A43F00103BD
:1018780013631D4B1B6B03F00103FB60FB68002324
:10188800BB60194B1B6B184A43F002031363164BDA
:101898001B6B03F00203BB60BB684FF440737B61B2
:1018A8000223BB610023FB6103233B6207237B62A6
:1018B80007F1140319460D4800F096FA80237B615E
:1018C8000223BB610023FB6103233B6207237B6286
:1018D80007F114031946064800F086FA00BF2837B6
:1018E800BD4680BD001001400038024000000240A3
:1018F8000004024080B400AFFEE780B400AFFEE70A
:1019080080B400AFFEE780B400AFFEE780B400AF5C
:10191800FEE780B400AF00BFBD465DF8047B7047AA
:1019280080B400AF00BFBD465DF8047B704780B44B
:1019380000AF00BFBD465DF8047B704780B500AFBF
:1019480000F0FCF800BF80BD80B500AF024802F08F
:10195800FFFD00BF80BD00BFF002002080B500AFD2
:101968000B4B1A680B4B1B689A4207D1FFF7D2F84A
:10197800094B01221A70064B00221A60044B1B689F
:101988000133034A1360054802F0E2FD00BF80BD41
:101998002084002000000020248400203803002038
:1019A80080B500AF024800F00CFD00BF80BD00BF4D
:1019B8001099002080B586B000AF7860144A154BA6
:1019C800D31A7B617B693B61134B1B68002B02D1E7
:1019D800114B124A1A60104B1A687B6813443A6913
:1019E8009A4207D207F054FD03460C221A604FF0C2
:1019F800FF3309E0084B1B68FB60074B1A687B68DC
:101A08001344054A1360FB6818461837BD4680BD65
:101A180000000220000400002884002050A00020BC
:101A280080B400AF064BD3F88830054A43F47003FE
:101A3800C2F8883000BFBD465DF8047B704700BF20
:101A480000ED00E0DFF834D00D480E490E4A0023BF
:101A580002E0D458C4500433C4188C42F9D30B4A5A
:101A68000B4C002301E013600432A242FBD3FFF7C2
:101A7800D7FF07F013FDFFF787F970470000022032
:101A88000000002074010020149700087401002051
:101A98004CA00020FEE7000080B500AF0E4B1B688D
:101AA8000D4A43F4007313600B4B1B680A4A43F456
:101AB80080631360084B1B68074A43F48073136004
:101AC800032000F04FF90F2000F008F8FFF71AFD87
:101AD8000023184680BD00BF003C024080B582B09C
:101AE80000AF7860124B1A68124B1B7819464FF4F6
:101AF8007A73B3FBF1F3B2FBF3F3184600F067F91E
:101B08000346002B01D001230EE07B680F2B0AD877
:101B1800002279684FF0FF3000F02FF9064A7B6801
:101B28001360002300E0012318460837BD4680BD36
:101B3800140000201C0000201800002080B400AF12
:101B4800064B1B781A46064B1B681344044A13605D
:101B580000BFBD465DF8047B704700BF1C00002035
:101B68002C84002080B400AF034B1B681846BD4688
:101B78005DF8047B704700BF2C84002080B584B0DA
:101B880000AF7860FFF7EEFFB8607B68FB60FB682A
:101B9800B3F1FF3F05D00A4B1B781A46FB68134484
:101BA800FB6000BFFFF7DEFF0246BB68D31AFA6886
:101BB8009A42F7D800BF00BF1037BD4680BD00BFAE
:101BC8001C00002080B485B000AF78607B6803F00B
:101BD8000703FB600C4BDB68BB60BA684FF6FF037A
:101BE8001340BB60FB681A02BB68134343F0BF6332
:101BF80043F40033BB60044ABB68D36000BF1437AA
:101C0800BD465DF8047B704700ED00E080B400AF8E
:101C1800044BDB681B0A03F007031846BD465DF852
:101C2800047B704700ED00E080B483B000AF03464A
:101C3800FB7197F90730002B0BDBFB7903F01F02D0
:101C4800074997F907305B09012000FA02F241F8C9
:101C5800232000BF0C37BD465DF8047B704700BFEA
:101C680000E100E080B483B000AF03463960FB7147
:101C780097F90730002B0ADB3B68DAB20C4997F971
:101C880007301201D2B20B4483F800230AE03B6804
:101C9800DAB20849FB7903F00F03043B1201D2B210
:101CA8000B441A7600BF0C37BD465DF8047B7047BD
:101CB80000E100E000ED00E080B489B000AFF8601A
:101CC800B9607A60FB6803F00703FB61FB69C3F145
:101CD8000703042B28BF0423BB61FB690433062BCD
:101CE80002D9FB69033B00E000237B614FF0FF3220
:101CF800BB6902FA03F3DA43BB681A407B699A406E
:101D08004FF0FF317B6901FA03F3D9437B680B403D
:101D1800134318462437BD465DF8047B704700001E
:101D280080B582B000AF78607B68013BB3F1807FFB
:101D380001D301230FE00A4A7B68013B53600F215E
:101D48004FF0FF30FFF78EFF054B00229A60044BDF
:101D580007221A60002318460837BD4680BD00BF19
:101D680010E000E080B582B000AF78607868FFF7D7
:101D780029FF00BF0837BD4680BD80B586B000AFDB
:101D88000346B9607A60FB7300237B61FFF73EFF6F
:101D980078617A68B9687869FFF78EFF024697F923
:101DA8000F3011461846FFF75DFF00BF1837BD46D4
:101DB80080BD80B582B000AF0346FB7197F907304C
:101DC8001846FFF731FF00BF0837BD4680BD80B514
:101DD80082B000AF78607868FFF7A2FF0346184624
:101DE8000837BD4680BD000080B489B000AF786078
:101DF800396000237B6100233B610023BB61002322
:101E0800FB6159E10122FB6902FA03F37B613B683C
:101E18001B687A6913403B613A697B699A4240F0D2
:101E280048813B685B6803F00303012B05D03B68DE
:101E38005B6803F00303022B30D17B689B68BB61AE
:101E4800FB695B00032202FA03F3DB43BA69134020
:101E5800BB613B68DA68FB695B0002FA03F3BA69A5
:101E68001343BB617B68BA699A607B685B68BB6136
:101E78000122FB6902FA03F3DB43BA691340BB6131
:101E88003B685B681B0903F00102FB6902FA03F374
:101E9800BA691343BB617B68BA695A603B685B687F
:101EA80003F00303032B17D07B68DB68BB61FB6976
:101EB8005B00032202FA03F3DB43BA691340BB61F8
:101EC8003B689A68FB695B0002FA03F3BA6913433B
:101ED800BB617B68BA69DA603B685B6803F003033F
:101EE800022B23D1FB69DA087B68083253F82230C9
:101EF800BB61FB6903F007039B000F2202FA03F39F
:101F0800DB43BA691340BB613B681A69FB6903F09C
:101F180007039B0002FA03F3BA691343BB61FB6929
:101F2800DA087B680832B96943F822107B681B68B5
:101F3800BB61FB695B00032202FA03F3DB43BA6966
:101F48001340BB613B685B6803F00302FB695B00FD
:101F580002FA03F3BA691343BB617B68BA691A6072
:101F68003B685B6803F44033002B00F0A280002339
:101F7800FB60574B5B6C564A43F480435364544BA5
:101F88005B6C03F48043FB60FB68524AFB699B0867
:101F9800023352F82330BB61FB6903F003039B0053
:101FA8000F2202FA03F3DB43BA691340BB617B6873
:101FB800494A934219D07B68484A934213D07B68B8
:101FC800474A93420DD07B68464A934207D07B68C4
:101FD800454A934201D1042308E0072306E003237E
:101FE80004E0022302E0012300E00023FA6902F082
:101FF800030292009340BA691343BB613549FB69F8
:102008009B080233BA6941F82320384B9B68BB61AF
:102018003B69DB43BA691340BB613B685B6803F407
:102028008013002B03D0BA693B691343BB612F4A65
:10203800BB6993602D4BDB68BB613B69DB43BA69C5
:102048001340BB613B685B6803F40013002B03D0AB
:10205800BA693B691343BB61244ABB69D360234B0C
:102068005B68BB613B69DB43BA691340BB613B6892
:102078005B6803F40033002B03D0BA693B69134350
:10208800BB611A4ABB695360184B1B68BB613B694B
:10209800DB43BA691340BB613B685B6803F4803378
:1020A800002B03D0BA693B691343BB610F4ABB6974
:1020B8001360FB690133FB61FB690F2B7FF6A2AE4E
:1020C80000BF00BF2437BD465DF8047B704700BFE2
:1020D800003802400038014000000240000402407D
:1020E80000080240000C024000100240003C014081
:1020F80080B483B000AF78600B467B8013467B705A
:102108007B78002B03D07A887B689A6103E07B8810
:102118001A047B689A6100BF0C37BD465DF8047BE2
:102128007047F0B58FB00AAF78607B68002B01D19B
:1021380001230FE17B681B68BB607B6893F8BD34A3
:10214800DBB2002B06D17B68002283F8BC247868B8
:1021580006F094FE7B68032283F8BD24BB68DB6B22
:1021680003F48073002B02D17B6800221A617B681C
:102178001B68184603F06FF97B681B683B607E6834
:102188006D4606F110040FCC0FC50FCC0FC594E8AF
:10219800030085E80300331D0ECB386803F046F8CA
:1021A8000346002B05D07B68022283F8BD24012357
:1021B800D0E07B681B680021184603F05DF9002316
:1021C800FB734AE0FA7B79681346DB0013449B00F3
:1021D8000B443D3301221A70FA7B79681346DB0001
:1021E80013449B000B443C33FA7B1A70FA7BFB7B4D
:1021F80098B279681346DB0013449B000B444433C0
:1022080002461A80FA7B79681346DB0013449B0068
:102218000B44403300221A70FA7B79681346DB00BE
:1022280013449B000B44483300221A60FA7B7968F8
:102238001346DB0013449B000B444C3300221A6006
:10224800FA7B79681346DB0013449B000B44543334
:1022580000221A60FB7B0133FB73FA7B7B685B68A7
:102268009A42AFD30023FB7344E0FA7B79681346A4
:10227800DB0013449B000B4403F27D2300221A70F9
:10228800FA7B79681346DB0013449B000B4403F583
:102298001F73FA7B1A70FA7B79681346DB001344C4
:1022A8009B000B4403F5207300221A70FA7B7968AF
:1022B8001346DB0013449B000B4403F522730022F2
:1022C8001A60FA7B79681346DB0013449B000B44C1
:1022D80003F5237300221A60FA7B79681346DB0042
:1022E80013449B000B4403F5257300221A60FB7B03
:1022F8000133FB73FA7B7B685B689A42B5D37B68D2
:102308001B683B607E686D4606F110040FCC0FC554
:102318000FCC0FC594E8030085E80300331D0ECBEE
:10232800386803F0F5F80346002B05D07B680222D5
:1023380083F8BD2401230DE07B68002283F8382050
:102348007B68012283F8BD247B681B68184604F06B
:1023580044FA002318461437BD46F0BD80B584B052
:1023680000AF78607B681B68FB607B6893F8BC34BF
:10237800012B01D1022320E07B68012283F8BC24D1
:102388007B689B6A012B09D17B689B69012B05D06F
:10239800FB689B6B43F48032FB689A637B681B681D
:1023A800184603F047F87B681B68184604F0F4F9F0
:1023B8007B68002283F8BC24002318461037BD46EA
:1023C80080BD90B58DB000AF78607B681B683B62BC
:1023D8003B6AFB617B681B68184604F0B2FA034647
:1023E800002B40F08A847B681B68184604F016FAB4
:1023F8000346002B00F08084FB6903F500639B68AB
:102408001B0AC3F30D027B68C3F8FC247B681B68B6
:10241800184604F003FA034603F00203022B07D11F
:102428007B681B685A697B681B6802F002025A6164
:102438007B681B68184604F0F1F9034603F01003A3
:10244800102B61D17B681B689A697B681B6822F036
:1024580010029A613B6A1B6ABB61BB6903F00F02F9
:102468001346DB0013449B0003F51E737A6813447C
:1024780004337B61BB695B0C03F00F03022B24D18F
:10248800BA6947F6F0731340002B35D07B69196998
:10249800BB691B099BB2C3F30A039BB21A46386A8D
:1024A80004F028F87B691A69BB691B09C3F30A039E
:1024B8001A447B691A617B691A6ABB691B09C3F3F1
:1024C8000A031A447B691A6216E0BB695B0C03F0C5
:1024D8000F03062B10D17B6803F2C4430822194668
:1024E800386A04F007F87B691A6ABB691B09C3F3E9
:1024F8000A031A447B691A627B681B689A697B68BD
:102508001B6842F010029A617B681B68184604F049
:1025180085F9034603F40023B3F5002F40F0A780A4
:1025280000237B627B681B68184604F08AF9B8624E
:1025380099E0BB6A03F00103002B00F08E807B68F2
:102548001B687A6AD2B21146184604F0AEF93861AF
:102558003B6903F00103002B0CD07B6A5A01FB692D
:10256800134403F530631A4601239360796A786847
:1025780000F0C2FE3B6903F00803002B0CD07B6A15
:102588005A01FB69134403F530631A460823936024
:10259800796A786800F098FF3B6903F01003002B14
:1025A80008D07B6A5A01FB69134403F530631A4665
:1025B800102393603B6903F00203002B30D03B6A81
:1025C8005B6903F08003802B09D1FB6903F5006385
:1025D8005B68FA6902F5006243F4806353607A6AC3
:1025E8001346DB0013449B0003F51E737A681344FB
:1025F80004337B617B69DB78012B08D17B6900227E
:10260800DA707B6ADBB21946786806F033FD7B6ABC
:102618005A01FB69134403F530631A460223936099
:102628003B6903F02003002B08D07B6A5A01FB6941
:10263800134403F530631A46202393603B6903F47F
:102648000053002B09D07B6A5A01FB69134403F538
:1026580030631A464FF4005393607B6A01337B6200
:10266800BB6A5B08BB62BB6A002B7FF462AF7B6806
:102678001B68184604F0D2F8034603F48023B3F528
:10268800802F40F0DB807B681B68184604F0F3F865
:10269800B86200237B62CDE0BB6A03F00103002B24
:1026A80000F0C2807B681B687A6AD2B2114618466D
:1026B80004F019F938613B6903F00103002B57D086
:1026C8007B6A03F00F03012202FA03F3FB60FB6944
:1026D80003F500635A6BFB68DB43F96901F5006198
:1026E80013404B637B6A5A01FB69134403F510637B
:1026F8001A46012393607B681B69012B32D17968E4
:102708007A6A1346DB0013449B000B444C33196868
:1027180078687A6A1346DB0013449B000344483305
:102728001B68194478687A6A1346DB0013449B00D7
:1027380003444C3319607B6A002B13D179687A6A99
:102748001346DB0013449B000B4454331B68002BD7
:1027580008D17B6818687B6803F2C4431A460121D4
:1027680004F020F97B6ADBB21946786806F007FCAA
:102778003B6903F00803002B08D07B6A5A01FB6908
:10278800134403F510631A46082393603B6903F06A
:102798001003002B08D07B6A5A01FB69134403F528
:1027A80010631A46102393603B6903F04003002B23
:1027B80008D07B6A5A01FB69134403F510631A4673
:1027C800402393603B6903F00203002B23D0796A0E
:1027D800386A03F001F87A6A1346DB0013449B0059
:1027E80038337A68134404337B617B69DB78012BC7
:1027F80008D17B690022DA707B6ADBB219467868F7
:1028080006F04AFC7B6A5A01FB69134403F510631E
:102818001A46022393603B6903F08003002B03D020
:10282800796A786800F0DBFC7B6A01337B62BB6AFB
:102838005B08BB62BB6A002B7FF42EAF7B681B680A
:10284800184603F0EBFF034603F00043B3F1004FD3
:1028580022D1FB6903F500635B68FA6902F500623F
:1028680023F0010353607B6893F8F434012B08D1FB
:102878007B68002283F8F4240021786800F0C2FE07
:1028880002E0786806F0E8FB7B681B685A697B6899
:102898001B6802F000425A617B681B68184603F007
:1028A800BDFF034603F40063B3F5006F12D1FB6963
:1028B80003F500639B6803F00103012B02D17868DC
:1028C80006F0A4FB7B681B685A697B681B6802F4E6
:1028D80000625A617B681B68184603F09FFF034635
:1028E80003F48053B3F5805F40F0B780FB6903F5CC
:1028F80000635B68FA6902F5006223F00103536024
:102908007B681B681021184602F066FF0023FB62F3
:1029180046E0FB6A5A01FB69134403F510631A4643
:102928004FF67F339360FB6A5A01FB69134403F542
:1029380010631B68FA6A5101FA690A4402F51062C9
:1029480023F400131360FB6A5A01FB69134403F56F
:1029580030631A464FF67F339360FB6A5A01FB696E
:10296800134403F530631B68FA6A5101FA690A4493
:1029780002F5306223F400131360FB6A5A01FB6905
:10298800134403F530631B68FA6A5101FA690A4473
:1029980002F5306243F000631360FB6A0133FB62A7
:1029A8007B685B68FA6A9A42B3D3FB6903F50063F4
:1029B800DB69FA6902F5006243F00113D3617B68B1
:1029C8001B6B002B16D0FB6903F50063D3F884302A
:1029D800FA6902F5006243F00B03C2F88430FB6920
:1029E80003F500635B6CFA6902F5006243F00B03C0
:1029F800536415E0FB6903F500635B69FA6902F546
:102A0800006243F4005343F02B035361FB6903F561
:102A180000631B69FA6902F5006243F00B03136156
:102A2800FB6903F500631B68FA6902F5006223F489
:102A3800FE6313607B6818687B681B69D9B27B6882
:102A480003F2C4431A4603F0ADFF7B681B685A695A
:102A58007B681B6802F480525A617B681B681846C1
:102A680003F0DCFE034603F40053B3F5005F24D102
:102A78007B681B68184603F072FF7B681B68184662
:102A880002F027FF03461A467B68DA607B681C68F9
:102A980001F0E8F901467B68DB68DBB21A4620469C
:102AA80002F026FC786806F092FA7B681B685A697F
:102AB8007B681B6802F400525A617B681B681846E1
:102AC80003F0ACFE034603F00803082B0AD178682C
:102AD80006F06FFA7B681B685A697B681B6802F00E
:102AE80008025A617B681B68184603F097FE034684
:102AF80003F08003802B22D13B6A9B6923F080027C
:102B08003B6A9A6101237B6214E079687A6A13460A
:102B1800DB0013449B000B4403F27F231B78012B3B
:102B280005D17B6ADBB21946786800F027FB7B6A1F
:102B380001337B627B685B687A6A9A42E5D37B687B
:102B48001B68184603F06AFE034603F48013B3F5C6
:102B5800801F3BD101237B622BE07B6A5A01FB6912
:102B6800134403F510631B68BB6179687A6A1346DE
:102B7800DB0013449B000B4440331B78012B15D119
:102B8800BB69002B12DA79687A6A1346DB001344B2
:102B98009B000B443F3301221A707B6ADBB263F05F
:102BA8007F03DBB21946786800F0E8FA7B6A0133E4
:102BB8007B627B685B687A6A9A42CED37B681B68C3
:102BC8005A697B681B6802F480125A617B681B682B
:102BD800184603F023FE034603F40013B3F5001F61
:102BE80055D101237B6245E07B6A5A01FB69134496
:102BF80003F530631B68BB6179687A6A1346DB00AA
:102C080013449B000B4403F520731B78012B2ED132
:102C1800BB69002B2BDABB6903F480327B68D3F8DD
:102C2800FC3403F001039A4221D179687A6A134689
:102C3800DB0013449B000B4403F27F2301221A702C
:102C48003B6A9B6943F080023B6A9A613B6A5B6915
:102C580003F08003002B0AD1FB6903F500635B686E
:102C6800FA6902F5006243F40073536007E07B6A77
:102C780001337B627B685B687A6A9A42B4D37B686B
:102C88001B685A697B681B6802F400125A617B68EA
:102C98001B68184603F0C2FD034603F08043B3F1F6
:102CA800804F0AD1786806F009FA7B681B685A6970
:102CB8007B681B6802F080425A617B681B68184673
:102CC80003F0ACFD034603F00403042B15D17B6825
:102CD8001B685B68BB61BB6903F00403002B02D06F
:102CE800786806F0F9F97B681B6859687B681B6887
:102CF800BA690A435A6000E000BF3437BD4690BD48
:102D080080B582B000AF78600B46FB707B6893F8A3
:102D1800BC34012B01D1022313E07B68012283F824
:102D2800BC247B68FA7883F838207B681B68FA78BB
:102D38001146184603F00AFD7B68002283F8BC247C
:102D4800002318460837BD4680BD80B584B000AF63
:102D58007860084611461A460346FB700B463B80CE
:102D68001346BB700023FB7297F90330002B0FDA70
:102D7800FB7803F00F021346DB0013449B00383343
:102D88007A6813440433FB60FB6801225A700FE031
:102D9800FB7803F00F021346DB0013449B0003F596
:102DA8001E737A6813440433FB60FB6800225A7070
:102DB800FB7803F00F03DAB2FB681A703A88FB68F5
:102DC800DA60FB68BA781A71FB685B78002B04D06C
:102DD800FB681B789AB2FB681A81BB78022B02D178
:102DE800FB6800225A717B6893F8BC34012B01D12F
:102DF80002230EE07B68012283F8BC247B681B68F1
:102E0800F968184602F08AFD7B68002283F8BC2422
:102E1800FB7A18461037BD4680BD80B584B000AF38
:102E280078600B46FB7097F90330002B0FDAFB78BC
:102E380003F00F021346DB0013449B0038337A6813
:102E480013440433FB60FB6801225A700FE0FB78DF
:102E580003F00F021346DB0013449B0003F51E73B7
:102E68007A6813440433FB60FB6800225A70FB78CD
:102E780003F00F03DAB2FB681A707B6893F8BC346E
:102E8800012B01D102230EE07B68012283F8BC24C8
:102E98007B681B68F968184602F0C8FD7B68002249
:102EA80083F8BC24002318461037BD4680BD80B582
:102EB80086B000AFF8607A603B600B46FB72FB7A25
:102EC80003F00F021346DB0013449B0003F51E7347
:102ED800FA68134404337B617B697A681A617B69F9
:102EE8003A689A617B6900221A627B6900225A70EB
:102EF800FB7A03F00F03DAB27B691A70FB681B696F
:102F0800012B02D17A687B695A61FB7A03F00F03BF
:102F1800002B09D1FB681868FB681B69DBB21A46ED
:102F2800796903F0A7F808E0FB681868FB681B6973
:102F3800DBB21A46796902F055FE002318461837A5
:102F4800BD4680BD80B483B000AF78600B46FB708F
:102F5800FB7803F00F0279681346DB0013449B00EB
:102F68000B4403F527731B6818460C37BD465DF8FC
:102F7800047B704780B586B000AFF8607A603B602C
:102F88000B46FB72FB7A03F00F021346DB00134477
:102F98009B003833FA68134404337B617B697A6891
:102FA8001A617B693A689A617B6900221A627B69B7
:102FB80001225A70FB7A03F00F03DAB27B691A70A8
:102FC800FB681B69012B02D17A687B695A61FB7A1D
:102FD80003F00F03002B09D1FB681868FB681B6915
:102FE800DBB21A46796903F045F808E0FB6818680F
:102FF800FB681B69DBB21A46796902F0F3FD00230E
:1030080018461837BD4680BD80B584B000AF7860DB
:103018000B46FB70FB7803F00F027B685B689A42F3
:1030280001D9012350E097F90330002B0FDAFB7820
:1030380003F00F021346DB0013449B0038337A6811
:1030480013440433FB60FB6801225A700DE0FA78E0
:103058001346DB0013449B0003F51E737A68134480
:103068000433FB60FB6800225A70FB6801229A70E7
:10307800FB7803F00F03DAB2FB681A707B6893F8E9
:10308800BC34012B01D102231EE07B68012283F8A6
:10309800BC247B681B68F968184603F083FAFB7840
:1030A80003F00F03002B0AD17B6818687B681B6943
:1030B800D9B27B6803F2C4431A4603F073FC7B68F9
:1030C800002283F8BC24002318461037BD4680BD73
:1030D80080B584B000AF78600B46FB70FB7803F0D6
:1030E8000F027B685B689A4201D9012342E097F995
:1030F8000330002B0FDAFB7803F00F021346DB00D6
:1031080013449B0038337A6813440433FB60FB682C
:1031180001225A700FE0FB7803F00F021346DB0020
:1031280013449B0003F51E737A6813440433FB6051
:10313800FB6800225A70FB6800229A70FB7803F043
:103148000F03DAB2FB681A707B6893F8BC34012B62
:1031580001D102230EE07B68012283F8BC247B683E
:103168001B68F968184603F08BFA7B68002283F81D
:10317800BC24002318461037BD4680BD80B584B0F6
:1031880000AF78600B46FB7097F90330002B0CDA20
:10319800FB7803F00F021346DB0013449B0038331F
:1031A8007A6813440433FB600CE0FB7803F00F02E9
:1031B8001346DB0013449B0003F51E737A6813441F
:1031C8000433FB607B681B68F968184603F0AAF8AB
:1031D8000346FB72FB7A18461037BD4680BD80B5A2
:1031E8008AB002AF786039607B681B687B617B6955
:1031F8003B613A681346DB0013449B0038337A6816
:1032080013440433FB60FB681A6AFB689B699A42A3
:1032180001D901236CE0FB689A69FB681B6AD31A21
:10322800FB61FB68DB68FA699A4202D9FB68DB68D4
:10323800FB61FB6903339B08BB612BE0FB689A6960
:10324800FB681B6AD31AFB61FB68DB68FA699A4260
:1032580002D9FB68DB68FB61FB6903339B08BB6130
:10326800FB6819693B68DAB2FB6998B27B681B692D
:10327800DBB200930346786903F0FEF8FB681A692D
:10328800FB691A44FB681A61FB681A6AFB691A44ED
:10329800FB681A623B685A013B69134403F51063E3
:1032A8009B699BB2BA699A4209D8FB681A6AFB689B
:1032B8009B699A4203D2FB689B69002BBED1FB68CD
:1032C8009A69FB681B6A9A4211D83B6803F00F039E
:1032D800012202FA03F3BB603B6903F500635A6BF2
:1032E800BB68DB43396901F5006113404B63002378
:1032F80018462037BD4680BD80B588B000AF7860DD
:1033080039607B681B68FB61FB69BB61FB693C3307
:1033180004331B687B613B685A01BB69134403F59E
:1033280030639B683B617B681B69012B7BD13B69E0
:1033380003F00803002B15D07B69614A934240F2E1
:10334800B9803B6903F40043002B00F0B3803B686D
:103358005A01BB69134403F530631A464FF400431E
:103368009360A7E03B6903F02003002B09D03B687A
:103378005A01BB69134403F530631A46202393604E
:1033880098E03B6903F02803002B40F093807B69A9
:103398004B4A93420FD93B6903F40043002B0AD0F0
:1033A8003B685A01BB69134403F530631A464FF46E
:1033B800004393607EE03A681346DB0013449B00A9
:1033C80003F51E737A6813440433FB60FB68DA69FB
:1033D8003B685901BB690B4403F530631B69C3F3B0
:1033E8001203D21AFB681A623B68002B14D1FB68DF
:1033F8009B69002B09D17B6818687B6803F2C4437A
:103408001A46012103F0CEFA06E0FB681A69FB6848
:103418001B6A1A44FB681A613B68DBB21946786874
:1034280005F092FD46E07B69264A934224D13B6928
:1034380003F40043002B0AD03B685A01BB691344CC
:1034480003F530631A464FF40043936032E03B695A
:1034580003F02003002B08D03B685A01BB691344D2
:1034680003F530631A46202393603B68DBB21946A4
:10347800786805F069FD1DE03B68002B14D1796878
:103488003A681346DB0013449B000B4403F525738D
:103498001B68002B08D17B6818687B6803F2C4435B
:1034A8001A46002103F07EFA3B68DBB219467868B9
:1034B80005F04AFD002318462037BD4680BD00BFF1
:1034C8000A30544F0A31544F80B586B000AF786047
:1034D80039607B681B687B617B693B617B693C3336
:1034E80004331B68FB603B685A013B69134403F5CE
:1034F80030639B68BB60FB68154A93420ED9BB6872
:1035080003F40043002B09D03B685A013B6913447C
:1035180003F530631A464FF400439360786805F06A
:1035280001FDFB680A4A93420CD97B681B69012B91
:1035380008D17B6818687B6803F2C4431A460121E6
:1035480003F030FA002318461837BD4680BD00BF87
:103558000A30544F80B485B000AF78600B46FB70DA
:1035680013463B807B681B685B6ABB60FB78002B5B
:1035780007D13B8819047B681B68BA680A439A62BA
:1035880028E07B681B689B6A1B0CBA681344BB6005
:103598000023FB730DE07B681A68FB7B40339B00BC
:1035A80013445B681B0CBA681344BB60FB7B013394
:1035B800FB73FA7BFB78013B9A42ECD33B881804F7
:1035C8007B681968FB78013BBA68024340339B006B
:1035D8000B445A60002318461437BD465DF8047B37
:1035E800704780B483B000AF78600B467B807B68FF
:1035F8001B687A885A62002318460C37BD465DF866
:10360800047B704780B483B000AF78600B46FB70D2
:1036180000BF0C37BD465DF8047B704780B586B0A7
:1036280000AF78607B68002B01D1012367E27B68DB
:103638001B6803F00103002B75D0884B9B6803F0CF
:103648000C03042B0CD0854B9B6803F00C03082B50
:1036580012D1824B5B6803F48003B3F5800F0BD162
:103668007E4B1B6803F40033002B5BD07B685B68E0
:10367800002B57D1012342E27B685B68B3F5803F9A
:1036880006D1764B1B68754A43F4803313601DE0FE
:103698007B685B68B3F5A02F0CD1704B1B686F4A31
:1036A80043F4802313606D4B1B686C4A43F48033EA
:1036B80013600BE0694B1B68684A23F4803313607E
:1036C800664B1B68654A23F4802313607B685B683C
:1036D800002B13D0FEF746FA386108E0FEF742FAED
:1036E80002463B69D31A642B01D9032307E25B4BDB
:1036F8001B6803F40033002BF0D014E0FEF732FA15
:10370800386108E0FEF72EFA02463B69D31A642BAB
:1037180001D90323F3E1514B1B6803F40033002B59
:10372800F0D100E000BF7B681B6803F00203002BA8
:1037380063D04A4B9B6803F00C03002B0BD0474B1C
:103748009B6803F00C03082B1CD1444B5B6803F403
:103758008003002B16D1414B1B6803F00203002B9A
:1037680005D07B68DB68012B01D00123C7E13B4B07
:103778001B6823F0F8027B681B69DB003749134399
:103788000B603AE07B68DB68002B20D0344B0122C9
:103798001A60FEF7E7F9386108E0FEF7E3F9024638
:1037A8003B69D31A022B01D90323A8E12B4B1B68D1
:1037B80003F00203002BF0D0284B1B6823F0F8021B
:1037C8007B681B69DB00254913430B6015E0244B1C
:1037D80000221A60FEF7C6F9386108E0FEF7C2F960
:1037E80002463B69D31A022B01D9032387E11B4BFD
:1037F8001B6803F00203002BF0D17B681B6803F001
:103808000803002B36D07B685B69002B16D0154B5C
:1038180001221A60FEF7A6F9386108E0FEF7A2F95E
:1038280002463B69D31A022B01D9032367E10B4BEC
:103838005B6F03F00203002BF0D01BE0094B002262
:103848001A60FEF78FF938610EE0FEF78BF9024631
:103858003B69D31A022B07D9032350E100380240F1
:1038680000004742800E4742884B5B6F03F002031B
:10387800002BEAD17B681B6803F00403002B00F0DF
:1038880097800023FB75814B1B6C03F08053002B42
:103898000FD10023BB607D4B1B6C7C4A43F08053E7
:1038A80013647A4B1B6C03F08053BB60BB68012325
:1038B800FB75774B1B6803F48073002B18D1744B8E
:1038C8001B68734A43F480731360FEF74BF9386141
:1038D80008E0FEF747F902463B69D31A022B01D9E3
:1038E80003230CE16A4B1B6803F48073002BF0D0B0
:1038F8007B689B68012B06D1644B1B6F634A43F0BE
:10390800010313671CE07B689B68052B0CD15F4B98
:103918001B6F5E4A43F0040313675C4B1B6F5B4AE3
:1039280043F0010313670BE0584B1B6F574A23F012
:1039380001031367554B1B6F544A23F004031367A5
:103948007B689B68002B15D0FEF70CF938610AE0FC
:10395800FEF708F902463B69D31A41F288329342CE
:1039680001D90323CBE0494B1B6F03F00203002B63
:10397800EED014E0FEF7F6F838610AE0FEF7F2F848
:1039880002463B69D31A41F28832934201D9032394
:10399800B5E03E4B1B6F03F00203002BEED1FB7D1D
:1039A800012B05D1394B1B6C384A23F08053136423
:1039B8007B689B69002B00F0A180344B9B6803F067
:1039C8000C03082B5CD07B689B69022B41D1314BDF
:1039D80000221A60FEF7C6F8386108E0FEF7C2F860
:1039E80002463B69D31A022B01D9032387E0274BF0
:1039F8001B6803F00073002BF0D17B68DA697B68E1
:103A08001B6A1A437B685B6A9B011A437B689B6A43
:103A18005B08013B1B041A437B68DB6A1B061B49D6
:103A280013434B601B4B01221A60FEF79BF8386169
:103A380008E0FEF797F802463B69D31A022B01D932
:103A480003235CE0114B1B6803F00073002BF0D0DC
:103A580054E0104B00221A60FEF784F8386108E041
:103A6800FEF780F802463B69D31A022B01D90323DB
:103A780045E0064B1B6803F00073002BF0D13DE0D6
:103A88007B689B69012B07D1012338E0003802408D
:103A980000700040600047421B4B5B68FB607B681E
:103AA8009B69012B28D0FB6803F480027B68DB69E3
:103AB8009A4221D1FB6803F03F027B681B6A9A4255
:103AC8001AD1FA6847F6C07313407A68526A9201AD
:103AD800934211D1FB6803F440327B689B6A5B0810
:103AE800013B1B049A4207D1FB6803F070627B68B4
:103AF800DB6A1B069A4201D0012300E00023184626
:103B08001837BD4680BD00BF0038024080B584B07C
:103B180000AF786039607B68002B01D10123CCE0CD
:103B2800684B1B6803F007033A689A420CD9654B47
:103B38003A68D2B21A70634B1B6803F007033A68FD
:103B48009A4201D00123B8E07B681B6803F00203A6
:103B5800002B20D07B681B6803F00403002B05D0E2
:103B6800594B9B68584A43F4E05393607B681B6841
:103B780003F00803002B05D0534B9B68524A43F4CB
:103B880060439360504B9B6823F0F0027B689B680E
:103B98004D4913438B607B681B6803F00103002BBE
:103BA80044D07B685B68012B07D1474B1B6803F443
:103BB8000033002B19D101237FE07B685B68022B5F
:103BC80003D07B685B68032B07D13F4B1B6803F06E
:103BD8000073002B09D101236FE03B4B1B6803F0F6
:103BE8000203002B01D1012367E0374B9B6823F0C8
:103BF80003027B685B68344913438B60FDF7B2FFAF
:103C0800F8600AE0FDF7AEFF0246FB68D31A41F2FE
:103C18008832934201D903234FE02B4B9B6803F072
:103C28000C027B685B689B009A42EBD1254B1B68B2
:103C380003F007033A689A420CD2224B3A68D2B290
:103C48001A70204B1B6803F007033A689A4201D0A8
:103C5800012332E07B681B6803F00403002B08D0C3
:103C6800194B9B6823F4E0527B68DB6816491343C1
:103C78008B607B681B6803F00803002B09D0124B8C
:103C88009B6823F460427B681B69DB000E49134381
:103C98008B6000F021F802460B4B9B681B0903F070
:103CA8000F030A49CB5C22FA03F3094A1360094B54
:103CB8001B681846FDF712FF002318461037BD464B
:103CC80080BD00BF003C024000380240EC9600086E
:103CD80014000020180000202DE9B04F90B000AF6C
:103CE80000237B630023FB6300233B630023BB6348
:103CF800594B9B6803F00C03082B0DD0082B00F2DE
:103D0800A180002B02D0042B03D09BE0534BBB6354
:103D18009BE0534BBB6398E04F4B5B6803F03F035A
:103D28007B634D4B5B6803F48003002B28D04A4B20
:103D38005B689B0900223B627A623B6AC3F3080016
:103D48000021474B03FB01F2002300FB03F313445C
:103D5800434AA0FB0212FA620A46BA62FA6A13449C
:103D6800FB627B6B0022BB61FA61D7E90623D7E9C6
:103D78000A01FCF709FC02460B461346FB6353E0B5
:103D8800354B5B689B0900223B617A613B69C3F351
:103D9800080A4FF0000B52465B464FF000004FF008
:103DA8000001590141EAD261500102460B46B2EBCB
:103DB8000A0863EB0B094FF000024FF000034FEACB
:103DC800891343EA98634FEA8812B2EB080463EB5D
:103DD80009054FF000024FF00003EB0043EA54736B
:103DE800E20014461D4614EB0A033B6045EB0B0347
:103DF8007B604FF000024FF00003D7E900452946E9
:103E08008B02214643EA915321468A0210461946FD
:103E18007B6B0022BB60FA60D7E90223FCF7B4FB96
:103E280002460B461346FB630B4B5B681B0C03F007
:103E3800030301335B003B63FA6B3B6BB2FBF3F3A9
:103E4800BB6302E0054BBB6300BFBB6B1846403742
:103E5800BD46BDE8B08F00BF003802400024F40022
:103E680040787D0180B400AF034B1B681846BD46FF
:103E78005DF8047B704700BF1400002080B500AFD8
:103E8800FFF7F0FF0246054B9B689B0A03F0070308
:103E98000349CB5C22FA03F3184680BD0038024080
:103EA800FC96000880B500AFFFF7DCFF0246054B23
:103EB8009B685B0B03F007030349CB5C22FA03F30F
:103EC800184680BD00380240FC96000880B582B0D4
:103ED80000AF78607B68002B01D101237BE07B6811
:103EE8005B6A002B08D17B685B68B3F5827F09D0D9
:103EF8007B680022DA6105E07B6800221A617B6832
:103F080000225A617B6800229A627B6893F85130DC
:103F1800DBB2002B06D17B68002283F8502078683A
:103F2800FDF718FB7B68022283F851207B681B6829
:103F38001A687B681B6822F040021A607B685B681D
:103F480003F482727B689B6803F404431A437B681A
:103F5800DB6803F400631A437B681B6903F0020300
:103F68001A437B685B6903F001031A437B689B690A
:103F780003F400731A437B68DB6903F038031A43C0
:103F88007B681B6A03F0800342EA03017B689B6A33
:103F980003F400527B681B680A431A607B689B69BC
:103FA8001B0C03F004017B685B6A03F010027B685A
:103FB8001B680A435A607B681B68DA697B681B6860
:103FC80022F40062DA617B6800225A657B6801226C
:103FD80083F85120002318460837BD4680BD80B5B8
:103FE80088B000AFF860B9603B601346FB800023DF
:103FF800FB77FB6893F85030012B01D1022326E1AF
:10400800FB68012283F85020FDF7ACFDB861FB88FE
:10401800FB82FB6893F85130DBB2012B02D00223FC
:10402800FB770BE1BB68002B02D0FB88002B02D189
:104038000123FB7702E1FB68032283F85120FB6828
:1040480000225A65FB68BA681A63FB68FA889A8680
:10405800FB68FA88DA86FB6800229A63FB6800220C
:104068009A87FB680022DA87FB6800225A64FB689B
:1040780000221A64FB689B68B3F5004F0FD1FB68F8
:104088001B681A68FB681B6822F040021A60FB680C
:104098001B681A68FB681B6842F480421A60FB6858
:1040A8001B681B6803F04003402B07D0FB681B68A4
:1040B8001A68FB681B6842F040021A60FB68DB68FC
:1040C800B3F5006F4BD1FB685B68002B02D0FB8A0D
:1040D800012B3ED1FB681B6B1A88FB681B68DA60F2
:1040E800FB681B6B9A1CFB681A63FB68DB8E9BB230
:1040F800013B9AB2FB68DA862BE0FB681B689B6879
:1041080003F00203022B12D1FB681B6B1A88FB68B1
:104118001B68DA60FB681B6B9A1CFB681A63FB68F8
:10412800DB8E9BB2013B9AB2FB68DA8611E0FDF7A1
:1041380019FD0246BB69D31A3A689A4203D83B680C
:10414800B3F1FF3F02D13B68002B02D10323FB7779
:1041580074E0FB68DB8E9BB2002BCED14CE0FB6891
:104168005B68002B02D0FB8A012B40D1FB681A6BDD
:10417800FB681B680C3312781A70FB681B6B5A1C9F
:10418800FB681A63FB68DB8E9BB2013B9AB2FB6843
:10419800DA862CE0FB681B689B6803F00203022B9D
:1041A80013D1FB681A6BFB681B680C3312781A7002
:1041B800FB681B6B5A1CFB681A63FB68DB8E9BB29F
:1041C800013B9AB2FB68DA8611E0FDF7CBFC0246A8
:1041D800BB69D31A3A689A4203D83B68B3F1FF3FE8
:1041E80002D13B68002B02D10323FB7726E0FB6852
:1041F800DB8E9BB2002BCDD1BA693968F86800F024
:10420800B3F80346002B02D0FB6820225A65FB68EE
:104218009B68002B0AD100233B61FB681B68DB68A5
:104228003B61FB681B689B683B613B69FB685B6D96
:10423800002B02D00123FB7700E000BFFB680122BE
:1042480083F85120FB68002283F85020FB7F184632
:104258002037BD4680BD000080B588B000AFF8604B
:10426800B9603B601346FB71FDF77CFC0246BB6AF4
:104278009B1A3A681344FB61FDF774FCB861394B2B
:104288001B685B011B0DFA6902FB03F37B6154E0B9
:104298003B68B3F1FF3F50D0FDF764FC0246BB69B1
:1042A800D31AFA699A4202D9FB69002B3DD1FB68FF
:1042B8001B685A68FB681B6822F0E0025A60FB68BA
:1042C8005B68B3F5827F11D1FB689B68B3F5004F3B
:1042D80004D0FB689B68B3F5806F07D1FB681B6847
:1042E8001A68FB681B6822F040021A60FB689B6A28
:1042F800B3F5005F0FD1FB681B681A68FB681B6881
:1043080022F400521A60FB681B681A68FB681B6875
:1043180042F400521A60FB68012283F85120FB68BE
:10432800002283F85020032317E07B69002B01D17A
:104338000023FB617B69013B7B61FB681B689A6812
:10434800BB681340BA689A420CBF01230023DBB252
:104358001A46FB799A429BD1002318462037BD465E
:1043680080BD00BF1400002080B588B002AFF8609F
:10437800B9607A601B4B1B681B4AA2FB03235B0DC9
:104388004FF47A7202FB03F37B61FB685B68B3F559
:10439800827F12D17B680093BB6800228021F86875
:1043A800FFF75AFF0346002B16D0FB685B6D43F0FE
:1043B8002002FB685A6503230FE07B69002B0AD0B3
:1043C8007B69013B7B61FB681B689B6803F080038A
:1043D800802BF2D000E000BF002318461837BD46F6
:1043E80080BD00BF14000020819F5E1680B582B09A
:1043F80000AF78607B68002B01D1012341E07B6826
:1044080093F83D30DBB2002B06D17B68002283F89D
:104418003C207868FDF7C2F97B68022283F83D20CA
:104428007B681A687B6804331946104600F088FADE
:104438007B68012283F846207B68012283F83E20AE
:104448007B68012283F83F207B68012283F84020A3
:104458007B68012283F841207B68012283F842208F
:104468007B68012283F843207B68012283F844207B
:104478007B68012283F845207B68012283F83D2070
:10448800002318460837BD4680BD000080B485B0BB
:1044980000AF78607B6893F83D30DBB2012B01D028
:1044A800012344E07B68022283F83D207B681B6877
:1044B800DA687B681B6842F00102DA607B681B6877
:1044C8001E4A934218D07B681B68B3F1804F13D003
:1044D8007B681B681A4A93420ED07B681B68194A8E
:1044E800934209D07B681B68174A934204D07B68C3
:1044F8001B68164A934211D17B681B689B6803F0BE
:104508000703FB60FB68062B10D07B681B681A68E2
:104518007B681B6842F001021A6007E07B681B6831
:104528001A687B681B6842F001021A60002318466B
:104538001437BD465DF8047B704700BF000001409A
:104548000004004000080040000C0040004001400A
:1045580080B582B000AF78607B681B681B6903F088
:104568000203022B22D17B681B68DB6803F002037D
:10457800022B1BD17B681B686FF002021A617B68F3
:1045880001221A777B681B689B6903F00303002BE1
:1045980003D0786800F0B5F905E0786800F0A7F96D
:1045A800786800F0B8F97B6800221A777B681B6886
:1045B8001B6903F00403042B22D17B681B68DB68AA
:1045C80003F00403042B1BD17B681B686FF0040203
:1045D8001A617B6802221A777B681B689B6903F45F
:1045E8004073002B03D0786800F08BF905E07868F9
:1045F80000F07DF9786800F08EF97B6800221A7760
:104608007B681B681B6903F00803082B22D17B68B1
:104618001B68DB6803F00803082B1BD17B681B6849
:104628006FF008021A617B6804221A777B681B689E
:10463800DB6903F00303002B03D0786800F061F90D
:1046480005E0786800F053F9786800F064F97B6851
:1046580000221A777B681B681B6903F01003102B74
:1046680022D17B681B68DB6803F01003102B1BD179
:104678007B681B686FF010021A617B6808221A7742
:104688007B681B68DB6903F44073002B03D07868F0
:1046980000F037F905E0786800F029F9786800F04B
:1046A8003AF97B6800221A777B681B681B6903F05C
:1046B8000103012B0ED17B681B68DB6803F0010343
:1046C800012B07D17B681B686FF001021A617868BB
:1046D800FCF78AFE7B681B681B6903F08003802B4C
:1046E8000ED17B681B68DB6803F08003802B07D141
:1046F8007B681B686FF080021A61786800F0B2FA74
:104708007B681B681B6903F04003402B0ED17B6854
:104718001B68DB6803F04003402B07D17B681B68EC
:104728006FF040021A61786800F0FFF87B681B6838
:104738001B6903F02003202B0ED17B681B68DB6804
:1047480003F02003202B07D17B681B686FF0200241
:104758001A61786800F07CFA00BF0837BD4680BD52
:1047680080B584B000AF786039600023FB737B6844
:1047780093F83C30012B01D10223B4E07B6801227D
:1047880083F83C207B68022283F83D207B681B6805
:104798009B68BB60BB6823F07703BB60BB6823F4EE
:1047A8007F43BB607B681B68BA689A603B681B687C
:1047B800B3F5005F3ED0B3F5005F00F28780B3F534
:1047C800805F00F08680B3F5805F7FD8702B1AD0A9
:1047D800702B7BD8602B50D0602B77D8502B3CD0D7
:1047E800502B73D8402B58D0402B6FD8302B64D027
:1047F800302B6BD8202B60D0202B67D8002B5CD0B7
:10480800102B5AD062E07B6818683B6899683B684F
:104818005A683B68DB6800F08DF97B681B689B6809
:10482800BB60BB6843F07703BB607B681B68BA68F2
:104838009A604FE07B6818683B6899683B685A68DB
:104848003B68DB6800F076F97B681B689A687B68D0
:104858001B6842F480429A603CE07B6818683B68B9
:1048680059683B68DB681A4600F0EAF87B681B6801
:104878005021184600F043F92CE07B6818683B6823
:1048880059683B68DB681A4600F009F97B681B68C1
:104898006021184600F033F91CE07B6818683B6813
:1048A80059683B68DB681A4600F0CAF87B681B68E1
:1048B8004021184600F023F90CE07B681A683B6831
:1048C8001B681946104600F01AF903E00123FB7330
:1048D80000E000BF7B68012283F83D207B6800224E
:1048E80083F83C20FB7B18461037BD4680BD80B45A
:1048F80083B000AF786000BF0C37BD465DF8047B1D
:10490800704780B483B000AF786000BF0C37BD46F5
:104918005DF8047B704780B483B000AF786000BF57
:104928000C37BD465DF8047B704780B483B000AF98
:10493800786000BF0C37BD465DF8047B7047000007
:1049480080B485B000AF786039607B681B68FB6015
:104958007B68344A93420FD07B68B3F1804F0BD009
:104968007B68314A934207D07B68304A934203D030
:104978007B682F4A934208D1FB6823F07003FB60E1
:104988003B685B68FA681343FB607B68254A93427F
:104998001BD07B68B3F1804F17D07B68224A9342C3
:1049A80013D07B68214A93420FD07B68204A9342F8
:1049B8000BD07B681F4A934207D07B681E4A9342FC
:1049C80003D07B681D4A934208D1FB6823F44073E7
:1049D800FB603B68DB68FA681343FB60FB6823F005
:1049E80080023B685B691343FB607B68FA681A6066
:1049F8003B689A687B68DA623B681A687B689A62E7
:104A08007B68084A934203D13B681A697B681A633A
:104A18007B6801225A6100BF1437BD465DF8047BEC
:104A2800704700BF0000014000040040000800403B
:104A3800000C004000400140004401400048014093
:104A480080B487B000AFF860B9607A60FB681B6A11
:104A58007B61FB681B6A23F00102FB681A62FB6832
:104A68009B693B613B6923F0F0033B617B681B0159
:104A78003A6913433B617B6923F00A037B617A69D6
:104A8800BB6813437B61FB683A699A61FB687A6982
:104A98001A6200BF1C37BD465DF8047B704780B4BE
:104AA80087B000AFF860B9607A60FB681B6A23F0D2
:104AB8001002FB681A62FB689B697B61FB681B6AD2
:104AC8003B617B6923F470437B617B681B037A69D4
:104AD80013437B613B6923F0A0033B61BB681B0167
:104AE8003A6913433B61FB687A699A61FB683A69E2
:104AF8001A6200BF1C37BD465DF8047B704780B45E
:104B080085B000AF786039607B689B68FB60FB68A4
:104B180023F07003FB603A68FB68134343F0070314
:104B2800FB607B68FA689A6000BF1437BD465DF881
:104B3800047B704780B487B000AFF860B9607A60D2
:104B48003B60FB689B687B617B6923F47F437B61E7
:104B58003B681A027B681A43BB6813437A6913439C
:104B68007B61FB687A699A6000BF1C37BD465DF8B7
:104B7800047B704780B485B000AF786039607B688B
:104B880093F83C30012B01D1022350E07B680122CD
:104B980083F83C207B68022283F83D207B681B68F1
:104BA8005B68FB607B681B689B68BB60FB6823F0E5
:104BB8007003FB603B681B68FA681343FB607B6803
:104BC8001B68FA685A607B681B681C4A934218D0B5
:104BD8007B681B68B3F1804F13D07B681B68184A49
:104BE80093420ED07B681B68164A934209D07B68B3
:104BF8001B68154A934204D07B681B68134A93428A
:104C08000CD1BB6823F08003BB603B685B68BA6863
:104C18001343BB607B681B68BA689A607B68012293
:104C280083F83D207B68002283F83C200023184647
:104C38001437BD465DF8047B704700BF0000014093
:104C48000004004000080040000C00400040014003
:104C580080B483B000AF786000BF0C37BD465DF804
:104C6800047B704780B483B000AF786000BF0C3716
:104C7800BD465DF8047B704780B582B000AF7860B0
:104C88007B68002B01D1012333E07B6893F83D302A
:104C9800DBB2002B06D17B68002283F83C207868C1
:104CA800FCF7C0FD7B68022283F83D20786800F09D
:104CB80025F87B681B681A697B681B6822F48042A8
:104CC8001A617B681B685A697B681B6822F02A0294
:104CD8005A617B681B68DA687B681B6842F400527B
:104CE800DA607B6800221A647B68012283F83D2021
:104CF800002318460837BD4680BD00002DE9B04F97
:104D0800C6B000AFC7F80C010023C7F81431D7F8B4
:104D18000C311B68D968D7F80C311A6821F00C03DC
:104D2800D360D7F80C311B681B69C7F81431D7F862
:104D3800143123F47C53C7F81431D7F80C319A692D
:104D4800D7F80C31DB691A43D7F80C311B6A1A43C0
:104D5800D7F80C31DB681A43D7F81431134343F4FE
:104D68000063C7F81431D7F80C311A68D7F8143132
:104D78001361D7F80C311B68DB68C7F81431D7F812
:104D8800143123F4164323F00C03C7F81431D7F871
:104D98000C319A68D7F80C311B691A43D7F80C31D3
:104DA8005B691A43D7F81431134343F40043C7F837
:104DB8001431D7F80C311A68D7F81431D360D7F802
:104DC8000C311B685969D7F80C311A6821F4407303
:104DD8005361D7F80C311A688B4B9A4206D0D7F832
:104DE8000C311A68894B9A4240F01481FFF75AF83F
:104DF800C7F81001D7F810310022C7F80031C7F8FA
:104E08000421D7E9404522462B46911839675B4172
:104E18007B67D7E91C23214612EB0108294643EB9F
:104E280001094FF000024FF000034FEAC90343EABB
:104E380058734FEAC80290469946234618EB030375
:104E4800C7F8F8302B4649EB0303C7F8FC30D7F80E
:104E58000C315B680022C7F8F030C7F8F420D7E9B6
:104E68003C120B46DB18BB66134642EB0303FB669A
:104E7800D7E91A23D7E93E01FBF786FB02460B4622
:104E8800634BA3FB02235B091C01D7F810310022F6
:104E9800C7F8E830C7F8EC20D7E93A8942464B46CC
:104EA800911839665B417B66D7E91823414651184A
:104EB800B96549464B41FB654FF000024FF00003CE
:104EC800D7E916AB5946CB00514643EA51735146D0
:104ED800CA0010461946034642469B18C7F8E030F8
:104EE8004B460A4642EB0303C7F8E430D7F80C31C7
:104EF8005B680022C7F8D830C7F8DC20D7E936123B
:104F08000B46DB183B65134642EB03037B65D7E989
:104F18001423D7E93801FBF737FB02460B46114645
:104F28003B4BA3FB01235B09642202FB03F3CB1A6F
:104F3800DB0003F13202364BA3FB02235B095B0063
:104F480003F4F8731C44D7F810310022C7F8D030A6
:104F5800C7F8D420D7E9348942464B469118B9643A
:104F68005B41FB64D7E9122341465118396449462D
:104F78004B417B644FF000024FF00003D7E910ABC0
:104F88005946CB00514643EA51735146CA00104670
:104F98001946034642469B18C7F8C8304B460A468E
:104FA80042EB0303C7F8CC30D7F80C315B6800221A
:104FB800C7F8C030C7F8C420D7E930120B46DB1851
:104FC800BB63134642EB0303FB63D7E90E23D7E920
:104FD8003201FBF7D9FA02460B460D4BA3FB02132D
:104FE8005B09642101FB03F3D31ADB003233084A5F
:104FF800A2FB03235B0903F00702D7F80C311B68F7
:1050080022449A6009E100BF0010014000140140E9
:105018001F85EB51FEF732FFC7F81001D7F81031A2
:105028000022C7F8B830C7F8BC20D7E92E89424615
:105038004B46911839635B417B63D7E90C234146A2
:105048005418494643EB01054FF000024FF00003A6
:10505800EB0043EA5473E20014461D464346E31846
:10506800C7F8B0304B4645EB0303C7F8B430D7F860
:105078000C315B680022C7F8A830C7F8AC20D7E924
:105088002A120B46DB18BB62134642EB0303FB6292
:10509800D7E90A23D7E92C01FBF776FA02460B4633
:1050A800614BA3FB02235B091C01D7F810310022D6
:1050B800C7F8A030C7F8A420D7E9288942464B464C
:1050C800911839625B417B62D7E90823414612EBAC
:1050D800010A494643EB010B4FF000024FF0000371
:1050E8004FEACB0343EA5A734FEACA0292469B46F9
:1050F80043461AEB0303C7F898304B464BEB0303C0
:10510800C7F89C30D7F80C315B680022C7F890309C
:10511800C7F89420D7E924120B46DB18BB61134665
:1051280042EB0303FB61D7E90623D7E92601FBF726
:105138002BFA02460B4611463B4BA3FB01235B09A6
:10514800642202FB03F3CB1ADB0003F13202364B75
:10515800A3FB02235B095B0003F4F8731C44D7F834
:1051680010310022C7F88830C7F88C20D7E9228987
:1051780042464B46911839615B417B61D7E904236C
:1051880041465118B96049464B41FB604FF0000257
:105198004FF00003D7E902AB5946CB00514643EA2A
:1051A80051735146CA0010461946034642469B1899
:1051B800C7F880304B460A4642EB0303C7F88430F1
:1051C800D7F80C315B680022BB67FA67D7E91E1273
:1051D8000B46DB183B60134642EB03037B60D7E9C1
:1051E8000023D7E92001FBF7CFF902460B460E4B07
:1051F800A3FB02135B09642101FB03F3D31ADB0051
:105208003233094AA2FB03235B0903F00702D7F8EC
:105218000C311B6822449A6000BF00BF07F58C77E9
:10522800BD46BDE8B08F00BF1F85EB5184B080B587
:1052380084B000AF786007F11C0080E80E003B6B7B
:10524800012B22D17B689B6B23F480327B689A63A5
:105258007B68DB6823F4840323F040037A68D36017
:105268007B68DB6823F440127B68DA60FB6C012BF7
:1052780005D17B68DB6843F480127B68DA60786864
:1052880001F0EEFB0346FB731AE07B68DB6843F032
:1052980040027B68DA60786801F0E2FB0346FB7342
:1052A8003B6C002B06D17B689B6B43F480327B6898
:1052B8009A6305E07B689B6B23F480327B689A6372
:1052C800BB6A012B0BD17B689B6843F006027B68A5
:1052D8009A607B689B6843F020027B689A60FB7B3E
:1052E80018461037BD46BDE8804004B0704700003E
:1052F80080B487B000AFF860B9601346FB71FB79E2
:10530800022B65D1BB68414A934206D9BB68404A23
:10531800934202D20F237B6162E0BB683C4A93420E
:1053280006D3BB683B4A934202D20E237B6157E007
:10533800BB68384A934206D3BB68374A934202D2C5
:105348000D237B614CE0BB68334A934206D3BB68AC
:10535800324A934202D80C237B6141E0BB682F4A52
:10536800934206D9BB682E4A934202D80B237B612D
:1053780036E0BB682A4A934206D9BB68294A934259
:1053880002D80A237B612BE0BB68264A934206D9E0
:10539800BB68254A934202D209237B6120E0BB689F
:1053A800214A934206D3BB68204A934202D8082375
:1053B8007B6115E0BB681D4A934206D9BB681C4A4D
:1053C800934202D207237B610AE006237B6107E050
:1053D800FB79002B02D109237B6101E009237B6162
:1053E800FB68DB6823F47052FB68DA60FB68DA68F4
:1053F8007B699B0203F470531A43FB68DA6000234D
:1054080018461C37BD465DF8047B7047BFACD80012
:10541800C0E1E4000024F400807306019F491A01EA
:10542800FF2C31013FA44C0100366E011FABA601D1
:105438000048E80180B483B000AF78607B689B685F
:1054480043F001027B689A60002318460C37BD467A
:105458005DF8047B704780B483B000AF78607B68E8
:105468009B6823F001027B689A60002318460C377A
:10547800BD465DF8047B704780B584B000AF7860A6
:105488000B46FB700023FB607B68DB6823F0C0429F
:105498007B68DA60FB78012B15D17B68DB6843F009
:1054A80000527B68DA600120FCF768FBFB68013377
:1054B800FB60786801F045FA0346012B1ED0FB68B3
:1054C800312BF0D91AE0FB78002B15D17B68DB680B
:1054D80043F080427B68DA600120FCF74FFBFB68F1
:1054E8000133FB60786801F02CFA0346002B05D0E5
:1054F800FB68312BF0D901E0012305E0FB68322B72
:1055080001D1012300E0002318461037BD4680BDB5
:1055180084B080B586B000AF786007F1240080E8D9
:105528000E000023FB757B68FB6000233B6109E0EC
:105538007A683B6940339B00134400225A603B69F8
:1055480001333B613B690E2BF2D9FB6C002B1CD15C
:10555800FB6803F500635B68FA6802F5006243F0D4
:10556800020353607B689B6B43F400127B689A6369
:105578007B689B6B23F400227B689A637B689B6B38
:1055880023F480227B689A630BE07B689B6B23F48F
:1055980000127B689A637B689B6B43F400227B68EC
:1055A8009A63FB6803F560631A4600231360FB687F
:1055B80003F500631946FB6803F500631A460B6898
:1055C8001360BB6B012B0CD1FB6A002B04D10021AB
:1055D800786800F065F908E00121786800F060F962
:1055E80003E00321786800F05BF91021786800F087
:1055F800F3F80346002B01D00123FB75786800F00F
:105608001FF90346002B01D00123FB75FB6803F546
:1056180000631A4600231361FB6803F500631A460A
:1056280000235361FB6803F500631A460023D36126
:1056380000233B6143E03B695A01FB68134403F5CF
:1056480010631B6803F00043B3F1004F18D13B69A6
:10565800002B0AD13B695A01FB68134403F5106318
:105668001A464FF00063136013E03B695A01FB6868
:10567800134403F510631A464FF09043136008E093
:105688003B695A01FB68134403F510631A4600236B
:1056980013603B695A01FB68134403F510631A460B
:1056A800002313613B695A01FB68134403F5106337
:1056B8001A464FF67F3393603B6901333B617B6A3F
:1056C8003A699A42B7D300233B6143E03B695A01E8
:1056D800FB68134403F530631B6803F00043B3F120
:1056E800004F18D13B69002B0AD13B695A01FB686E
:1056F800134403F530631A464FF00063136013E058
:105708003B695A01FB68134403F530631A464FF0AE
:105718009043136008E03B695A01FB68134403F5A2
:1057280030631A46002313603B695A01FB6813442F
:1057380003F530631A46002313613B695A01FB687D
:10574800134403F530631A464FF67F3393603B6981
:1057580001333B617B6A3A699A42B7D3FB6803F528
:1057680000631B69FA6802F5006223F48073136111
:105778007B6800229A617B686FF080425A613B6BBC
:10578800002B05D17B689B6943F010027B689A6106
:105798007B689A690F4B13437A689361FB6B002B04
:1057A80005D07B689B6943F008027B689A61FB6CB3
:1057B800012B07D17B689B6943F0804343F00403C6
:1057C8007A689361FB7D18461837BD46BDE880406E
:1057D80004B0704700383C8080B485B000AF786072
:1057E80039600023FB60FB680133FB60FB68134AE8
:1057F800934201D903231BE07B681B69002BF2DA73
:105808000023FB603B689B0143F020027B681A6120
:10581800FB680133FB60FB68084A934201D9032304
:1058280006E07B681B6903F02003202BF0D00023DF
:1058380018461437BD465DF8047B7047400D0300D9
:1058480080B485B000AF78600023FB60FB6801334B
:10585800FB60FB68114A934201D9032318E07B6877
:105868001B69002BF2DA0023FB607B6810221A61A7
:10587800FB680133FB60FB68084A934201D90323A4
:1058880006E07B681B6903F01003102BF0D000239F
:1058980018461437BD465DF8047B7047400D030079
:1058A80080B485B000AF78600B46FB707B68FB6006
:1058B800FB6803F500631A68FB78F96801F5006175
:1058C80013430B60002318461437BD465DF8047B6C
:1058D800704780B487B000AF78607B683B613B69F4
:1058E80003F500639B6803F00603FB60FB68002B6D
:1058F80002D10023FB750AE0FB68022B02D0FB688B
:10590800062B02D10223FB7501E00F23FB75FB7DFB
:1059180018461C37BD465DF8047B704780B485B0D7
:1059280000AF786039607B68FB603B681B78BB60C0
:105938003B685B78012B3AD1FB6803F50063DA69B1
:105948003B681B7803F00F03012101FA03F39BB2B4
:10595800F96801F500611343CB61BB685A01FB6824
:10596800134403F510631B6803F40043002B55D15F
:10597800BB685A01FB68134403F510631A683B6857
:10598800DB68C3F30A013B681B799B041943BB68B6
:105998009B050B431343BA685101FA680A4402F5A0
:1059A800106243F0805343F40043136036E0FB6811
:1059B80003F50063DA693B681B7803F00F030121E4
:1059C80001FA03F31B04F96801F500611343CB6185
:1059D800BB685A01FB68134403F530631B6803F482
:1059E8000043002B1AD1BB685A01FB68134403F526
:1059F80030631A683B68DB68C3F30A013B681B79AC
:105A08009B040B431343BA685101FA680A4402F530
:105A1800306243F0805343F4004313600023184678
:105A28001437BD465DF8047B7047000080B485B02C
:105A380000AF786039607B68FB603B681B78BB60AF
:105A48003B685B78012B61D1BB685A01FB68134442
:105A580003F510631B6803F00043B3F1004F1FD137
:105A6800BB685A01FB68134403F510631B68BA68E6
:105A78005101FA680A4402F5106243F000631360AA
:105A8800BB685A01FB68134403F510631B68BA68C6
:105A98005101FA680A4402F5106243F0804313602A
:105AA800FB6803F50063DA6B3B681B7803F00F03B0
:105AB800012101FA03F39BB2DB43F96801F50061A8
:105AC8001340CB63FB6803F50063DA693B681B7816
