:020000040800F2
:100000000050002059040008FD0300080304000804
:10001000090400080F04000815040008000000008F
:100020000000000000000000000000001B040008A9
:100030002704000800000000330400083F04000803
:10004000A1040008A1040008A1040008A1040008FC
:10005000A1040008A1040008A1040008A1040008EC
:10006000A1040008A1040008A1040008A1040008DC
:10007000A1040008A1040008A1040008A1040008CC
:10008000A1040008A1040008A1040008A1040008BC
:10009000A1040008A1040008A1040008A1040008AC
:1000A000A1040008A1040008A1040008A10400089C
:1000B000A1040008A1040008A1040008A10400088C
:1000C000A1040008A1040008A1040008A10400087C
:1000D000A1040008A1040008A1040008A10400086C
:1000E000A1040008A1040008A10400080000000009
:1000F0000000000000000000000000000000000000
:0C01000000000000000000005FF808F1A3
:10010C0010B5054C237833B9044B13B10448AFF345
:10011C0000800123237010BD0C00002000000000A3
:10012C00301B000808B5034B1BB103490348AFF360
:10013C00008008BD0000000010000020301B0008EB
:10014C0080B588B002AF00F0A7F900F039F800F0E4
:10015C00ABF800F07BF81623FB81F423FB71002332
:10016C00BB710C23BB810C23BB6000237B610BE0B8
:10017C00BB89FA1DF9894FF0FF3000900E4800F052
:10018C0099FD7B6901337B617B690C4A9342EFDB00
:10019C0000233B610BE0BB89BA1DF9894FF0FF309E
:1001AC000090054800F086FD3B6901333B613B69DB
:1001BC00024A9342EFDBD8E7280000208096980093
:1001CC0080B590B000AF07F1180328220021184623
:1001DC0001F0A0FC3B1D00221A605A609A60DA60A4
:1001EC001A610123BB614FF48033FB6100233B6236
:1001FC000123BB6202237B634FF48033BB634FF458
:10020C00E013FB6307F11803184601F059F8034695
:10021C00002B01D000F076F80F237B600223BB602B
:10022C000023FB604FF480633B6100237B613B1D2B
:10023C000221184601F0C4FA0346002B01D000F04D
:10024C0061F800BF4037BD4680BD000080B500AFEF
:10025C00124B134A1A60114B124A5A600F4B002270
:10026C009A600E4B0022DA600C4B4FF480421A61FC
:10027C000A4B00225A61094B00229A61074B00225B
:10028C00DA61064B00221A62044800F0CFFB0346E9
:10029C00002B01D000F036F800BF80BD28000020F4
:1002AC0000540040A086010080B485B000AF144B10
:1002BC009B69134A43F020039361114B9B6903F034
:1002CC002003FB60FB680E4B9B690D4A43F0040353
:1002DC0093610B4B9B6903F00403BB60BB68084B39
:1002EC009B69074A43F008039361054B9B6903F034
:1002FC0008037B607B6800BF1437BD4680BC704729
:10030C000010024080B400AF72B600BFFEE70000E0
:10031C0080B485B000AF154B9B69144A43F00103C0
:10032C009361124B9B6903F00103BB60BB680F4BDD
:10033C00DB690E4A43F08053D3610C4BDB6903F04D
:10034C0080537B607B680A4B5B68FB60FB6823F027
:10035C00E063FB60FB6843F00073FB60044AFB68DE
:10036C00536000BF1437BD4680BC7047001002407C
:10037C000000014080B588B000AF786007F1100331
:10038C0000221A605A609A60DA607B681B68154A12
:10039C00934223D1144B9B69134A43F00803936196
:1003AC00114B9B6903F00803FB60FB68C0233B61A6
:1003BC0012237B610323FB6107F1100319460B48E1
:1003CC0000F0B0F9084BDB69074A43F40013D36122
:1003DC00054BDB6903F40013BB60BB6800BF20371F
:1003EC00BD4680BD0054004000100240000C01408E
:1003FC0080B400AFFEE780B400AFFEE780B400AF7E
:10040C00FEE780B400AFFEE780B400AFFEE780B437
:10041C0000AF00BFBD4680BC704780B400AF00BFCA
:10042C00BD4680BC704780B400AF00BFBD4680BCE9
:10043C00704780B500AF00F075F800BF80BD80B488
:10044C0000AF00BFBD4680BC704700000C480D4992
:10045C000D4A002302E0D458C4500433C4188C4213
:10046C00F9D30A4A0A4C002301E013600432A24279
:10047C00FBD3FFF7E4FF01F029FBFFF761FE7047A8
:10048C00000000200C000020781B00080C0000204D
:10049C0080000020FEE7000080B500AF084B1B6811
:1004AC00074A43F010031360032000F007F90F20F4
:1004BC0000F008F8FFF72CFF0023184680BD00BFA2
:1004CC000020024080B582B000AF7860124B1A68F1
:1004DC00124B1B7819464FF47A73B3FBF1F3B2FB52
:1004EC00F3F3184600F011F90346002B01D0012359
:1004FC000EE07B680F2B0AD8002279684FF0FF3092
:10050C0000F0E7F8064A7B681360002300E0012343
:10051C0018460837BD4680BD0000002008000020AA
:10052C000400002080B400AF054B1B781A46054B25
:10053C001B681344034A136000BFBD4680BC704760
:10054C00080000207C00002080B400AF024B1B6828
:10055C001846BD4680BC70477C00002080B485B036
:10056C0000AF78607B6803F00703FB600C4BDB6823
:10057C00BB60BA684FF6FF031340BB60FB681A02FE
:10058C00BB68134343F0BF6343F40033BB60044ABE
:10059C00BB68D36000BF1437BD4680BC704700BF3A
:1005AC0000ED00E080B400AF044BDB681B0A03F0E5
:1005BC0007031846BD4680BC704700BF00ED00E045
:1005CC0080B483B000AF03463960FB7197F90730F4
:1005DC00002B0ADB3B68DAB20C4997F907301201A1
:1005EC00D2B20B4483F800230AE03B68DAB2084924
:1005FC00FB7903F00F03043B1201D2B20B441A76C1
:10060C0000BF0C37BD4680BC704700BF00E100E066
:10061C0000ED00E080B489B000AFF860B9607A609A
:10062C00FB6803F00703FB61FB69C3F10703042BB1
:10063C0028BF0423BB61FB690433062B02D9FB6979
:10064C00033B00E000237B614FF0FF32BB6902FAF1
:10065C0003F3DA43BB681A407B699A404FF0FF31D1
:10066C007B6901FA03F3D9437B680B4013431846AB
:10067C002437BD4680BC704780B582B000AF78602F
:10068C007B68013BB3F1807F01D301230FE00A4A61
:10069C007B68013B53600F214FF0FF30FFF790FF59
:1006AC00054B00229A60044B07221A60002318465F
:1006BC000837BD4680BD00BF10E000E080B582B0B9
:1006CC0000AF78607868FFF749FF00BF0837BD4678
:1006DC0080BD80B586B000AF0346B9607A60FB730D
:1006EC0000237B61FFF75EFF78617A68B9687869EF
:1006FC00FFF790FF024697F90F3011461846FFF7A7
:10070C005FFF00BF1837BD4680BD80B582B000AF1B
:10071C0078607868FFF7B0FF034618460837BD4687
:10072C0080BD000080B48BB000AF786039600023CE
:10073C007B6200233B6269E101227B6A02FA03F3CC
:10074C00FB613B681B68FA691340BB61BA69FB69C2
:10075C009A4240F058813B685B689A4A93425ED05B
:10076C00984A934275D8984A934258D0964A9342E5
:10077C006FD8964A934252D0944A934269D8944A7D
:10078C0093424CD0924A934263D8924A934246D0B9
:10079C00904A93425DD8122B2AD8122B59D801A219
:1007AC0052F823F02B080008050800081708000869
:1007BC00590800085F0800085F0800085F08000877
:1007CC005F0800085F0800085F0800085F08000861
:1007DC005F0800085F0800085F0800085F08000851
:1007EC005F0800085F0800080D08000821080008D1
:1007FC00794A934213D02CE03B68DB683B6229E0DA
:10080C003B68DB6804333B6224E03B68DB680833FD
:10081C003B621FE03B68DB680C333B621AE03B68D1
:10082C009B68002B02D104233B6213E03B689B685E
:10083C00012B05D108233B627B68FA691A6109E038
:10084C0008233B627B68FA695A6103E000233B6230
:10085C0000E000BFBB69FF2B01D87B6801E07B681F
:10086C0004337B61BB69FF2B02D87B6A9B0002E0DF
:10087C007B6A083B9B003B617B691A680F213B69D3
:10088C0001FA03F3DB431A40396A3B6901FA03F3BB
:10089C001A437B691A603B685B6803F08053002B3A
:1008AC0000F0B1804D4B9B694C4A43F001039361BE
:1008BC004A4B9B6903F00103BB60BB68484A7B6AE7
:1008CC009B08023352F82330FB607B6A03F003036E
:1008DC009B000F2202FA03F3DB43FA681340FB6020
:1008EC007B68404A934213D07B683F4A93420DD0B9
:1008FC007B683E4A934207D07B683D4A934201D1C4
:10090C00032306E0042304E0022302E0012300E0B9
:10091C0000237A6A02F0030292009340FA681343B0
:10092C00FB602F497B6A9B080233FA6841F823204D
:10093C003B685B6803F48033002B06D02D4B1A68A0
:10094C002C49BB6913430B6006E02A4B1A68BB6940
:10095C00DB43284913400B603B685B6803F40033AE
:10096C00002B06D0234B5A682249BB6913434B60BA
:10097C0006E0204B5A68BB69DB431E4913404B60B1
:10098C003B685B6803F48013002B06D0194B9A6804
:10099C001849BB6913438B6006E0164B9A68BB6918
:1009AC00DB43144913408B603B685B6803F4001312
:1009BC00002B21D00F4BDA680E49BB691343CB6077
:1009CC0021E000BF000032100000311000002210A6
:1009DC000000211000001210000011100010024045
:1009EC000000014000080140000C014000100140D3
:1009FC0000140140000401400B4BDA68BB69DB4377
:100A0C0009491340CB607B6A01337B623B681A68EF
:100A1C007B6A22FA03F3002B7FF48EAE00BF00BF7B
:100A2C002C37BD4680BC70470004014080B584B0B3
:100A3C0000AF78607B68002B01D101232BE17B6830
:100A4C0093F83D30DBB2002B06D17B68002283F893
:100A5C003C207868FFF78EFC7B68242283F83D20CD
:100A6C007B681B681A687B681B6822F001021A609D
:100A7C007B681B681A687B681B6842F400421A602A
:100A8C007B681B681A687B681B6822F400421A603A
:100A9C0000F0EAFFF8607B685B68814A934207D8F4
:100AAC00FB68804A934294BF01230023DBB206E02B
:100ABC00FB687D4A934294BF01230023DBB2002BD9
:100ACC0001D00123E7E0FB68784AA2FB03239B0CCF
:100ADC00BB607B681B685B6823F03F017B681B680D
:100AEC00BA680A435A607B681B681B6A23F03F0193
:100AFC007B685B686A4A934202D8BB68013309E0A1
:100B0C00BB684FF4967202FB03F3694AA2FB032302
:100B1C009B0901337A6812680B4313627B681B686C
:100B2C00DB6923F44F4222F0FF027B685B685C496F
:100B3C008B4219D8FB68591E7B685B685B00B1FB64
:100B4C00F3F3591C40F6FC730B40002B0AD0FB68E6
:100B5C00591E7B685B685B00B1FBF3F30133C3F395
:100B6C000B0351E004234FE07B689B68002B11D1F1
:100B7C00FB68581E7B6859680B465B000B44B0FB46
:100B8C00F3F30133C3F30B03002B0CBF012300233E
:100B9C00DBB212E0FB68581E7B6859680B469B0061
:100BAC000B4499000B44B0FBF3F30133C3F30B0379
:100BBC00002B0CBF01230023DBB2002B01D001233F
:100BCC0022E07B689B68002B0ED1FB68581E7B686B
:100BDC0059680B465B000B44B0FBF3F30133C3F3D2
:100BEC000B0343F400430FE0FB68581E7B68596805
:100BFC000B469B000B4499000B44B0FBF3F3013301
:100C0C00C3F30B0343F44043796809681343CB6186
:100C1C007B681B681B6823F0C0017B68DA697B6802
:100C2C001B6A1A437B681B680A431A607B681B6843
:100C3C009B6823F4034323F0FF037A6811697A68F5
:100C4C00D26811437A6812680B4393607B681B6807
:100C5C00DB6823F0FF017B685A697B689B691A4348
:100C6C007B681B680A43DA607B681B681A687B68C0
:100C7C001B6842F001021A607B6800221A647B68D0
:100C8C00202283F83D207B6800221A637B680022B7
:100C9C0083F83E20002318461037BD4680BD00BFA8
:100CAC00A08601007F841E00FF083D0083DE1B43ED
:100CBC00D34D621080B588B002AFF8607A601A46E6
:100CCC000B467B8113463B81FFF73EFC7861FB684A
:100CDC0093F83D30DBB2202B40F0E0807B69009331
:100CEC00192301227049F86800F064F90346002BBF
:100CFC0001D00223D3E0FB6893F83C30012B01D1E7
:100D0C000223CCE0FB68012283F83C20FB681B68C3
:100D1C001B6803F00103012B07D0FB681B681A68E2
:100D2C00FB681B6842F001021A60FB681B681A68BA
:100D3C00FB681B6822F400621A60FB68212283F8AE
:100D4C003D20FB68102283F83E20FB6800221A64C9
:100D5C00FB687A685A62FB683A895A85FB685B8D36
:100D6C009AB2FB681A85FB68504ADA6279897B690A
:100D7C003A6AF86800F09CF80346002B01D0012376
:100D8C008DE000233B61FB681B685B693B61FB6882
:100D9C001B689B693B613B6966E07A69396AF86854
:100DAC0000F0DEF90346002B0DD0FB681B6C042B06
:100DBC0007D1FB681B681A68FB681B6842F4007259
:100DCC001A6001236BE0FB685B6A1A78FB681B688E
:100DDC001A61FB685B6A5A1CFB685A62FB685B8D84
:100DEC009BB2013B9AB2FB685A85FB681B8D013B99
:100DFC009AB2FB681A85FB681B685B6903F00403F5
:100E0C00042B1BD1FB681B8D002B17D0FB685B6A76
:100E1C001A78FB681B681A61FB685B6A5A1CFB68D2
:100E2C005A62FB685B8D9BB2013B9AB2FB685A8598
:100E3C00FB681B8D013B9AB2FB681A857A69396A8B
:100E4C00F86800F0CEF90346002B0DD0FB681B6C44
:100E5C00042B07D1FB681B681A68FB681B6842F4FB
:100E6C0000721A6001231AE0FB681B8D002B94D1D1
:100E7C00FB681B681A68FB681B6842F400721A60F6
:100E8C00FB68202283F83D20FB68002283F83E207B
:100E9C00FB68002283F83C20002300E00223184664
:100EAC001837BD4680BD00BF020010000000FFFFD8
:100EBC0080B588B002AFF8607A603B600B467B81EE
:100ECC00FB68DB6A7B617B69082B06D07B69012B95
:100EDC0003D07B6913F5803F08D1FB681B681A6847
:100EEC00FB681B6842F480721A600BE0FB681B6B9A
:100EFC00122B07D1FB681B681A68FB681B6842F44D
:100F0C0080721A603B6800937B6800224FF00111DD
:100F1C00F86800F04FF80346002B0DD0FB681B68F7
:100F2C001B6803F48073B3F5807F03D1FB684FF427
:100F3C0000721A64032335E0FB681B69B3F5804F1C
:100F4C0008D17B89DBB21A46FB681B6802F0FE02F3
:100F5C001A611BE07B89DB11DBB203F00603DBB209
:100F6C0063F00F03DAB2FB681B681A613B687A689E
:100F7C000E49F86800F075F80346002B01D00123E8
:100F8C0010E07B89DAB2FB681B681A613B687A68EF
:100F9C000749F86800F065F80346002B01D00123DF
:100FAC0000E0002318461837BD4680BD080001003C
:100FBC000200010080B584B000AFF860B9603B60FE
:100FCC001346FB7125E03B68B3F1FF3F21D0FFF7DF
:100FDC00BBFA0246BB69D31A3A689A4202D33B6801
:100FEC00002B16D1FB6800221A63FB68202283F8C1
:100FFC003D20FB68002283F83E20FB681B6C43F00D
:10100C002002FB681A64FB68002283F83C20012351
:10101C0023E0BB681B0CDBB2012B0DD1FB681B68FA
:10102C005B69DA43BB6813409BB2002B0CBF0123F6
:10103C000023DBB21A460CE0FB681B689B69DA43A1
:10104C00BB6813409BB2002B0CBF01230023DBB207
:10105C001A46FB799A42B6D0002318461037BD4683
:10106C0080BD80B584B000AFF860B9607A603B6039
:10107C0051E0FB681B685B6903F48063B3F5806F18
:10108C0023D1FB681B681A68FB681B6842F400726A
:10109C001A60FB681B686FF480625A61FB6800225F
:1010AC001A63FB68202283F83D20FB68002283F83A
:1010BC003E20FB681B6C43F00402FB681A64FB685F
:1010CC00002283F83C20012346E07B68B3F1FF3F0C
:1010DC0021D0FFF739FA02463B68D31A7A689A4254
:1010EC0002D37B68002B16D1FB6800221A63FB68C5
:1010FC00202283F83D20FB68002283F83E20FB6809
:10110C001B6C43F02002FB681A64FB68002283F816
:10111C003C20012320E0BB681B0CDBB2012B0CD163
:10112C00FB681B685B69DA43BB6813409BB2002BFE
:10113C0014BF01230023DBB20BE0FB681B689B6927
:10114C00DA43BB6813409BB2002B14BF012300236E
:10115C00DBB2002B8DD1002318461037BD4680BD65
:10116C0080B584B000AFF860B9607A602DE0F868A3
:10117C0000F078F80346002B01D001232DE0BB686A
:10118C00B3F1FF3F21D0FFF7DFF902467B68D31A9A
:10119C00BA689A4202D3BB68002B16D1FB680022B6
:1011AC001A63FB68202283F83D20FB68002283F839
:1011BC003E20FB681B6C43F02002FB681A64FB6842
:1011CC00002283F83C20012307E0FB681B685B6965
:1011DC0003F08003802BCAD1002318461037BD467C
:1011EC0080BD80B584B000AFF860B9607A602DE046
:1011FC00F86800F037F80346002B01D001232DE0EE
:10120C00BB68B3F1FF3F21D0FFF79EF902467B6824
:10121C00D31ABA689A4202D3BB68002B16D1FB686A
:10122C0000221A63FB68202283F83D20FB68002211
:10123C0083F83E20FB681B6C43F02002FB681A64A9
:10124C00FB68002283F83C20012307E0FB681B6845
:10125C005B6903F00403042BCAD100231846103732
:10126C00BD4680BD80B483B000AF78607B681B68DE
:10127C005B6903F48063B3F5806F1BD17B681B68DB
:10128C006FF480625A617B6800221A637B682022AB
:10129C0083F83D207B68002283F83E207B681B6C22
:1012AC0043F004027B681A647B68002283F83C20BC
:1012BC00012300E0002318460C37BD4680BC704764
:1012CC0080B586B000AF78607B68002B01D101231C
:1012DC006CE27B681B6803F00103002B00F0878035
:1012EC00924B5B6803F00C03042B0CD08F4B5B68A8
:1012FC0003F00C03082B12D18C4B5B6803F4803386
:10130C00B3F5803F0BD1894B1B6803F40033002BE2
:10131C006CD07B685B68002B68D1012346E27B684C
:10132C005B68B3F5803F06D1804B1B687F4A43F462
:10133C00803313602EE07B685B68002B0CD17B4BF9
:10134C001B687A4A23F480331360784B1B68774A06
:10135C0023F4802313601DE07B685B68B3F5A02F3A
:10136C000CD1724B1B68714A43F4802313606F4B92
:10137C001B686E4A43F4803313600BE06B4B1B68A5
:10138C006A4A23F480331360684B1B68674A23F462
:10139C00802313607B685B68002B13D0FFF7D4F8B5
:1013AC00386108E0FFF7D0F802463B69D31A642B8A
:1013BC0001D90323FAE15D4B1B6803F40033002BC6
:1013CC00F0D014E0FFF7C0F8386108E0FFF7BCF884
:1013DC0002463B69D31A642B01D90323E6E1534B34
:1013EC001B6803F40033002BF0D100E000BF7B68D6
:1013FC001B6803F00203002B63D04C4B5B6803F0BB
:10140C000C03002B0BD0494B5B6803F00C03082B2F
:10141C001CD1464B5B6803F48033002B16D1434B35
:10142C001B6803F00203002B05D07B681B69012BA2
:10143C0001D00123BAE13D4B1B6823F0F8027B6815
:10144C005B69DB00394913430B603AE07B681B692D
:10145C00002B20D0364B01221A60FFF775F838614B
:10146C0008E0FFF771F802463B69D31A022B01D949
:10147C0003239BE12D4B1B6803F00203002BF0D0E0
:10148C002A4B1B6823F0F8027B685B69DB00274959
:10149C0013430B6015E0264B00221A60FFF754F83B
:1014AC00386108E0FFF750F802463B69D31A022B6B
:1014BC0001D903237AE11D4B1B6803F00203002BB7
:1014CC00F0D17B681B6803F00803002B3AD07B68D3
:1014DC009B69002B19D0174B01221A60FFF734F8C7
:1014EC00386108E0FFF730F802463B69D31A022B4B
:1014FC0001D903235AE10D4B5B6A03F00203002B65
:10150C00F0D0012000F0C4FA1CE00A4B00221A6053
:10151C00FFF71AF838610FE0FFF716F802463B693F
:10152C00D31A022B08D9032340E100BF001002405C
:10153C0000004242800442429E4B5B6A03F002036D
:10154C00002BE9D17B681B6803F00403002B00F02F
:10155C00A6800023FB75974BDB6903F08053002BAF
:10156C000DD1944BDB69934A43F08053D361914B7B
:10157C00DB6903F08053BB60BB680123FB758E4BAA
:10158C001B6803F48073002B18D18B4B1B688A4AA1
:10159C0043F480731360FEF7D7FF386108E0FEF761
:1015AC00D3FF02463B69D31A642B01D90323FDE018
:1015BC00814B1B6803F48073002BF0D07B68DB68D5
:1015CC00012B06D17B4B1B6A7A4A43F00103136251
:1015DC002DE07B68DB68002B0CD1764B1B6A754ABF
:1015EC0023F001031362734B1B6A724A23F004034A
:1015FC0013621CE07B68DB68052B0CD16D4B1B6AFE
:10160C006C4A43F0040313626A4B1B6A694A43F049
:10161C00010313620BE0674B1B6A664A23F001035C
:10162C001362644B1B6A634A23F0040313627B68E6
:10163C00DB68002B15D0FEF787FF38610AE0FEF758
:10164C0083FF02463B69D31A41F28832934201D997
:10165C000323ABE0574B1B6A03F00203002BEED0C5
:10166C0014E0FEF771FF38610AE0FEF76DFF0246E9
:10167C003B69D31A41F28832934201D9032395E096
:10168C004C4B1B6A03F00203002BEED1FB7D012BAC
:10169C0005D1484BDB69474A23F08053D3617B6803
:1016AC00DB69002B00F08180424B5B6803F00C037C
:1016BC00082B61D07B68DB69022B46D13F4B0022A3
:1016CC001A60FEF741FF386108E0FEF73DFF024665
:1016DC003B69D31A022B01D9032367E0354B1B68F6
:1016EC0003F00073002BF0D17B681B6AB3F5803FCD
:1016FC0008D1304B5B6823F400327B689B682D4922
:10170C0013434B602B4B5B6823F474127B68196A90
:10171C007B685B6A0B43274913434B60274B0122C1
:10172C001A60FEF711FF386108E0FEF70DFF024664
:10173C003B69D31A022B01D9032337E01D4B1B68DD
:10174C0003F00073002BF0D02FE01C4B00221A602A
:10175C00FEF7FAFE386108E0FEF7F6FE02463B693A
:10176C00D31A022B01D9032320E0124B1B6803F080
:10177C000073002BF0D118E07B68DB69012B01D1E1
:10178C00012313E00B4B5B68FB60FB6803F48032B6
:10179C007B681B6A9A4206D1FB6803F470127B6863
:1017AC005B6A9A4201D0012300E0002318461837E7
:1017BC00BD4680BD001002400070004060004242F7
:1017CC0080B584B000AF786039607B68002B01D1A4
:1017DC000123D0E06A4B1B6803F007033A689A4276
:1017EC0010D9674B1B6823F0070265493B6813430C
:1017FC000B60634B1B6803F007033A689A4201D0F5
:10180C000123B8E07B681B6803F00203002B20D097
:10181C007B681B6803F00403002B05D0594B5B68F5
:10182C00584A43F4E06353607B681B6803F0080379
:10183C00002B05D0534B5B68524A43F46053536002
:10184C00504B5B6823F0F0027B689B684D49134357
:10185C004B607B681B6803F00103002B40D07B6856
:10186C005B68012B07D1474B1B6803F40033002B3B
:10187C0015D101237FE07B685B68022B07D1414BBC
:10188C001B6803F00073002B09D1012373E03D4B5F
:10189C001B6803F00203002B01D101236BE0394BD1
:1018AC005B6823F003027B685B68364913434B602B
:1018BC00FEF74AFEF8600AE0FEF746FE0246FB68B9
:1018CC00D31A41F28832934201D9032353E02D4BB2
:1018DC005B6803F00C027B685B689B009A42EBD15F
:1018EC00274B1B6803F007033A689A4210D2244B2B
:1018FC001B6823F0070222493B6813430B60204B03
:10190C001B6803F007033A689A4201D0012332E0C6
:10191C007B681B6803F00403002B08D0194B5B6831
:10192C0023F4E0627B68DB68164913434B607B68E9
:10193C001B6803F00803002B09D0124B5B6823F4DF
:10194C0060527B681B69DB000E4913434B6000F04F
:10195C0021F802460B4B5B681B0903F00F030A4985
:10196C00CB5C22FA03F3094A1360094B1B68184637
:10197C00FEF7A8FD002318461037BD4680BD00BFFA
:10198C000020024000100240581B000800000020FC
:10199C000400002090B48AB000AF2A4B3C1D0FCB42
:1019AC0084E80F0040F201233B800023FB610023FD
:1019BC00BB6100237B6200237B6100233B62224BD3
:1019CC005B68FB61FB6903F00C03042B02D0082B52
:1019DC0003D02DE01D4B3B622DE0FB699B0C03F00B
:1019EC000F0307F12802134413F8243C7B61FB69B5
:1019FC0003F48033002B13D0134B5B685B0C03F0A8
:101A0C00010307F12802134413F8283CBB617B69DE
:101A1C000E4A02FB03F2BB69B2FBF3F37B6204E0F8
:101A2C007B690B4A02FB03F37B627B6A3B6202E03D
:101A3C00064B3B6200BF3B6A18462837BD4690BC3C
:101A4C00704700BF481B00080010024000127A00CB
:101A5C0000093D0080B400AF024B1B681846BD4620
:101A6C0080BC70470000002080B500AFFFF7F2FF8C
:101A7C000246054B5B681B0A03F007030349CB5C6A
:101A8C0022FA03F3184680BD00100240681B0008C0
:101A9C0080B485B000AF78600A4B1B680A4AA2FB81
:101AAC0003235B0A7A6802FB03F3FB6000BFFB684D
:101ABC005A1EFA60002BF9D100BF00BF1437BD4687
:101ACC0080BC704700000020D34D621070B500261A
:101ADC000C4D0D4C641BA410A64209D100F022F849
:101AEC0000260A4D0A4C641BA410A64205D170BDF9
:101AFC0055F8043B98470136EEE755F8043B9847F8
:101B0C000136F2E7701B0008701B0008701B000800
:101B1C00741B000803460244934200D1704703F83B
:101B2C00011BF9E7F8B500BFF8BC08BC9E4670472E
:0C1B3C00F8B500BFF8BC08BC9E4670471E
:101B480002030405060708090A0B0C0D0E0F1010F6
:101B58000000000000000000010203040607080955
:081B680000000000010203046B
:041B70003101000837
:041B74000D01000857
:0C1B78000024F400100000000100000038
:040000050800045992
:00000001FF
